:020000040800F2
:1000000088070020B52D0008F9030008FB0300084D
:10001000FF030008030400080704000800000000B4
:100020000000000000000000000000000B040008B9
:100030000D040008000000000F040008110400086F
:10004000CF2D0008CF2D0008CF2D0008CF2D0008A0
:10005000CF2D0008CF2D0008CF2D0008CF2D000890
:10006000CF2D0008CF2D0008CF2D0008CF2D000880
:10007000CF2D0008CF2D0008CF2D0008CF2D000870
:10008000CF2D0008CF2D0008CF2D0008CF2D000860
:10009000CF2D0008CF2D0008CF2D0008CF2D000850
:1000A000CF2D0008CF2D0008CF2D0008CF2D000840
:1000B000CF2D00089D020008CF2D0008CF2D00088D
:1000C000CF2D0008CF2D0008CF2D0008CF2D000820
:1000D000CF2D0008792F0008CF2D0008CF2D000864
:1000E000CF2D0008CF2D0008CF2D0008CF2D000800
:1000F000CF2D0008CF2D0008CF2D0008CF2D0008F0
:10010000CF2D0008CF2D0008CF2D0008CF2D0008DF
:10011000CF2D0008CF2D0008CF2D0008CF2D0008CF
:10012000CF2D0008CF2D0008CF2D0008CF2D0008BF
:1001300000F002F800F03CF80AA090E8000C8244BD
:100140008344AAF10107DA4501D100F031F8AFF29A
:10015000090EBAE80F0013F0010F18BFFB1A43F0A5
:1001600001031847EC7000000C710000103A24BF26
:1001700078C878C1FAD8520724BF30C830C144BF0C
:1001800004680C607047000000230024002500264E
:10019000103A28BF78C1FBD8520728BF30C148BFEA
:1001A0000B6070471FB5AFF300801FBD10B510BDC9
:1001B00005F0A9FD1146FFF7F5FF00F007F805F07F
:1001C000C7FDFFF7F3FF02F075FE000010B502F067
:1001D00011FE4FF4165002F080FE00F0B9FA02F062
:1001E00035FD00F02AFE002000F012FE012000F094
:1001F00098FD4FF478407149088002F081FD00F0CD
:10020000EDF941F61F41012002F04AFD45E00020D2
:1002100000F0C8FA0446012C0ED169480068401C61
:100220006749086008460068B0F59F7F29DD0846E9
:100230000068401E086024E0022C0DD16048006870
:10024000401E5F49086008460068012819DA084620
:100250000068401C086014E0032C05D15948006870
:100260000A30584908600CE0042C0AD1554800684F
:100270000A385449086008460068012801DC01205A
:1002800008605148006808B9012000E000204E498C
:1002900008604C48006802F0C2FDB8E700B587B0BE
:1002A00001214A4804F063FE00284ED0012147484E
:1002B00004F06EFE46480068414909680844444914
:1002C000086008460068B0F5A07F03DB00200860E6
:1002D00000F09EFD3F4800883F490880084600889E
:1002E00006F090F8CDE904013CA00CC8049805F094
:1002F00025FECDE902013BA00CC8029806F087F864
:10030000CDE9000106F01AF8384908603048006865
:100310002B490968084482B23448006883B23448E3
:10032000006881B22A48006880B202F007FA2F48BC
:1003300000682F4908602448001D006808B90120A2
:1003400000E000202049091D086007B000BD10B57D
:1003500005F026F84FF4803005F042F805F07FF8FC
:100360002449087008460078012826D1102005F09D
:10037000F2F9022005F0DCF9002005F0AFF80020CA
:1003800005F0BCF84FF4806005F0B0F84FF4E011D0
:100390004FF4803005F087F8012005F08FF800BF9A
:1003A000392005F040F80028FAD0022005F089F83D
:1003B00000BF05F08EF80828FBD110BD30000020EA
:1003C00000000020040000208001234200040040BF
:1003D000080000202C000020140000209A99999910
:1003E000991931400000000000006E400C00002010
:1003F0001000002016000020704700BFFEE700BF7D
:10040000FEE700BFFEE700BFFEE77047704770479A
:100410007047000000200021674A126842F48032D1
:10042000654B1A6000BF644A126802F40031401C38
:1004300011B9B0F5A06FF6D15F4A126812F4003F0F
:1004400001D0012100E00021012942D15B4A12685C
:1004500042F01002594B1A601A46126822F0030249
:100460001A601A46126842F002021A60524A526832
:10047000514B5A601A4652685A601A46526842F402
:1004800080625A601A46526822F47C125A601A46F8
:10049000526842F4E8125A601A46126842F08072BA
:1004A0001A6000BF444A126812F0007FFAD0424A34
:1004B000526822F00302404B5A601A46526842F0DA
:1004C00002025A6000BF3C4A526802F00C02082A3D
:1004D000F9D1704710B5FFF79DFF10BD10B5364834
:1004E000006840F00100344908600846406834491B
:1004F00008403149486008460068324908402E49A2
:1005000008600846006820F48020086008464068BB
:1005100020F4FE0048604FF41F008860FFF7DAFF08
:100520004FF000602849086010BD10B50020002180
:100530000022214B5B6803F00C0020B1042806D098
:10054000082828D107E0214B214C236027E01F4BCE
:100550001F4C236023E0184B5B6803F47011164BAB
:100560005B6803F48032022303EB914122B9194BFB
:100570004B43174C23600DE00F4B5B6813F4003FB7
:1005800004D0144B4B43124C236003E00F4B4B43FE
:100590000F4C236003E00D4B0D4C236000BF00BFE8
:1005A000054B5B68C3F303130B4CE05C084B1B6803
:1005B000C340074C236010BD0010024000200240E1
:1005C0000000FFF8FFFFF6FE08ED00E000127A00E1
:1005D0001800002000093D001C00002000B591B06B
:1005E00001214FF4047005F041F84FF4004004F08D
:1005F000A1FF0820ADF8000000208DF80300694637
:100600004F4803F0D3FC0121084605F022F84D487D
:1006100003F03AF84C4801904C48029000200390B7
:10062000012004900020059006904FF48070079000
:10063000800008902020099000020A9000200B9072
:1006400001A9404803F0C8F801213E4803F0EFF843
:100650003D484C3802F046FD00200C908DF83400E7
:1006600001208DF835004FF460200E9000200F908F
:1006700001208DF840000CA933484C3802F059FD98
:10068000072301220D2130484C3802F0E8FD0121FA
:100690002D484C3802F083FD01212B484C3802F0E4
:1006A00073FD29484C3802F091FD00BF26484C38B4
:1006B00002F091FD0028F9D123484C3802F095FD55
:1006C00000BF21484C3802F095FD0028F9D10121E6
:1006D0001D484C3802F098FD11B000BD10B504461D
:1006E00007230122214618484C3802F0B8FD0121A9
:1006F00015484C3802F088FD00BF022112484C38E2
:1007000002F0D6FE0028F8D00F484C3802F00CFE5C
:1007100010BD2DE9F04104460D460026002708E0F3
:100720002046FFF7DBFF0644052002F09AFB781C09
:10073000C7B2AF42F4DBB6FBF5F080B2BDE8F081A2
:1007400000100140080002404C2401402C00002011
:1007500008B50121102004F089FF0F20ADF800003A
:1007600010208DF8030069463C4803F01FFC01216E
:100770003A4803F0C5FC0221384803F0C1FC0421CB
:10078000364803F0BDFC0821344803F0B9FCF020E2
:10079000ADF8000028208DF8030069462F4803F0CB
:1007A00005FC08BD10B5044614B101202C490870A1
:1007B0002B480078002835D01021284803F084FC0D
:1007C00070B12021254803F07FFC48B14021234827
:1007D00003F07AFC20B18021204803F075FC08BBAF
:1007E0000A2002F03EFB00201D49087010211B4822
:1007F00003F06AFC08B9012010BD2021174803F05E
:1008000063FC08B90220F7E74021144803F05CFCC0
:1008100008B90320F0E78021104803F055FCD8B94F
:100820000420E9E710210D4803F04EFC012813D104
:1008300020210A4803F048FC01280DD14021074837
:1008400003F042FC012807D18021044803F03CFC5E
:10085000012801D1024908700020CDE700100140B5
:100860002E000020F94908807047F849891C08804B
:100870007047F648801C00887047F44A10804FF09B
:10088000D842A2F80018704710B504462046FFF77A
:10089000E9FF052002F0C3FAFFF7EBFF10BDEC48BB
:1008A000C079EA4908807047E849891C0880704788
:1008B00030B5014601F01F04C1F34513CA0AE50231
:1008C00005EB43151544A8B230BD00BF0100A0F1EF
:1008D0000102D0B2FAD1704710B503460C46DC488D
:1008E0008088A0F51341413905D0D9488088A0F50A
:1008F000D041043914D1D649087AFFF7B3FF181252
:10090000FFF7B3FFD8B2FFF7B0FFD149487AFFF73E
:10091000A9FF2012FFF7A9FFE0B2FFF7A6FF12E040
:10092000CB488079012804D1C9480088401EC01AEC
:1009300083B2C749087A1946FFF79FFFC449487A2E
:100940002146FFF79AFF10BD2DE9F04104460D4600
:1009500000260027B046BE480088A04203DDBC4800
:100960004088A84202DC0020BDE8F08129462046EC
:10097000FFF7B2FFB6488088A0F51341413905D092
:10098000B3488088A0F5D041043903D12E20FFF769
:1009900069FF02E02220FFF765FFAD488088A0F5DF
:1009A0001341203902D10220FFF78FFFA748801C96
:1009B000008800B100260220FFF787FFA348801CB3
:1009C0000688A3488088A0F51341413909D1022047
:1009D000FFF77BFF9D48801CB0F80080F7B23F0214
:1009E00008E09B488088A0F5D041043902D197489F
:1009F000801C068896488088A0F51341253917D0B9
:100A000093488088A0F58A41353911D09048808874
:100A1000A0F58A4131390BD08D488088A0F5094175
:100A2000893905D08A488088A0F53541053901D13A
:100A3000304699E786488088A0F51341413907D1AF
:100A4000F012C002B91240EA411040EAE8208BE7F8
:100A50003046FFF72DFF87E700B57D488088A0F579
:100A60001341413905D07A488088A0F5D041043936
:100A700003D12920FFF7F6FE04E040F273110720AE
:100A8000FFF7FBFE00BD00B571488088A0F513415B
:100A9000413905D06E488088A0F5D041043903D192
:100AA0002820FFF7DFFE03E000210720FFF7E5FE27
:100AB00000BD70B5034600240025654880790128F3
:100AC0001ED163488088A0F5D041043918D0082B86
:100AD00015D2DFE803F00406080A0C0E10120623F4
:100AE0000DE007230BE0042309E0052307E00123C1
:100AF00005E0002303E0032301E0022300BF00BF61
:100B000053488088A0F51341413905D0504880886A
:100B1000A0F5D04104397CD1082B1CD2DFE803F0CA
:100B20000406090C0F12151800BF14E044F08004ED
:100B300011E044F040040EE044F0C0040BE044F047
:100B4000200408E044F0600405E044F0A00402E062
:100B500044F0E00400BF00BF362544F008043C48E0
:100B60008088A0F5D041043901D144F00204214627
:100B70002846FFF782FE14F0200F0DD0344800887D
:100B800033494988884214DA314806884088304918
:100B90000880084646800CE02D4800882C4949888A
:100BA000884206DD2A480688408829490880084688
:100BB00046802749087AFFF755FE0020FFF755FECB
:100BC0000020FFF752FE22490988491EC1F30F2079
:100BD000FFF74BFE1E490988491EC8B2FFF745FEC4
:100BE0001B49487AFFF73EFE0020FFF73EFE00203B
:100BF000FFF73BFE16494988491EC1F30F20FFF756
:100C000034FE13494988491EC8B2FFF72EFE37E06B
:100C1000FFE7082B21D2DFE803F004070A0D0F12CB
:100C2000151D44F0300418E044F0100415E044F0C1
:100C3000200412E000BF10E044F038040DE044F05E
:100C400028040AE044F0180407E00000FE07006CE6
:100C50005400002044F0080400BF00BFFF48808813
:100C6000A0F50941893904D1112546F24000044319
:100C700002E0032544F4805421462846FFF7FDFD99
:100C800070BD30B504460D4629462046FFF724FEC8
:100C9000FFF705FEF2480088F249088030BD30B504
:100CA00003460C461546ED488088A0F513414139AE
:100CB00005D0EA488088A0F5D041043914D1E7492D
:100CC000087AFFF7CFFD1812FFF7CFFDD8B2FFF774
:100CD000CCFDE249487AFFF7C5FD2012FFF7C5FDBC
:100CE000E0B2FFF7C2FD12E0DC488079012804D1B0
:100CF000DA480088401EC01A83B2D849087A1946DB
:100D0000FFF7BBFDD549487A2146FFF7B6FDD3482A
:100D1000C079D449891E08804FF0D840A0F8005807
:100D200030BD10B50446002C3DD1CC498871F0206F
:100D300008804FF4A070488008468088A0F51341D1
:100D4000413905D0C5488088A0F5D041043914D177
:100D50002C20C249C8712A2008722B2048720846EC
:100D60008088A0F5D04104394ED14FF4A070BB4922
:100D700008804FF4F070488046E0B8488088A0F5BD
:100D80000941893907D12220B449C8714E2008721F
:100D90004F20487238E02220B049C87120200872E4
:100DA0002120487230E0AD488088A0F5D041043958
:100DB0002AD00120A94988714FF4A0700880F02042
:100DC000488008468088A0F51341413907D12C207E
:100DD000A249C8712A2008722B20487214E09F484B
:100DE0008088A0F50941893907D122209B49C87123
:100DF0004F2008724E20487206E022209749C871A1
:100E000021200872202048720020FFF752FE10BDFA
:100E100070B5044600269148058840884543002166
:100E20000846FFF759FDFFF73AFD00BF02E08D4885
:100E30000480761CAE42FAD370BD00B59FB001218C
:100E4000080204F006FC012140F2691004F00EFCD7
:100E50000120ADF8780010208DF87B0003208DF87C
:100E60007A001EA9804803F0A1F84CF23370ADF867
:100E7000780018208DF87B0003208DF87A001EA9D9
:100E80007A4803F093F84FF68070ADF87800182098
:100E90008DF87B0003208DF87A001EA9744803F0BA
:100EA00085F841F20100ADF8780018208DF87B003C
:100EB00003208DF87A001EA96E4803F077F8012010
:100EC0000890002009900F200A9000200B900C90B1
:100ED0000D900E900190029003200390002004904A
:100EE00005900690079006200F900020109011901A
:100EF00010201290002013901590149016901790C7
:100F00004FF480501890002019904FF480401A90B0
:100F100000201B9008A81C9001A81D900FA802F0AB
:100F20002EFD0121062002F08FFE322001F099FFF4
:100F300001210020FFF7A1FC322001F092FF0020E8
:100F4000FFF7A2FC4549888008468088FF280ADB15
:100F500008468088A0F57F41FF3904D03F4880884B
:100F6000B0F5134F45D1D320FFF77CFCFFF781FC90
:100F7000FFF77FFCFFF77DFC3849888008468088B2
:100F80000006000C8880FFF774FC34498988084308
:100F90003249888008468088A0F51341413918D02D
:100FA000BF20FFF75FFCFFF764FCFFF762FCFFF771
:100FB00060FCFFF75EFC29498880084680880006AF
:100FC000000C8880FFF755FC244989880843234991
:100FD000888022488088A0F51341413909D01F48F4
:100FE0008088A0F5D041043903D049F241301B4933
:100FF00088801A488088A0F5134141397ED1CF20DE
:10100000FFF730FC0020FFF730FCC120FFF72DFC7C
:101010003020FFF72AFCED20FFF724FC6420FFF7C7
:1010200024FC0320FFF721FC1220FFF71EFC812087
:10103000FFF71BFCE820FFF715FC8520FFF715FCE8
:101040001020FFF712FC7A20FFF70FFCCB20FFF7F0
:1010500009FC3920FFF709FC2C200DE0540000208A
:10106000300000200008006C000C0140001401401A
:101070000018014000200140FFF7F7FB0020FFF7B8
:10108000F4FB3420FFF7F1FB0220FFF7EEFBF72023
:10109000FFF7E8FB2020FFF7E8FBEA20FFF7E2FB81
:1010A0000020FFF7E2FB0020FFF7DFFBC020FFF787
:1010B000D9FB1B20FFF7D9FBC120FFF7D3FB012091
:1010C000FFF7D3FBC520FFF7CDFB3020FFF7CDFBAB
:1010D0003020FFF7CAFBC720FFF7C4FBB720FFF79C
:1010E000C4FB3620FFF7BEFB4820FFF7BEFB3A20CB
:1010F000FFF7B8FB5520FFF7B8FB00E0A6E0B120F2
:10110000FFF7B0FB0020FFF7B0FB1A20FFF7ADFBA5
:10111000B620FFF7A7FB0A20FFF7A7FBA220FFF7E7
:10112000A4FBF220FFF79EFB0020FFF79EFB26208A
:10113000FFF798FB0120FFF798FBE020FFF792FBF9
:101140000F20FFF792FB2A20FFF78FFB2820FFF7E5
:101150008CFB0820FFF789FB0E20FFF786FB082099
:10116000FFF783FB5420FFF780FBA920FFF77DFBEF
:101170004320FFF77AFB0A20FFF777FB0F20FFF7EA
:1011800074FB0020FFF771FB0020FFF76EFB0020CF
:10119000FFF76BFB0020FFF768FBE120FFF762FB26
:1011A0000020FFF762FB1520FFF75FFB1720FFF71A
:1011B0005CFB0720FFF759FB1120FFF756FB0620C9
:1011C000FFF753FB2B20FFF750FB5620FFF74DFB9B
:1011D0003C20FFF74AFB0520FFF747FB1020FFF7F5
:1011E00044FB0F20FFF741FB3F20FFF73EFB3F2072
:1011F000FFF73BFB0F20FFF738FB2B20FFF732FBFD
:101200000020FFF732FB0020FFF72FFB0120FFF744
:101210002CFB3F20FFF729FB2A20FFF723FB0020B0
:10122000FFF723FB0020FFF720FB0020FFF71DFB4B
:10123000EF20FFF71AFB1120FFF714FB782001F0D5
:1012400010FE2920FFF70EFB01F00FBAFF4880883F
:10125000A0F5D04104397ED11120FFF703FB142003
:1012600001F0FFFDD020FFF7FDFA0720FFF7FDFAA0
:101270004220FFF7FAFA1D20FFF7F7FAD120FFF717
:10128000F1FA0020FFF7F1FA1A20FFF7EEFA092031
:10129000FFF7EBFAD220FFF7E5FA0120FFF7E5FAB6
:1012A0002220FFF7E2FAC020FFF7DCFA1020FFF758
:1012B000DCFA3B20FFF7D9FA0020FFF7D6FA02202C
:1012C000FFF7D3FA1120FFF7D0FAC520FFF7CAFACB
:1012D0000320FFF7CAFAC820FFF7C4FA0020FFF77F
:1012E000C4FA2520FFF7C1FA2120FFF7BEFA052036
:1012F000FFF7BBFA0020FFF7B8FA0A20FFF7B5FAAC
:101300006520FFF7B2FA2520FFF7AFFA7720FFF745
:10131000ACFA5020FFF7A9FA0F20FFF7A6FA002039
:10132000FFF7A3FAF820FFF79DFA0120FFF79DFAD7
:10133000FE20FFF797FA0020FFF797FA0220FFF749
:1013400094FA2020FFF78EFA3620FFF78BFA082058
:10135000FFF78BFA00E02AE03A20FFF783FA5520E6
:10136000FFF783FA2B20FFF77DFA0020FFF77DFAC5
:101370000020FFF77AFA0120FFF777FA3F20FFF706
:1013800074FA2A20FFF76EFA0020FFF76EFA0020A9
:10139000FFF76BFA0120FFF768FADF20FFF765FA25
:1013A000782001F05EFD2920FFF75CFA4CE7A748A2
:1013B0008088A0F5134125397ED147F6F001E5205C
:1013C000FFF75BFA4FF480710120FFF756FA4FF4F4
:1013D000E0610220FFF751FA41F230010320FFF7EC
:1013E0004CFA00210420FFF748FA40F202210820BD
:1013F000FFF743FA00210920FFF73FFA00210A20F6
:10140000FFF73BFA00210C20FFF737FA00210D20EF
:10141000FFF733FA00210F20FFF72FFA00211020E9
:10142000FFF72BFA07211120FFF727FA00211220DE
:10143000FFF723FA00211320FFF71FFA00210720EE
:10144000FFF71BFA41F290611020FFF716FA40F205
:1014500027211120FFF711FA9D211220FFF70DFA25
:101460004FF4C8511320FFF708FA25212920FFF770
:1014700004FA0D212B20FFF700FA07213020FFF797
:10148000FCF940F203313120FFF7F7F90321322054
:10149000FFF7F3F940F206213520FFF7EEF90821B6
:1014A0003620FFF7EAF940F206413720FFF7E5F969
:1014B0004FF44171382000E057E0FFF7DEF90721D3
:1014C0003920FFF7DAF940F202613C20FFF7D5F945
:1014D00008213D20FFF7D1F900215020FFF7CDF979
:1014E000EF215120FFF7C9F900215220FFF7C5F97C
:1014F00040F23F115320FFF7C0F94FF4274160201D
:10150000FFF7BBF901216120FFF7B7F900216A203D
:10151000FFF7B3F900218020FFF7AFF90021812008
:10152000FFF7ABF900218220FFF7A7F90021832004
:10153000FFF7A3F900218420FFF79FF90021852000
:10154000FFF79BF910219020FFF797F94FF4C06146
:101550009220FFF792F940F233110720FFF78DF93F
:1015600022210020FFF789F96EE638488088A0F52F
:10157000134128396CD141F28F01EC20FFF77DF93E
:1015800041F23421EF20FFF778F94FF48071012008
:10159000FFF773F94FF4E0610220FFF76EF941F2B3
:1015A00030010320FFF769F900210420FFF765F9F6
:1015B00040F202210820FFF760F900210920FFF71F
:1015C0005CF900210A20FFF758F901210C20FFF7F0
:1015D00054F900210D20FFF750F900210F20FFF7EB
:1015E0004CF900211020FFF748F907211120FFF7DF
:1015F00044F900211220FFF740F900211320FFF7E2
:101600003CF901210720FFF738F9322001F029FCCD
:1016100041F290411020FFF730F940F227211120CC
:10162000FFF72BF9322001F01CFC8A211220FFF772
:1016300024F9322001F015FC4FF4D0511320FFF7AC
:101640001CF906212920FFF718F902E054000020B8
:1016500088E00D212B20FFF710F9322001F001FC6A
:1016600000212020FFF709F900212120FFF705F9CB
:10167000322001F0F6FB00213020FFF7FEF840F2A7
:1016800004613120FFF7F9F840F205313220FFF70D
:10169000F4F800213520FFF7F0F840F60941362034
:1016A000FFF7EBF84FF401713720FFF7E6F840F24F
:1016B00001313820FFF7E1F840F207713920FFF7D8
:1016C000DCF800213C20FFF7D8F840F60A213D2045
:1016D000FFF7D3F8322001F0C4FB00215020FFF7C0
:1016E000CCF8EF215120FFF7C8F800215220FFF776
:1016F000C4F840F23F115320FFF7BFF84FF42741E1
:101700006020FFF7BAF801216120FFF7B6F8002149
:101710006A20FFF7B2F800218020FFF7AEF8002121
:101720008120FFF7AAF800218220FFF7A6F8002108
:101730008320FFF7A2F800218420FFF79EF8002104
:101740008520FFF79AF810219020FFF796F84FF4C4
:10175000C0619220FFF791F840F233110720FFF7A4
:101760008CF871E5FF488088A0F5134120397ED1BF
:101770000846FFF782F84FF480710120FFF77DF8EB
:101780004FF4E0610220FFF778F841F230010320C6
:10179000FFF773F800210420FFF76FF840F20221F1
:1017A0000820FFF76AF800210920FFF766F80021FA
:1017B0000A20FFF762F801210C20FFF75EF80021F4
:1017C0000D20FFF75AF800210F20FFF756F83220BE
:1017D00001F047FB40F201110720FFF74EF83220DD
:1017E00001F03FFB4FF486511020FFF746F8072128
:1017F0001120FFF742F84FF488711220FFF73DF8EF
:101800004FF430611320FFF738F800212920FFF74B
:1018100034F844F210012B20FFF72FF8002150205C
:10182000FFF72BF8EF215120FFF727F80021522076
:10183000FFF723F840F23F115320FFF71EF84FF453
:101840001C516020FFF719F801216120FFF715F8FE
:1018500000216A20FFF711F800218020FFF70DF822
:1018600000218120FFF709F80021822000E02CE010
:10187000FFF703F800218320FEF7FFFF00218420FB
:10188000FEF7FBFF00218520FEF7F7FF10219020D7
:10189000FEF7F3FF00219220FEF7EFFF01219320D6
:1018A000FEF7EBFF4FF488719520FEF7E6FF00216D
:1018B0009720FEF7E2FF00219820FEF7DEFF40F2BE
:1018C00073110720FEF7D9FFBEE4A6488088A0F573
:1018D000134131397DD141F21401E720FEF7CDFFEC
:1018E0004FF480710120FEF7C8FF4FF40071022011
:1018F000FEF7C3FF41F238010320FEF7BEFF40F2BE
:1019000002210820FEF7B9FF00210920FEF7B5FFEC
:1019100000210A20FEF7B1FF00210C20FEF7ADFFE9
:1019200000210D20FEF7A9FF00210F20FEF7A5FFE3
:1019300000211020FEF7A1FF07211120FEF79DFFD7
:1019400000211220FEF799FF00211320FEF795FFDA
:10195000C82001F086FA41F290611020FEF78DFF59
:1019600040F227211120FEF788FF322001F079FA9A
:101970000C211220FEF781FF322001F072FA4FF4A1
:1019800000611320FEF779FF11212920FEF775FF72
:101990000B212B20FEF771FF322001F062FA0021AB
:1019A0002020FEF76AFF40F23F112120FEF765FF7D
:1019B00000213020FEF761FF4FF483713120FEF7E4
:1019C0005CFF00213220FEF758FF4FF401713520F3
:1019D00000E064E0FEF751FF41F20A613620FEF7B5
:1019E0004CFF40F207713720FEF747FF4FF4837139
:1019F0003820FEF742FF40F207713920FEF73DFF25
:101A000040F202413C20FEF738FF40F60F413D20F6
:101A1000FEF733FF00215020FEF72FFFEF2151206A
:101A2000FEF72BFF00215220FEF727FF40F23F1167
:101A30005320FEF722FF4FF41C516020FEF71DFFDC
:101A400001216120FEF719FF00216A20FEF715FF32
:101A500000218020FEF711FF00218120FEF70DFFFD
:101A600000218220FEF709FF00218320FEF705FFF9
:101A700000218420FEF701FF00218520FEF7FDFEF6
:101A800010219020FEF7F9FE4FF4C0619220FEF77E
:101A9000F4FE40F233110720FEF7EFFE86E43148F2
:101AA0008088A0F5A84108397DD14FF480710120CC
:101AB000FEF7E3FE4FF4E0610220FEF7DEFE41F2A6
:101AC00030010320FEF7D9FE00210420FEF7D5FEE9
:101AD00040F207210820FEF7D0FE00210920FEF782
:101AE000CCFE00210A20FEF7C8FE00210C20FEF7E4
:101AF000C4FE00210D20FEF7C0FE00210F20FEF7DE
:101B0000BCFE142001F0ADF941F2B0611020FEF7E7
:101B1000B4FE01211120FEF7B0FE01211720FEF7CF
:101B2000ACFE4FF49C711220FEF7A7FE4FF400614B
:101B30001320FEF7A2FE09212920FEF79EFE0921AF
:101B40002A20FEF79AFE0021A420FEF796FE00212F
:101B50005020FEF792FEEF215120FEF78EFE00216D
:101B6000522001E054000020FEF787FE40F23F11B2
:101B70005320FEF782FE4FF41C516020FEF77DFEDD
:101B800001216120FEF779FE00216A20FEF775FE33
:101B900000218020FEF771FE00218120FEF76DFEFE
:101BA0000021822000E027E0FEF767FE002183206D
:101BB000FEF763FE00218420FEF75FFE00218520F2
:101BC000FEF75BFE13219020FEF757FE00219220C6
:101BD000FEF753FE03219320FEF74FFE4FF488716A
:101BE0009520FEF74AFE40F273110720FEF745FEEE
:101BF000322001F036F9B7E4FF488088A0F5A851FB
:101C000005397ED10720FEF738FE322001F029F990
:101C10004FF48E711220FEF730FE0121A420FEF752
:101C20002CFE0F210820FEF728FE08210A20FEF7CF
:101C300024FE08210D20FEF720FE40F2077130201F
:101C4000FEF71BFE07213120FEF717FE40F203616D
:101C50003220FEF712FE4FF4E0613320FEF70DFE56
:101C600040F202213420FEF708FE02213520FEF763
:101C700004FE41F60F713620FEF7FFFD40F20771BA
:101C80003720FEF7FAFD00213820FEF7F6FD00218F
:101C90003920FEF7F2FD40F207713A20FEF7EDFD24
:101CA00000213B20FEF7E9FD07213C20FEF7E5FD82
:101CB00000213D20FEF7E1FD322001F0D2F80121A4
:101CC0000720FEF7DAFD01211720FEF7D6FD3220AE
:101CD00001F0C7F84FF4BD511020FEF7CEFD40F2E1
:101CE00017211120FEF7C9FD4FF48F711220FEF766
:101CF000C4FD4FF470611320FEF7BFFD00212A20C0
:101D000000E093E0FEF7B9FD0A212920FEF7B5FDBA
:101D10004FF49F711220FEF7B0FD00215020FEF716
:101D2000ACFDEF215120FEF7A8FD00215220FEF767
:101D3000A4FD40F23F115320FEF79FFD4FF41C51CC
:101D40006020FEF79AFD01216120FEF796FD00213B
:101D50006A20FEF792FD00218020FEF78EFD002113
:101D60008120FEF78AFD00218220FEF786FD0021FA
:101D70008320FEF782FD00218420FEF77EFD0021F6
:101D80008520FEF77AFD13219020FEF776FD4FF4B3
:101D900040719220FEF771FD05219320FEF76DFD45
:101DA00000219520FEF769FD00219720FEF765FDD3
:101DB00000219820FEF761FD4FF480710120FEF7AD
:101DC0005CFD4FF4E0610220FEF757FD41F238015F
:101DD0000320FEF752FD00210420FEF74EFD0021F6
:101DE0000C20FEF74AFD00210F20FEF746FD0021E2
:101DF0002020FEF742FD00212120FEF73EFD21219B
:101E00000720FEF73AFD142001F02BF8612107208E
:101E1000FEF733FD142001F024F840F2731107207F
:101E2000FEF72BFD142001F01CF89AE4724880881C
:101E3000A0F5354105397DD10846FEF71EFD00218C
:101E40000846FEF71AFD00210846FEF716FD0021A0
:101E50000846FEF712FD0121A420FEF70EFD142016
:101E600000F0FFFF4FF41C516020FEF706FD40F22A
:101E700002210820FEF701FD4FF405713020FEF726
:101E8000FCFC43F215713120FEF7F7FC40F20461CF
:101E90003220FEF7F2FC40F616613320FEF7EDFC2F
:101EA00042F211213420FEF7E8FC4FF4A85135200E
:101EB000FEF7E3FC48F207513620FEF7DEFC41F264
:101EC00007413720FEF7D9FC41F203413820FEF7E5
:101ED000D4FC20213920FEF7D0FC1A219020FEF7F7
:101EE000CCFC00211020FEF7C8FC07211120FEF7D2
:101EF000C4FC00211220FEF7C0FC00211320FEF7D5
:101F0000BCFC142000F0ADFF4FF4E6611020FEF79A
:101F1000B4FC40F237111120FEF7AFFC142000F0A2
:101F2000A0FF4FF4DC711220FEF7A7FC142000F094
:101F300098FF00E086E04FF470611320FEF79DFCEF
:101F400080212A20FEF799FC48212920FEF795FCE4
:101F5000142000F086FF4FF480710120FEF78DFC05
:101F60004FF4E0610220FEF788FC41F238010320C3
:101F7000FEF783FC40F202210820FEF77EFC0021E0
:101F80000A20FEF77AFC00210C20FEF776FC0021E7
:101F90000D20FEF772FC30210E20FEF76EFC0021B2
:101FA0005020FEF76AFCEF215120FEF766FC00216D
:101FB0005220FEF762FC40F23F115320FEF75DFC19
:101FC0004FF41C516020FEF758FC01216120FEF700
:101FD00054FC00216A20FEF750FC11219020FEF7EE
:101FE0004CFC4FF4C0619220FEF747FC40F20241E6
:101FF0009320FEF742FC01E05400002002219420CF
:10200000FEF73BFC142000F02CFF01210720FEF717
:1020100034FC142000F025FF61210720FEF72DFC81
:1020200040F273110720FEF728FC00212020FEF764
:1020300024FC00212120FEF720FC22210020FEF7B5
:102040001CFC12E3FF488088A0F5454105397DD18D
:102050000846FEF712FC00210846FEF70EFC14208D
:1020600000F0FFFE00210846FEF707FC00210846AD
:10207000FEF703FC00210846FEF7FFFB002108469F
:10208000FEF7FBFB0121A420FEF7F7FB142000F074
:10209000E8FE4FF41C516020FEF7EFFB40F606010E
:1020A0000820FEF7EAFB40F203713020FEF7E5FB63
:1020B00001213120FEF7E1FB04213220FEF7DDFB98
:1020C0004FF481713320FEF7D8FB4FF44071342078
:1020D000FEF7D3FB40F203113520FEF7CEFB1F21A4
:1020E0003620FEF7CAFB40F203713720FEF7C5FB2E
:1020F00001213820FEF7C1FB04213920FEF7BDFB8A
:1021000015219020FEF7B9FB4FF482611020FEF7F5
:10211000B4FB40F247211120FEF7AFFB4FF4DE7114
:102120001220FEF7AAFB4FF460611320FEF7A5FB17
:10213000782000F096FE4FF480710120FEF79DFBA1
:102140004FF400710220FEF798FB00E050E041F2EE
:1021500030010320FEF791FB08210A20FEF78DFBDA
:1021600000210C20FEF789FB20210E20FEF785FBC5
:1021700000210F20FEF781FB00212020FEF77DFBD0
:1021800000212120FEF779FB3D212A20FEF775FB77
:10219000142000F066FE2D212920FEF76EFB0021A1
:1021A0005020FEF76AFB4DF2EF015120FEF765FB70
:1021B00000215220FEF761FB40F23F115320FEF751
:1021C0005CFB00216120FEF758FB00216A20FEF72E
:1021D00054FB4FF440719220FEF74FFB05219320F2
:1021E000FEF74BFB4FF480710720FEF746FB3CE205
:1021F00094488088A0F5094189397DD101210020CA
:10220000FEF73BFB4AF6A4010320FEF736FB002154
:102210000C20FEF732FB40F60C010D20FEF72DFBE3
:102220004FF42C510E20FEF728FBB0211E20FEF7A4
:1022300024FB42F63F310120FEF71FFB4FF4C06143
:102240000220FEF71AFB00211020FEF716FB46F2D3
:1022500078011120FEF711FB00210520FEF70DFB90
:1022600000210620FEF709FB4EF61C711620FEF732
:1022700004FB03211720FEF700FB40F23321072067
:10228000FEF7FBFA00210B20FEF7F7FA00210F20E2
:10229000FEF7F3FA00214120FEF7EFFA0021422079
:1022A000FEF7EBFA00214820FEF7E7FA40F23F1173
:1022B0004920FEF7E2FA00214A20FEF7DEFA00216B
:1022C0004B20FEF7DAFA4FF46F414420FEF7D5FABF
:1022D00000214520FEF7D1FA40F23F114620FEF7DB
:1022E000CCFA40F207713020FEF7C7FA4FF40171C3
:1022F0003120FEF7C2FA00E03DE04FF401713220D8
:10230000FEF7BBFA40F202513320FEF7B6FA40F274
:1023100007513420FEF7B1FA4FF401713520FEF772
:10232000ACFA4FF401713620FEF7A7FA40F20251E1
:102330003720FEF7A2FA40F202313A20FEF79DFA6A
:1023400040F202313B20FEF798FA00212320FEF7ED
:1023500094FA00212420FEF790FA4FF40041252042
:10236000FEF78BFA00214F20FEF787FA00214E205E
:10237000FEF783FA79E133488088A0F58A41313944
:102380007ED101210020FEF778FA0A2000F069FDD5
:1023900041F228611020FEF770FA0E211220FEF79C
:1023A0006CFA40F639211320FEF767FA0A2000F094
:1023B00058FD40211120FEF760FA50211520FEF74C
:1023C0005CFA0A2000F04DFD1E211220FEF755FA9E
:1023D0000A2000F046FD4FF4B1511020FEF74DFAEF
:1023E00042F639211320FEF748FA0A2000F039FDA1
:1023F0004FF480710120FEF740FA4FF44071022043
:10240000FEF73BFA41F238010320FEF736FA40F2BC
:1024100002210820FEF731FA08210A20FEF72DFAE2
:1024200000213020FEF729FA40F202413120FEF768
:1024300024FA4FF483713220FEF71FFA40F2035161
:10244000332001E054000020FEF717FA4FF48271A8
:102450003420FEF712FA40F201313520FEF70DFA72
:1024600040F207713620FEF708FA40F205313720B6
:10247000FEF703FA4FF402713820FEF7FEF900E090
:102480003EE040F60B713920FEF7F7F902214120BA
:10249000FEF7F3F94FF41C516020FEF7EEF901212D
:1024A0006120FEF7EAF94FF404719020FEF7E5F998
:1024B0004FF485719220FEF7E0F904219320FEF796
:1024C000DCF94FF48071A020FEF7D7F90121072035
:1024D000FEF7D3F921210720FEF7CFF923210720AA
:1024E000FEF7CBF933210720FEF7C7F940F233118D
:1024F0000720FEF7C2F90021A020FEF7BEF9B4E0E4
:10250000FA488088A0F58A413539F8D13021152064
:10251000FEF7B3F910219A20FEF7AFF92021112020
:10252000FEF7ABF943F228411020FEF7A6F902218D
:102530001220FEF7A2F941F238011320FEF79DF9AF
:10254000282000F08EFC12210846FEF796F928207C
:1025500000F087FC43F220411020FEF78EF943F291
:1025600038011320FEF789F9462000F07AFC00219B
:102570003020FEF782F940F202413120FEF77DF96A
:1025800040F207313220FEF778F94FF441713320E1
:10259000FEF773F904213420FEF76FF940F2014190
:1025A0003520FEF76AF940F207713620FEF765F92B
:1025B00040F205313720FEF760F94FF4C261382050
:1025C000FEF75BF94FF4C2613920FEF756F94FF47C
:1025D00080710120FEF751F94FF440710220FEF79F
:1025E0004CF941F230010320FEF747F940F60801AB
:1025F0000820FEF742F908210A20FEF73EF94FF4C1
:102600001C516020FEF739F901216120FEF735F9F0
:102610004FF49F719020FEF730F94FF480719220B3
:10262000FEF72BF94FF480719320FEF726F94FF453
:102630004051A020FEF721F91021A320FEF71DF93B
:1026400001210720FEF719F921210720FEF715F9CE
:1026500023210720FEF711F933210720FEF70DF99A
:1026600040F233110720FEF708F90020FEF759FB6E
:1026700001209F4908604FF6FF70FEF7C9FB1FB0AD
:1026800000BD2DE9F04F04460D4616461F46DDF805
:1026900024804FF0000B301B401C1FFA80FBA94622
:1026A00015E049462046FEF717F9FEF7F8F84FF017
:1026B000000A06E04046FEF7D8F80AF101001FFACA
:1026C00080FADA45F6DB09F101001FFA80F9B94515
:1026D000E7DDBDE8F08F2DE9F84F04460D461646BC
:1026E0001F46DDF82880301B401C80B20090781B0C
:1026F000401C1FFA80F94FF0000A1BE005EB0A00AE
:1027000081B22046FEF7E8F8FEF7C9F84FF0000B5B
:1027100009E00AFB09B038F81000764908800BF18F
:1027200001001FFA80FB00988345F2DB0AF10100EB
:102730001FFA80FACA45E1DBBDE8F88F2DE9FF4FAB
:1027400085B004460D461646002004900390A6EB83
:1027500004080898A0EB0509A3460095B8F1000FFE
:1027600002DD012001900AE0B8F1000F02D1002043
:10277000019004E04FF0FF300190C8F10008B9F17A
:10278000000F02DD4FF0010A09E0B9F1000F02D19C
:102790004FF0000A03E04FF0FF3AC9F10009C845C5
:1027A00002DDCDF8088001E0CDF80890002722E096
:1027B000009881B21FFA8BF0FEF763FA0498404448
:1027C000049003984844039002990498884205DDD8
:1027D00004990298081A049001988344DDE90210D4
:1027E000884206DDDDE90210401A0390009850444B
:1027F0000090781C87B20298401C8742D8DD09B04F
:10280000BDE8F08FF0B504460D4616461F462B4630
:10281000324629462046FFF791FF3B46224629468D
:102820002046FFF78BFF3B46324639462046FFF7EE
:1028300085FF3B46324629463046FFF77FFFF0BD15
:102840002DE9F04304460D4616460027B046032006
:10285000A0EB460946E0A5EB080291B2E21990B25E
:10286000FEF70FFAEA1B91B204EB080290B2FEF7F2
:1028700008FAEA1991B204EB080290B2FEF701FAE5
:1028800005EB080291B2E21990B2FEF7FAF905EBF6
:10289000080291B2E21B90B2FEF7F3F9EA1991B285
:1028A000A4EB080290B2FEF7ECF9A5EB080291B296
:1028B000E21B90B2FEF7E5F9EA1B91B2A4EB080225
:1028C00090B2FEF7DEF97F1CB9F1000F03DAB80011
:1028D000801D814406E0A7EB080080000A30814497
:1028E000A8F101084745B6DDBDE8F083540000209B
:1028F000808121420008006C2DE9F84F04460D4606
:1029000016461F460095CC48B0F800B0A6F120004E
:10291000C6B20A98002850D182464BE00C2F07D14E
:1029200006EB4600C54901EB800010F80A8004E080
:10293000C34800EB061010F80A804FF0000931E0A0
:1029400018F0800F03D0BC48A0F800B003E0BD48E9
:102950000088B949088029462046FEF792F94FEAD7
:1029600048604FEA1068681C85B2B7480088A042EA
:1029700004DCB148A0F800B0BDE8F88F0098281A30
:10298000B8420BD1009D601C84B2AF480088A042C1
:1029900003DCA948A0F800B0EEE706E009F1010069
:1029A00000F0FF09B9F1080FCADB00BF0AF101000E
:1029B00000F0FF0ABA45B1DB47E04FF0000A42E001
:1029C0000C2F07D106EB46009C4901EB800010F864
:1029D0000A8004E09A4800EB061010F80A804FF0D5
:1029E000000928E018F0800F03D029462046FEF7A2
:1029F00048F94FEA48604FEA1068681C85B292486F
:102A00004088A04203DC8C48A0F800B0B4E70098EE
:102A1000281AB8420BD1009D601C84B28A480088F5
:102A2000A04203DC8448A0F800B0A5E706E009F165
:102A3000010000F0FF09B9F1080FD3DB00BF0AF174
:102A4000010000F0FF0ABA45BADB7B48A0F800B0ED
:102A500092E710B50246012000E050430B00A1F1BF
:102A60000104E1B2F9D110BD2DE9FF4F81B0044658
:102A700015461E460E9F4FF0000AD0463EE0A6EBDC
:102A80000800401EC1B20A20FFF7E3FFB5FBF0F0DB
:102A90000A21B0FBF1F201FB120000F0FF09BAF1CC
:102AA000000F16D1701E404513DDB9F1000F0ED195
:102AB0000023BB4607EBD771491001FB084188B2E0
:102AC00000933B4620220299FFF716FF12E04FF0D9
:102AD000010A0023BB4607EBD771491001FB0841EF
:102AE00088B200933B4609F13001CAB20299FFF760
:102AF00003FF00BF08F1010000F0FF08B045BEDB96
:102B000005B0BDE8F08F2DE9FF4F82B004461546B1
:102B10001E46DDE90F7800200190814652E0A6EBC9
:102B20000900401EC1B20A20FFF793FFB5FBF0F089
:102B30000A21B0FBF1F201FB120000F0FF0A01983C
:102B400050BB701E484527DDBAF1000F22D118F0A6
:102B5000800F0FD008F00103BB4607EBD771491077
:102B600001FB094188B200933B4630220399FFF7ED
:102B7000C3FE0EE008F00103BB4607EBD771491016
:102B800001FB094188B200933B4620220399FFF7DD
:102B9000B3FE13E00120019008F00103BB4607EBF0
:102BA000D771491001FB094188B200933B460AF1F5
:102BB0003001CAB20399FFF79FFE00BF09F101007F
:102BC00000F0FF09B145AADB06B0BDE8F08F2DE9A2
:102BD000F84704460D4616461F46DDE9098904F00C
:102BE000FF0A301986B2781987B219E0B44203DBC4
:102BF000544605EB080085B2BD4200DB18E0002317
:102C0000009399F80020434629462046FFF774FEBA
:102C1000404608EBD87104EB61018CB209F101095F
:102C200099F800007E2803DC99F800002028DDDAFE
:102C300000BFBDE8F887000030000020EC67000806
:102C4000606C0008320000205400002008B501210B
:102C5000402002F00BFD0120ADF8000010208DF89F
:102C6000030003208DF8020069460C4801F09EF92C
:102C700001210A4801F042FA0220ADF800001020BC
:102C80008DF8030003208DF802006946034801F027
:102C90008DF90221014801F031FA08BD0018014008
:102CA0007FB504460D460121022002F0ECFCADF890
:102CB0000840ADF804500020ADF80A00ADF8060059
:102CC00001A90E4801F08AFB012211460B4801F0D0
:102CD000D1FE1D208DF8000000208DF8010002209B
:102CE0008DF8020001208DF80300684600F08FF98E
:102CF0000121024801F099FE7FBD00000004004060
:102D000000B589B00121042002F0B0FC0121480780
:102D100002F0B9FC0121042002F0B5FC3020ADF82E
:102D2000200003208DF8220010208DF8230008A930
:102D30001E4801F03BF90F20ADF80800ADF8040083
:102D40000020ADF80A00ADF8060001A9184801F00E
:102D500045FB2021164802F0BAF82C200490802070
:102D600005904FF4206006900220079004A90020EF
:102D700000F0DBFB4FF41060069004A9102000F077
:102D8000D4FB0121002000F0EEFB0121102000F017
:102D9000EAFB40F2FF321146002000F057FC01210F
:102DA000034801F042FE09B000BD000000080140E8
:102DB000000800400948804709480047FEE7FEE751
:102DC000FEE7FEE7FEE7FEE7FEE7FEE7FEE7FEE7DB
:102DD00004480549054A064B70470000DD04000819
:102DE00031010008880100208807002088030020A6
:102DF0008803002010B56FF0040000F055F92A4850
:102E000000682A49B0FBF1F02949087008460078AB
:102E10004FF47A7148432649891C088010BD244A22
:102E2000127842434FF0E0235A6100229A611A4619
:102E3000126942F001021A6100BF4FF0E0221169ED
:102E400011F0010F02D011F4803FF6D04FF0E022D4
:102E5000126922F001024FF0E0231A6100229A6108
:102E60007047134A921C128842434FF0E0235A6184
:102E700000229A611A46126942F001021A6100BFEB
:102E80004FF0E022116911F0010F02D011F4803FE0
:102E9000F6D04FF0E022126922F001024FF0E02359
:102EA0001A6100229A6170471800002000127A000F
:102EB00034000020014600BF704770B504460D463F
:102EC000E1B24C4802F0A5F900BF4021494802F0A8
:102ED0000EFA0028F9D0204670BD10B586B0044621
:102EE000012144F2040002F0C1FB424802F054F810
:102EF0004FF40070ADF8140003208DF81600182070
:102F00008DF8170005A93C4801F050F84FF4806097
:102F1000ADF8140004208DF8170005A9364801F01B
:102F200045F825208DF8000003208DF801008DF86C
:102F3000020001208DF80300684600F068F8019453
:102F40000020ADF80800ADF80A00ADF80C00ADF8AF
:102F500010000C20ADF80E0001A9264802F05FF821
:102F6000012240F22551234802F0F0F801212148C6
:102F700002F0E0F806B010BD10B540F225511D4832
:102F800002F0CBF9002834D01A4802F046F9C4B256
:102F90001A48008810F4004F2BD11848008810F40C
:102FA000804F0CD00A2C03D000201449088020E068
:102FB0001248008840F400401049088019E00D2CA8
:102FC00006D10E48008840F480400C49088010E08B
:102FD0000A480088C0F30D0009490C5407480088CE
:102FE000401C0649088008460088C72801DD0020EB
:102FF000088010BD00380140000801403800002062
:103000005E00002032490143324A1160704770B5BA
:10301000002100230F22C4780CB32E4C246804F442
:10302000E064C4F5E064210AC1F10403CA404478B5
:1030300004FA03F18478144021430901264C0678F0
:10304000A155047804F01F050124AC4005786D11EA
:103050004FF0E02606EB8505C5F8004109E004784D
:1030600004F01F040125A5401C4C0678761144F895
:10307000265070BD1A4A0A400243164B1B1F1A60A5
:10308000704741B1134A121D126802434FF0E0230A
:10309000C3F8102D07E00F4A121D126882434FF04B
:1030A000E023C3F8102D7047042808D14FF0E02129
:1030B000096941F004014FF0E022116107E04FF08F
:1030C000E021096921F004014FF0E022116170470D
:1030D0000000FA050CED00E000E400E080E100E013
:1030E00080FFFF1F10B50446F748844208D1012134
:1030F000401502F0D5FA0021601502F0D1FA17E070
:10310000F248844208D10121001502F0C9FA0021D9
:10311000201502F0C5FA0BE0ED48844208D10121E8
:10312000C80302F0BDFA00214FF4004002F0B8FAE3
:1031300010BD30B5002200234268E64C22400D79D4
:103140000C6844EA0524224342608268E24C224033
:10315000D1E902542C434D7944EA4504224382606C
:10316000C26A22F470020C7C641EE4B2234342EA79
:103170000352C26230BD0021016001714171816062
:10318000C16001210174704721B1826842F00102DF
:10319000826003E0826822F001028260704721B100
:1031A000826842F48072826003E0826822F4807256
:1031B0008260704710B50023CBB21AB144681C433B
:1031C000446002E044689C43446010BD816841F063
:1031D000080181607047014600208A6812F0080FDC
:1031E00001D0012000E000207047816841F0040117
:1031F00081607047014600208A6812F0040F01D0F8
:10320000012000E00020704721B1826842F4A00252
:10321000826003E0826822F4A00282607047014667
:1032200000208A6812F4800F01D0012000E0002005
:10323000704710B500220023426822F460424B1E02
:1032400042EA4332426010BD21B1426842F400625A
:10325000426003E0426822F4006242607047F0B5C9
:1032600000240025092911DDC468A1F10A0606EB36
:103270004607072606FA07F5AC43A1F10A0606EB56
:10328000460603FA06F52C43C4600CE0046901EB22
:103290004107072606FA07F5AC4301EB410603FA9E
:1032A00006F52C430461072A0FDA446B561E06EB21
:1032B00086071F2606FA07F5AC43561E06EB860660
:1032C00001FA06F52C43446322E00D2A0FDA046B61
:1032D000D61F06EB86071F2606FA07F5AC43D61F56
:1032E00006EB860601FA06F52C43046310E0C46A77
:1032F000A2F10D0606EB86071F2606FA07F5AC437A
:10330000A2F10D0606EB860601FA06F52C43C4620F
:10331000F0BD21B1826842F48012826003E08268CD
:1033200022F48012826070470146C86C80B27047F8
:1033300065484C300068704721B1426842F48062B1
:10334000426003E0426822F480624260704721B12B
:10335000426842F48052426003E0426822F48052A4
:10336000426070470022826822F4E0420A43826091
:10337000704721B1826842F40042826003E08268B3
:1033800022F400428260704721B1826842F4021246
:10339000826003E0826822F4021282607047014674
:1033A00000208A6812F4001F01D0012000E00020F4
:1033B0007047F0B5002400250026092911DDC468F6
:1033C000A1F10A0707EB470C072707FA0CF5AC43F6
:1033D000A1F10A0707EB470703FA07F52C43C4607E
:1033E0000CE0046901EB410C072707FA0CF5AC432C
:1033F00001EB410703FA07F52C430461846BC4F326
:103400000156D71C06F1010CA7EB0C0707EB870C44
:103410001F2707FA0CF5AC43D71C06F1010CA7EBEC
:103420000C0707EB870701FA07F52C438463F0BD0F
:1034300010B500220023826B22F440124B1E42EA98
:103440000352826310BD10B50023034618460B4497
:103450001A6010BD0246002313461A4601F12800E7
:103460000344186880B27047002242681B4B1A4020
:103470000A4342607047416282627047002242689C
:1034800022F01F020A434260704740B10E490831E2
:10349000096841F40001124AC2F8081407E00A4919
:1034A0000831096821F400010D4AC2F80814704778
:1034B0000246002013680B4201D0012000E00020EA
:1034C0007047CA4302607047002401400028014051
:1034D000003C0140FFFEF0FFFDF7F1FFFFFD3FFF65
:1034E0000020014070B502460020002300240B128A
:1034F0005568CEB205EA060415681D4202D00CB12B
:10350000012000E0002070BD00220A12D3430360B6
:103510007047000010B50121480702F0CEF80021E5
:103520004FF0005002F0C9F810BD30B50022002362
:10353000534C226840F6FE748440A243D1E9004512
:103540002C438D682C43CD6844EA050303FA00F44C
:1035500022434C4CC4F8002430BD0021016041607E
:103560008160C160704741B1454A136801228240C1
:103570001343444AC2F8003407E0414A1368012269
:10358000824093433F4AC2F80034704741B13C4AFD
:1035900013689214824013433A4AC2F8003407E099
:1035A000374A1368921482409343364AC2F8003473
:1035B000704710B551B1324A121D13680409012237
:1035C000A24013432F4AC2F8043409E02C4A121DCA
:1035D000126804090123A3409A432A4BC3F8042428
:1035E00010BD40B12649091D096841F00301254A73
:1035F000C2F8041407E02249091D096821F00301FB
:10360000204AC2F80414704710B542B11C4B1B6825
:1036100001FA00F423431B4CC4F8003407E0184BB4
:103620001B6801FA00F4A343164CC4F8003410BD23
:103630000022134A00F108031A4411607047002267
:103640000F4A00F114031A441160704730B500238B
:103650000024082802D142EA012301E042EA0143A2
:10366000074C00F120052C44236030BD01460022A8
:10367000034A2C2000EB91000244106880B270478E
:10368000007400400070004001684FF6FE72114067
:1036900001600021016041608160C1608F49884202
:1036A00008D18E490839496841F00F018B4A083A20
:1036B000516090E089491431884208D1874908391E
:1036C000496841F0F001854A083A516083E0834936
:1036D0002831884208D181490839496841F470612C
:1036E0007E4A083A516076E07C493C31884208D1F4
:1036F0007A490839496841F47041784A083A51607A
:1037000069E076495031884208D1744908394968DE
:1037100041F47021714A083A51605CE06F496431AC
:10372000884208D16D490839496841F470016B4AF3
:10373000083A51604FE069497831884208D16749B9
:103740000839496841F07061644A083A516042E0C2
:103750006349884208D1011F096841F00F015F4A9F
:10376000083AC2F8041436E05D491431884209D1A0
:103770005B49091F096841F0F001584A083AC2F84C
:10378000041428E056492831884209D15449091FB8
:10379000096841F47061514A083AC2F804141AE009
:1037A0004F493C31884209D14D49091F096841F40C
:1037B00070414A4A083AC2F804140CE048495031B2
:1037C000884208D14649091F096841F47021434ADB
:1037D000083AC2F80414704710B50022026847F690
:1037E000F0739A430C6A8B6823430C6923434C693A
:1037F00023438C692343CC6923434C6A23438C6A5B
:1038000023431A430260CB6843600B6883604B68B4
:10381000C36010BD0021016041608160C160016131
:1038200041618161C161016241628162704721B180
:10383000026842F00102026004E002684FF6FE7383
:103840001A40026070471AB103680B43036002E03C
:1038500003688B43036070474160704701464868C6
:1038600080B2704702460020002112F0805F03D032
:103870001B4B083B196802E0184B083B19681142C2
:1038800001D0012000E00020704710F0805F03D0DD
:103890001349091F086002E0104908394860704761
:1038A00002460020002112F0805F03D00C4B083B41
:1038B000196802E0094B083B1968114201D0012048
:1038C00000E00020704710F0805F03D00449091F1A
:1038D000086002E00149083948607047080002406A
:1038E0000804024030B943F2DB014FF0204242F8B5
:1038F000201005E043F2D2014FF0204242F82010A0
:103900006FF07042411C4FF0204343F821201146D4
:103910001A4602EB8002C2F80411704710280AD13F
:1039200018214FF020421166402151664FF0FC31C2
:103930009166D16610E01821FA4A116040214FF0DB
:103940002042C2F884104FF0FC31F64A0832116070
:103950004FF02042C2F88C1070471820F1492031F6
:10396000086000200906C1F8A4004FF0FC30ED49C2
:1039700028310860091D0860091D08607047D0E9FA
:1039800001121143C2681143026911434269114394
:1039900082691143C2691143026A1143426A1143A9
:1039A000826A1143C26A1143026B11434FF02043F4
:1039B000026843F822108168082908D11A46016874
:1039C00052F8211041F04001026843F82210416B87
:1039D0000968426B526841EA0211426B926841EAFF
:1039E0000221426BD26841EA0241426B126941EA0C
:1039F0000251426B526941EA0261426B9269114382
:103A00000268521C4FF0204343F82210C16AB1F5FE
:103A1000804F1AD1816B0968826B526841EA0211AA
:103A2000826B926841EA0221826B126941EA02517B
:103A3000826B526941EA0261826B926911430268AA
:103A400003EB8202C2F8041108E06FF070414FF0FE
:103A50002043026803EB8202C2F80411704730B5BC
:103A6000002100220023446844F0080485682C43A8
:103A7000C5682C4305692C43456944EA452485699A
:103A800044EA4531C4692468C5696D6844EA05247F
:103A9000C569AD6844EA0544C569ED6844EA056254
:103AA000046A2468056A6D6844EA0524056AAD68FD
:103AB00044EA0544056AED6844EA05630468102C8D
:103AC00005D14FF020442166A266E36608E0954CDC
:103AD00021604FF02044C4F88820924C0C342360BD
:103AE00030BD016841F01001426841EA422182681C
:103AF00041EA42318B4A20321160C1680968C268CC
:103B0000526841EA0221C268926841EA0241C268F1
:103B1000D26841EA0261834A28321160016909686A
:103B20000269526841EA02210269926841EA02414F
:103B30000269D26841EA02617A4A2C321160416915
:103B400009684269526841EA02214269926841EA81
:103B500002414269D26841EA02614FF02042C2F854
:103B6000B010704700210160022141600021816096
:103B7000C160016141618161C16101624FF48051A5
:103B80004162490081620021C16201630F21426BE1
:103B90001160426B5160FF21426B91600F21426BBB
:103BA000D160426B1161426B51610021426B9161A6
:103BB0000F21826B1160826B5160FF21826B9160DB
:103BC0000F21826BD160826B1161826B5161002188
:103BD000826B91617047102101600021416081601A
:103BE000C160016141618161FC21C2691160C269EA
:103BF0005160C2699160C269D160026A1160026A53
:103C00005160026A9160026AD160704700210160D0
:103C100041608160FC21C2681160C2685160C26865
:103C20009160C268D16002691160026951600269E5
:103C300091600269D16042691160426951604269D4
:103C400091604269D160704751B14FF0204252F803
:103C5000202042F001024FF0204343F8202009E0E9
:103C60004FF0204252F820202F4B1A404FF02043B3
:103C700043F82020704799B1102808D14FF0204216
:103C8000126E42F004024FF020431A661DE0254AEE
:103C9000126842F004024FF02043C3F8802014E081
:103CA000102809D14FF02042126E1F4BDB1E1A4024
:103CB0004FF020431A6608E01A4A12681A4BDB1EBE
:103CC0001A404FF02043C3F88020704748B115498F
:103CD0002031096841F004014FF02042C2F8A010E1
:103CE00009E01049203109680F4AD21E11404FF0F7
:103CF0002042C2F8A0107047C1B1102808D14FF07F
:103D00002042126E42F040024FF020431A6620E03B
:103D1000044A126842F040024FF02043C3F880206A
:103D200017E00000800000A0FEFF0F00102808D15F
:103D30004FF02042126E6B4B1A404FF020431A6630
:103D400007E0694A1268674B1A404FF02043C3F8F6
:103D50008020704701460020102903D14FF02042F7
:103D6000506F02E0604A14321068704710B5F2B12B
:103D7000102807D14FF020435B6E0B434FF02044D7
:103D8000636632E0B0F5807F08D1574B1B1D1B687E
:103D90000B434FF02044C4F8843026E0524B2433C8
:103DA0001B680B434FF02044C4F8A4301DE01028DA
:103DB00007D14FF020435B6E8B434FF02044636686
:103DC00013E0B0F5807F08D1474B1B1D1B688B4368
:103DD0004FF02044C4F8843007E0434B24331B6881
:103DE0008B434FF02044C4F8A43010BD10B50346F7
:103DF00000200022102B03D14FF02044626E09E016
:103E0000B3F5807F03D1384C241D226802E0364C84
:103E1000243422680A4201D0012000E0002010BDB5
:103E2000102807D14FF02042526E8A434FF02043B2
:103E30005A6613E0B0F5807F08D12B4A121D126834
:103E40008A434FF02043C3F8842007E0264A2432F7
:103E500012688A434FF02043C3F8A420704770B51E
:103E600002460020002300240025102A03D14FF031
:103E70002046736E09E0B2F5807F03D11A4E361DDD
:103E8000336802E0184E2436336803EA010403EA7B
:103E9000D10514B10DB1012000E0002070BD102843
:103EA00008D14FF02042526E22EAD1024FF0204357
:103EB0005A6615E0B0F5807F09D10B4A121D1268D1
:103EC00022EAD1024FF02043C3F8842008E0064ADA
:103ED0002432126822EAD1024FF02043C3F8A42012
:103EE00070470000BFFF0F00800000A010B504461F
:103EF000C748844208D10121042001F0D1FB0021F0
:103F0000042001F0CDFB46E0C248844208D10121E3
:103F1000082001F0C5FB0021082001F0C1FB3AE0B8
:103F2000BD48844208D10121102001F0B9FB0021D5
:103F3000102001F0B5FB2EE0B848844208D10121E1
:103F4000202001F0ADFB0021202001F0A9FB22E0A0
:103F5000B348844208D10121402001F0A1FB002197
:103F6000402001F09DFB16E0AE48844208D10121BB
:103F7000802001F095FB0021802001F091FB0AE0F8
:103F8000A948844207D10121801501F089FB002155
:103F9000A01501F085FB10BD10B50121084601F008
:103FA0007FFB0021012001F07BFB10BDF0B500225A
:103FB0000023002400250026002791F803C00CF000
:103FC0000F0291F803C01CF0100F03D091F802C04B
:103FD0004CEA0202B1F800C01CF0FF0F31D00668B5
:103FE00000242BE04FF0010C0CFA04F5B1F800C0EE
:103FF0000CEA0503AB4220D1A5004FF00F0C0CFAE0
:1040000005F7BE4302FA05FC4CEA060691F803C028
:10401000BCF1280F06D14FF0010C0CFA04FCC0F8DB
:1040200014C00AE091F803C0BCF1480F05D14FF06D
:10403000010C0CFA04FCC0F810C0641C082CD1D38D
:104040000660B1F800C0BCF1FF0F34DD4668002403
:104050002EE004F1080C4FF0010E0EFA0CF5B1F849
:1040600000C00CEA0503AB4221D1A5004FF00F0CB4
:104070000CFA05F7BE4302FA05FC4CEA060691F875
:1040800003C0BCF1280F05D104F1080C0EFA0CFE98
:10409000C0F814E091F803C0BCF1480F07D104F157
:1040A000080C4FF0010E0EFA0CFEC0F810E0641C74
:1040B000082CCED34660F0BD4FF6FF71018002217F
:1040C00081700421C17070470246002093680B4242
:1040D00001D0012000E0002070470146886880B2CE
:1040E000704702460020D3680B4201D0012000E057
:1040F000002070470146C86880B270470161704770
:10410000416170470AB1016100E041617047C160DF
:1041100070474FF480320A43826181618261826913
:10412000826970470022414B1A684FF680731A402B
:1041300042EA00120A433D4B1A6070473C49C8618D
:104140007047F0B5002200230024002500F000464F
:10415000B6F1004F02D1354EF46901E0334E746878
:10416000C0F3034582B200F44016B6F5401F08D1F3
:1041700024F070642D4E766826F070662B4F7E60BA
:1041800012E000F48016B6F5801F06D1032606FA69
:1041900005F39C4344F0706406E0460D360102FAD4
:1041A00006F6B44344F0706421B1460D360102FABC
:1041B00006F6344300F00046B6F1004F02D11B4E24
:1041C000F46101E0194E7460F0BD30B500228B0738
:1041D0001C0F0F2303FA04F2144B08338C1053F80E
:1041E000244094438D1043F825408C1053F824301C
:1041F0008C07240F00FA04F423430C4C08348D1070
:1042000044F8253030BD0A49DC31086070470000B1
:1042100000080140000C0140001001400014014062
:1042200000180140001C0140002001400000014036
:104230000000204210B50446FF48844208D1012105
:10424000C01401F02DFA0021E01401F029FAC4E0B5
:10425000B4F1804F08D10121084601F02EFA002167
:10426000012001F02AFAB8E0F448844208D1012183
:10427000022001F022FA0021022001F01EFAACE037
:10428000EF48844208D10121042001F016FA0021F0
:10429000042001F012FAA0E0EA48844208D101218A
:1042A000082001F00AFA0021082001F006FA94E043
:1042B000E548844208D10121102001F0FEF90021D7
:1042C000102001F0FAF988E0E048844208D1012189
:1042D000202001F0F2F90021202001F0EEF97CE02D
:1042E000DB48844208D10121401401F0D9F90021B2
:1042F000601401F0D5F970E0D648844209D101215B
:10430000C80401F0CDF900214FF4002001F0C8F9F4
:1043100063E0D148844209D10121080501F0C0F9C8
:1043200000214FF4801001F0BBF956E0CB488442E5
:1043300009D10121480501F0B3F900214FF4001023
:1043400001F0AEF949E0C648844208D1012140207D
:1043500001F0B3F90021402001F0AFF93DE0C14880
:10436000844208D10121802001F0A7F9002180209A
:1043700001F0A3F931E0BC48844208D10121801545
:1043800001F09BF90021A01501F097F925E0B7484D
:10439000844209D10121080401F082F900214FF47F
:1043A000803001F07DF918E0B148844209D1012143
:1043B000480401F075F900214FF4003001F070F964
:1043C0000BE0AC48844208D10121880401F068F96F
:1043D00000214FF4802001F063F910BD0022028813
:1043E000954B98420ED09A4B98420BD0B0F1804F2B
:1043F00008D0924B984205D0914B984202D0914BF5
:10440000984204D14FF68F731A404B881A438E4B53
:10441000984207D08D4B984204D04FF6FF431A4084
:10442000CB881A4302808B8883850B880385824B57
:1044300098420BD0864B984208D08C4B984205D0BE
:104440008B4B984202D08B4B984201D10B7A03865A
:1044500001238382704770B5002200230024058C5D
:104460004FF6FE7635400584038C8488028B4FF628
:104470008F752A40B51E2A400D882A43751E2B4091
:104480000D892B434D882B436B4DA8420BD0704DAB
:10449000A84208D0754DA84205D0754DA84202D05B
:1044A000744DA84213D14FF6F7752B404D892B431D
:1044B0004FF6FB752B408D882B434FF6FF652C4044
:1044C0004FF6FF552C408D892C43CD892C43848099
:1044D0000283CD888586038470BD70B500220023D9
:1044E0000024058C4FF6EF7635400584038C8488D4
:1044F000028B48F6FF752A404FF6FF452A400D888B
:104500002D0642EA15424FF6DF752B400D892D0529
:1045100043EA15434D882D0543EA1543464DA8420D
:1045200002D04B4DA8421BD14FF67F752B404D89D1
:104530002D0543EA15434FF6BF752B408D882D0599
:1045400043EA15434FF6FF352C404FF2FF752C40E0
:104550008D89AD0444EA1544CD89AD0444EA15447F
:1045600084800283CD880587038470BD70B50022E6
:1045700000230024058C4FF6FF6635400584038C2C
:104580008488828B4FF68F752A404FF6FC752A403F
:104590000D882A434FF6FF552B400D892D0643EA1F
:1045A00015434D882D0643EA1543234DA84202D0FA
:1045B000274DA8421BD14FF2FF752B404D892D0688
:1045C00043EA15434FF6FF352B408D882D0643EA0D
:1045D00015434EF6FF752C404DF6FF752C408D8926
:1045E0002D0544EA1544CD892D0544EA15448480FF
:1045F0008283CD888587038470BD70B50022002337
:104600000024058C4EF6FF7635400584038C8488A3
:10461000828B48F6FF752A404FF6FF452A400D88E9
:104620002D0642EA15424DF6FF752B400D892D07E8
:1046300043EA15434D881FE0002C01400004004070
:1046400000080040000C0040001000400014004032
:1046500000340140004C0140005001400054014032
:1046600000180040001C00400020004000400140B5
:1046700000440140004801402D0743EA1543F84D2E
:10468000A84202D0F74DA84206D14BF6FF752C4048
:104690008D89AD0544EA154484808283CD88A0F8D5
:1046A0004050038470BD828B4FF2FF331A408283E7
:1046B000828B0B0642EA134282837047F0B50024D6
:1046C00000250026078C4EF6FF7C07EA0C070784BE
:1046D000848B058C0F073E0C40F6FF473C401706C5
:1046E00044EA17441F0744EA1744DD4FB8420ED08E
:1046F000DC4FB8420BD0B0F1804F08D0DA4FB8424F
:1047000005D0DA4FB84202D0D94FB84206D14DF6A3
:10471000FF773D4046F480573D4305E047F6FF579D
:104720003D4041F480573D4384830584F0BD828B36
:104730004FF6F3731A408283828B0A438283704759
:10474000F0B5002400250026078C4FF6FF6C07EA21
:104750000C070784848B058C0F063E0C4FF60C77F4
:104760003C401F0542EA17473C43BD4FB8420ED0BC
:10477000BC4FB8420BD0B0F1804F08D0BA4FB8420E
:1047800005D0BA4FB84202D0B94FB84206D14FF661
:10479000FF573D4046F480773D4305E04FF2FF5719
:1047A0003D4041F480773D4384830584F0BD028B16
:1047B0004FF2FF331A400283028B0B0642EA134288
:1047C00002837047F0B5002400250026078C4FF6C1
:1047D000EF7C07EA0C070784048B058C0F053E0C61
:1047E00040F6FF473C401F0744EA1744170644EAD7
:1047F00017449B4FB8420ED09A4FB8420BD0B0F13D
:10480000804F08D0984FB84205D0984FB84202D098
:10481000974FB84206D14FF6DF773D4046F010077C
:104820003D4305E04FF65F773D4041F010073D43C3
:1048300004830584F0BD028B4FF6F3731A400283A4
:10484000028B0A4302837047F0B500240025068CD2
:104850004FF6FE773E400684048B058C4FF60C76AF
:1048600034401E0542EA164634437D4EB0420ED017
:104870007C4EB0420BD0B0F1804F08D07A4EB0429F
:1048800005D07A4EB04202D0794EB04206D14FF6F2
:10489000FD76354041F00106354305E04FF6F576EB
:1048A000354041F00106354304830584F0BD70B501
:1048B00004460D466A4884420ED06A4884420BD0B2
:1048C000B4F1804F08D06848844205D067488442DC
:1048D00002D06748844200D100E000BF288850B968
:1048E0002B89AA8869882046FFF7AEFFE988204611
:1048F000FFF7A1FF25E0288804280AD12B89AA8880
:1049000069882046FFF75EFFE9882046FFF74FFFE2
:1049100017E0288808280AD12B89AA8869882046A8
:10492000FFF70EFFE9882046FFF701FF09E02B891A
:10493000AA8869882046FFF7C1FEE9882046FFF76C
:10494000B2FE70BD2DE9F04104460D460026012758
:10495000688808B9022600E00026A888012801D14D
:10496000022700E001272888A0B92B89AA88698836
:104970002046FFF769FFE9882046FFF75CFF2B8997
:104980003A4631462046FFF71DFFE9882046FFF7EB
:104990000EFF13E02B89AA8869882046FFF712FFD3
:1049A000E9882046FFF703FF2B893A463146204627
:1049B000FFF74AFFE9882046FFF73DFFBDE8F08199
:1049C0000A884B881A438B881A43CB881A430B8971
:1049D0001A434B891A438B891A43A0F84420704725
:1049E0004FF6FF71818000210180C18041800172FA
:1049F00070470021018041808180C1800181418117
:104A00008181C18170470021018041800121818025
:104A10000021C18001817047002101804180818097
:104A2000C180018141818181704721B1028842F0BA
:104A30000102028004E002884FF6FE731A400280F1
:104A4000704731B1B0F8442042F40042A0F844204D
:104A500005E0B0F84420C2F30E02A0F844207047ED
:104A6000002C0140003401400004004000080040D8
:104A7000000C004010B51AB183890B43838104E018
:104A80008389CC43A4B22340838110BD81827047C7
:104A900041EA0203A0F84830704710B51AB1838983
:104AA0000B43838104E08389CC43A4B223408381F8
:104AB00010BD01894FF6F872114001817047002244
:104AC00002894FF68F731A400A430281704730B54E
:104AD00004460D4629462046FFF7F1FF208940F0A5
:104AE0000700208130BD2DE9F04104460D461646F1
:104AF0001F46602D06D13B46012231462046FFF776
:104B000061FE05E03B46012231462046FFF79CFE50
:104B100029462046FFF7D3FF208940F00700208177
:104B2000BDE8F08130B500240489E4B21D0642EAF4
:104B300015450D432C43048130BD2DE9F041044659
:104B40000D461646984600274346324629462046DB
:104B5000FFF7E8FF27894FF6F870074047F007078F
:104B60004FF68F70074047F070072781BDE8F0814E
:104B7000F0B504460D4616461F463B4632462946CA
:104B80002046FFF7CFFF208940F480402081F0BD10
:104B9000018582827047002202884FF68F731A4087
:104BA0000A4302807047F0B50024002500260489DE
:104BB000058B068C4FF6F8773C400C434FF6FC47CC
:104BC0003D4040F201173D434FF6DD773E401F0563
:104BD00042EA17473E43048105830684F0BD002264
:104BE000028B4FF68F731A400A43028370470022EC
:104BF000028B48F6FF731A400B0642EA1342028307
:104C000070470022828B4FF68F731A400A438283CB
:104C100070470022828B48F6FF731A400B0642EA67
:104C200013428283704721B1028842F080020280E1
:104C300004E002884FF67F731A400280704721B16A
:104C4000828842F00402828004E082884FF6FB737F
:104C50001A408280704721B1828842F00802828027
:104C600004E082884FF6F7731A408280704721B1C2
:104C7000828842F00102828004E082884FF6FE734F
:104C80001A40828070470022028B4FF6F7731A4059
:104C90000A43028370470022028B4FF2FF731A40CF
:104CA0000B0642EA1342028370470022828B4FF6C2
:104CB000F7731A400A43828370470022828B4FF2B7
:104CC000FF731A400B0642EA1342828370470022A8
:104CD000028B4FF6FB731A400A430283704700228F
:104CE000028B4FF6FF331A400B0642EA134202834F
:104CF00070470022828B4FF6FB731A400A4382836F
:104D000070470022828B4FF6FF331A400B0642EAAF
:104D10001342828370470022028B4FF67F731A4042
:104D20000A43028370470022028BC2F30E020B0675
:104D300042EA1342028370470022828B4FF67F7350
:104D40001A400A43828370470022828BC2F30E020C
:104D50000B0642EA1342828370470022028C4FF610
:104D6000FD731A400A43028470470022028C4FF6FA
:104D7000F7731A400A43028470470022028C4FF6F0
:104D8000DF731A400B0542EA134202847047002287
:104D9000028C4FF67F731A400B0542EA13420284DD
:104DA00070470022028C4FF6FF531A400B0642EA6E
:104DB0001342028470470022028C4FF2FF731A40A4
:104DC0000B0642EA1342028470470022028C4DF621
:104DD000FF731A400B0742EA13420284704730B552
:104DE000002301248C40A3B2048CDD43ADB22C40DF
:104DF0000484048C02FA01F5ADB22C43048430BD66
:104E000030B5002304248C40A3B2048CDD43ADB242
:104E10002C400484048C02FA01F5ADB22C430484C6
:104E200030BD70B500230024034618461833012511
:104E30008D40ACB2058CE643B6B23540058409B16D
:104E4000082909D103EB61031D6825F070051D6079
:104E50001D6815431D600CE00D1FADB203EB65032B
:104E60001D6825F4E0451D601D68160645EA1645D7
:104E70001D6070BD21B1028842F00202028004E090
:104E800002884FF6FD731A400280704721B10288F4
:104E900042F00402028004E002884FF6FB731A40DD
:104EA0000280704721B1828842F08002828004E053
:104EB00082884FF67F731A408280704702884FF6CF
:104EC000F7731A40028002880A4302807047828882
:104ED0004FF68F731A40828082880A43828070471F
:104EE00002894FF6F8731A40028102890A4302814F
:104EF000704702894FF67F731A40028102890A4384
:104F00000281704781847047818570478186704730
:104F10000187704781877047A0F84010704702886A
:104F20004FF6FF431A40028002880A43028070470E
:104F30000146888E70470146088F70470146888F6A
:104F400070470146B1F8400070470146888C7047B1
:104F50000146088D704702460020138A0B4201D09B
:104F6000012000E000207047CA430282704730B53C
:104F70000246002000230024158A05EA01039589D2
:104F800005EA010413B10CB1012000E0002030BD9E
:104F9000CA4302827047000010B50446FB488442B1
:104FA00009D10121880300F07BFB00214FF48040F0
:104FB00000F076FB32E0F648844209D10121480432
:104FC00000F07BFB00214FF4003000F076FB25E081
:104FD000F048844209D10121880400F06EFB0021D1
:104FE0004FF4802000F069FB18E0EB48844209D1BF
:104FF0000121C80400F061FB00214FF4002000F003
:105000005CFB0BE0E548844208D10121080500F073
:1050100054FB00214FF4801000F04FFB10BD2DE930
:10502000F04786B004460D460026002700BFB14673
:10503000B246A88900B100BFA246268A4CF6FF708E
:105040000640E88806432682A6894EF6F3100640FD
:10505000A88829890843698908430643A681A68A46
:105060004FF6FF400640A8890643A68201A800F03B
:105070008FFA5446C548824501D1049F00E0039F42
:10508000A08910F4004F08D007EBC70000EB071011
:1050900029684900B0FBF1F807E007EBC70000EB17
:1050A000071029688900B0FBF1F86420B8FBF0F024
:1050B00006013009642101FB1089A08910F4004F1A
:1050C00009D0322101EBC9006421B0FBF1F000F0FE
:1050D0000700064308E0322101EB09106421B0FB10
:1050E000F1F000F00F000643268106B0BDE8F0871E
:1050F0004FF41651016000218180C18001810C2193
:10510000418100218181704710B50022028A4FF24F
:10511000FF031A400B884C8823438C882343CC8898
:1051200023431A43028210BD002101804180818007
:10513000C180704721B1828942F40052828104E02B
:1051400082894DF6FF731A4082817047F0B50024C2
:10515000002500260023A1F510676A3F00D100BF9B
:105160000346C1F3421401F01F05012707FA05F6B3
:10517000012C01D10C3304E0022C01D1103300E0EA
:1051800014331AB11F6837431F6002E01F68B7432A
:105190001F60F0BD10B51AB1838A0B43838204E00F
:1051A000838ACC43A4B22340838210BD028A4FF687
:1051B000F0731A400282028A0A430282704782898F
:1051C0004FF2FF731A40828182890A4382817047BD
:1051D00021B1828942F00202828104E082894FF685
:1051E000FD731A4082817047028A4FF6DF731A40BE
:1051F0000282028A0A430282704721B1028A42F483
:105200008042028204E0028A4BF6FF731A40028257
:105210007047C1F308028280704701468888C0F356
:1052200008007047818941F0010181817047028B3C
:10523000D2B20283028B42EA012202837047028BC0
:1052400002F47F420283028B0A430283704721B13A
:10525000828A42F02002828204E0828A4FF6DF7363
:105260001A408282704721B1828A42F01002828203
:1052700004E0828A4FF6EF731A408282704721B1B0
:10528000828A42F00802828204E0828A4FF6F77333
:105290001A408282704721B1828942F400428281A1
:1052A00003E08289C2F30E028281704721B1828AB3
:1052B00042F40062828204E0828A4FF2FF731A4055
:1052C00082827047828A4FF6FB731A408282828AFA
:1052D0000A438282704721B1828A42F002028282AE
:1052E00004E0828A4FF6FD731A40828270470246BC
:1052F0000020B1F5007F00D100BF13880B4201D020
:10530000012000E00020704701F40072B2F5007F38
:1053100000D100BFCA430280704770B50246002327
:10532000002400250020A1F510666A3E00D100BFD0
:10533000C1F3421501F01F04012606FA04F4012D01
:1053400002D19689344006E0022D02D1168A3440FB
:1053500001E0968A34400B12012606FA03F3168800
:10536000334014B10BB1012000E0002070BD10B536
:1053700000220023A1F510646A3C00D100BF0A128C
:1053800001249440A3B2DC43048010BD00380140E6
:105390000044004000480040004C004000500040E5
:1053A000DB48006840F00100D949086008464068C1
:1053B000D8490840D649486008460068D6490840A0
:1053C000D34908600846006820F480200860084639
:1053D000406820F4FE0048604FF41F00886070476A
:1053E000CB49096821F48031C94A11601146096826
:1053F00021F480211160B0F5803F03D0B0F5802FFB
:105400000ED106E0C249096841F48031C04A1160FA
:1054100007E0BF49096841F4A021BD4A116000E0DE
:1054200000BF00BF704710B50146002200230020D6
:105430004A11012A02D1B64C236806E0022A02D1A1
:10544000B34C236A01E0B24C636A01F01F020124ED
:1054500094401C4201D0012000E0002010BD70B536
:1054600000240025002600BF3120FFF7DCFF0646A0
:10547000641CB4F5A06F01D0002EF5D03120FFF7E9
:10548000D2FF08B1012500E00025284670BD0021AB
:105490009F4A116821F0F80141EAC001116070478C
:1054A0009E49086070470022994B5A6822F47C128A
:1054B00040EA01031A43964B5A60704797490866C1
:1054C00070470021924A516821F003010143516065
:1054D00070478F48406800F00C00704700218C4AEC
:1054E000516821F0F0010143516070470021884A62
:1054F000516821F4E0610143516070470021844A02
:10550000516821F4605141EAC0015160704729B1EE
:105510007F4A527A02437E4B5A7206E07C4A527AA4
:10552000C343DBB21A407A4B5A7270477B49D83179
:10553000086070470021764A516821F440410143D8
:10554000516070470021724A20321170704A82F80F
:105550002010012802D004280AD104E001216C4A5D
:105560002032117005E00521694A2032117000E0F7
:1055700000BF00BF70476A49086070476449096A04
:105580000143634A116270476549443908607047B6
:1055900030B500210022002300245D4D6D6805F028
:1055A0000C0121B1042905D0082923D105E05D4D66
:1055B000056022E05B4D05601FE0554D6D6805F408
:1055C0007012534D6D6805F48033022505EB92424D
:1055D0001BB9554D554305600BE04D4D6D6815F4F5
:1055E000003F03D0504D5543056002E04D4D5543FB
:1055F000056002E04B4D056000BF00BF444D6D6883
:1056000005F0F0010909494D6C5C0568E54045600D
:105610003F4D6D6805F4E061090A444D6C5C4568D6
:10562000E54085603A4D6D6805F46051C90A3F4D0B
:105630006C5C4568E540C560354D6D6805F44041DA
:10564000890B3A4D10356C5CC568B5FBF4F5056106
:1056500030BD29B12E4A526902432D4B5A6104E0F4
:105660002B4A526982432A4B5A61704729B1284A12
:1056700092690243264B9A6104E0254A926982436B
:10568000234B9A61704729B1214AD2690243204BCA
:10569000DA6104E01E4AD26982431D4BDA61704729
:1056A00029B11B4AD2680243194BDA6004E0184A58
:1056B000D2688243164BDA60704729B1144A1269E6
:1056C0000243134B1A6104E0114A12698243104BE2
:1056D0001A61704712494039086070470F49C86421
:1056E00070470B49C87170470948406A40F08070A4
:1056F00007494862704701460020054A92680A42FD
:1057000001D0012000E000207047014988727047F5
:10571000001002400000FFF8FFFFF6FE00004242CA
:105720008004424200127A0000093D00400000203F
:105730000021FF4A116801F03801014311607047F0
:10574000FB49096821F00801F94A1160114609680E
:10575000014311607047F649096821F01001F44ACD
:10576000116011460968014311607047F148F04922
:105770004860F14848607047EE48ED494860EE489F
:1057800048607047EA48006940F08000E8490861D5
:105790007047E748006940F08000E54908617047BC
:1057A0000420E349C96801F00101012901D1012068
:1057B0000EE0DF49C96811F0040F01D0022007E0B4
:1057C000DB49C96811F0100F01D0032000E004206C
:1057D000704700B502460423FFF7E2FF034603E0EB
:1057E000FFF7DEFF0346521E012B01D1002AF7D13D
:1057F00002B90523184600BD30B5044604254FF410
:105800003020FFF7E6FF0546042D17D1C848006990
:1058100040F00200C649086108464461006940F052
:10582000400008614FF43020FFF7D3FF0546C04821
:10583000006941F6FD710840BD490861284630BD48
:1058400010B504244FF43020FFF7C3FF0446042CA6
:1058500016D1B748006940F00400B5490861084610
:10586000006940F0400008614FF43020FFF7B1FFBD
:105870000446AF48006941F6FB710840AC49086135
:10588000204610BD00B502460423FFF789FF0346FA
:1058900003E0FFF785FF0346521E012B01D1002ACA
:1058A000F7D102B90523184600BD10B504244FF402
:1058B0003020FFF7E7FF0446042C16D19C4800690E
:1058C00040F004009A4908610846006940F0400031
:1058D00008614FF43020FFF7D5FF04469448006973
:1058E00041F6FB71084092490861204610BD002036
:1058F0008F49C96911F0020F01D0012000E000209A
:10590000704730B5A5240425FFF7F1FF00B100244E
:105910004FF43020FFF75DFF0546042D3AD185484E
:1059200083498860844888600846006940F0200008
:1059300008610846006940F0400008614FF43020DB
:10594000FFF747FF0546042D1BD17948006941F652
:10595000DF710840764908610846006940F0100090
:10596000086176480480E802FFF733FF0546052DFD
:1059700010D06F48006941F6EF7108406C4908612A
:1059800008E0052D06D06A48006941F6EF7108402D
:1059900067490861284630BDF0B504460D46042627
:1059A0000027F002FFF715FF0646042E22D16048BB
:1059B000006940F001005E4908612580F002FFF7B0
:1059C00008FF0646042E0ED1A71C280C3880F002D2
:1059D000FFF7FFFE06465648006941F6FE71084093
:1059E0005349086106E05248006941F6FE710840DB
:1059F0004F4908613046F0BD70B504460D46042697
:105A0000F002FFF7E6FE0646042E11D14848006971
:105A100040F00100464908612580F002FFF7D9FEF9
:105A200006464348006941F6FE7108404049086156
:105A3000304670BD70B504460D460426F002FFF7EF
:105A4000C8FE0646042E17D13A48394988603A48BC
:105A500088600846006940F0100008612580F00267
:105A6000FFF7B7FE0646052E06D03148006941F61D
:105A7000EF7108402E490861304670BD2DE9F043B2
:105A800004464FF6FF752E462F46A8464FF00409F0
:105A9000E443E5B2C4F30726C4F307474FEA1468AA
:105AA0004FF40050FFF795FE8146B9F1040F50D135
:105AB00020481F498860204888600846006940F0F7
:105AC00010000861FF2D07D01C48083005804FF4F6
:105AD0000050FFF77EFE8146B9F1040F09D1FF2E79
