:020000040800F2
:1000000070070020F52F0008F5040008F704000829
:10001000FB040008FF0400080305000800000000BE
:1000200000000000000000000000000007050008BC
:1000300009050008000000000B0500080D05000878
:100040000F3000080F3000080F3000080F30000894
:100050000F3000080F3000080F3000080F30000884
:100060000F3000080F3000080F3000080F30000874
:100070000F3000080F3000080F3000080F30000864
:100080000F3000080F3000080F3000080F30000854
:100090000F3000080F3000080F3000080F30000844
:1000A0000F3000080F3000080F3000080F30000834
:1000B0000F3000080F3000080F3000080F30000824
:1000C0000F3000080F3000080F3000080F30000814
:1000D0000F300008672F00080F3000080F300008AD
:1000E0000F3000080F3000080F3000080F300008F4
:1000F0000F3000080F3000080F3000080F300008E4
:100100000F3000080F3000080F3000080F300008D3
:100110000F3000080F3000080F3000080F300008C3
:100120000F3000080F3000080F3000080F300008B3
:1001300000F002F800F044F80AA090E8000C8244B5
:100140008344AAF10107DA4501D100F039F8AFF292
:10015000090EBAE80F0013F0010F18BFFB1A43F0A5
:10016000010318479C620000BC620000103A24BFE3
:1001700078C878C1FAD8520724BF30C830C144BF0C
:1001800004680C607047000000230024002500264E
:10019000103A28BF78C1FBD8520728BF30C148BFEA
:1001A0000B607047692904F04583782904F07A834D
:1001B000002070471FB5AFF300801FBD10B510BD04
:1001C00004F01AFC1146FFF7F5FF00F007F804F001
:1001D00038FCFFF7F3FF02F069FE00002DE9FF474E
:1001E0000026002702F0FCFD02F05AFE4FF4E13039
:1001F00002F06AFE00F094FA00F06EFA00F005FEDC
:1002000002F01AFD02F08CFD4FF478409849088006
:1002100098A31022CDE900231346C82232213C20A6
:1002200002F0CBFC95A31022CDE900231346C8228F
:1002300046213C2002F0C1FC93A31022CDE900230B
:100240001346C8225A213C2002F0B7FC91A3102289
:10025000CDE900231346C8226E213C2002F0ADFCFC
:100260008FA31022CDE900231346C82282213C200F
:1002700002F0A3FC1F207E4908808EA31022CDE946
:1002800000231346C82296213C2002F096FC8CA342
:100290001022CDE900231346C822AA213C2002F0F7
:1002A0008CFC8BA31022CDE900231346C822BE216B
:1002B0003C2002F082FC0021084604F07DF8D6E0E4
:1002C000701CC6B2002000F055FA8046B8F1010F4C
:1002D0000AD1B7F57A6F02DA07F1C80087B239465A
:1002E000002004F069F80DE0B8F1020F0AD1C82F20
:1002F00003DDA7F1C80087B200E0002739460020DF
:1003000004F05AF80A2E05D0B8F1010F02D0B8F166
:10031000020F7ED1002004F06DF80446214670A043
:1003200004F040FA00231022CDE9002304232246E2
:1003300096217C2002F0DDFB204605F042F9814643
:1003400004F054FFCDE9020166A00CC8029804F045
:10035000F3FDCDE9000104F07FFB0546284605F0DA
:10036000EBF884B2284605F0E7F881460023102216
:10037000CDE9002301230246AA217C2002F0B9FB2B
:10038000204605F01EF98146294605F0C8F90546C4
:100390005649284605F01AF90546284605F0CCF8D6
:1003A000814680231022CDE9002303230246AA219F
:1003B0008C2002F09EFB0A21002002F096FC0446ED
:1003C000204605F0FEF8814604F010FFCDE9020159
:1003D00044A00CC8029804F0AFFDCDE9000104F080
:1003E0003BFB0546284605F0A7F884B2284605F0F1
:1003F000A3F8814600231022CDE900230123024601
:10040000BE217C2002F075FB204605F0DAF881461B
:1004100000E01FE0294605F082F9054633492846E9
:1004200005F0D4F80546284605F086F88146802375
:100430001022CDE9002303230246BE218C2002F0C6
:1004400058FB2B48006808B9012000E0002028492B
:10045000086000260A2002F0FAFC2548001F006808
:1004600008B9012000E000202149091F086027E7A2
:100470001600002053544D33320000004441432005
:100480005445535400000000416E736C656C6975EF
:1004900000000000323031342F30352F313200006F
:1004A0004C494E45313A2B20204C494E45323A2D8D
:1004B000000000004441432056414C3A0000000037
:1004C00044414320564F4C3A302E303030560000D5
:1004D00041444320564F4C3A302E303030560000C5
:1004E00025692C006666666666664A3F00007A44A7
:1004F00084012342704700BFFEE700BFFEE700BF54
:10050000FEE700BFFEE77047704770477047000086
:1005100000200021674A126842F48032654B1A605D
:1005200000BF644A126802F40031401C11B9B0F5F2
:10053000A06FF6D15F4A126812F4003F01D001218A
:1005400000E00021012942D15B4A126842F010020A
:10055000594B1A601A46126822F003021A601A46B2
:10056000126842F002021A60524A5268514B5A60B5
:100570001A4652685A601A46526842F480625A60BB
:100580001A46526822F47C125A601A46526842F4A3
:10059000E8125A601A46126842F080721A6000BF70
:1005A000444A126812F0007FFAD0424A526822F0A0
:1005B0000302404B5A601A46526842F002025A60E7
:1005C00000BF3C4A526802F00C02082AF9D1704779
:1005D00010B5FFF79DFF10BD10B53648006840F01C
:1005E00001003449086008464068344908403149F0
:1005F000486008460068324908402E4908600846AD
:10060000006820F4802008600846406820F4FE005E
:1006100048604FF41F008860FFF7DAFF4FF000607A
:100620002849086010BD10B5002000210022214B90
:100630005B6803F00C0020B1042806D0082828D1FC
:1006400007E0214B214C236027E01F4B1F4C236008
:1006500023E0184B5B6803F47011164B5B6803F4DE
:100660008032022303EB914122B9194B4B43174CC3
:1006700023600DE00F4B5B6813F4003F04D0144B74
:100680004B43124C236003E00F4B4B430F4C236052
:1006900003E00D4B0D4C236000BF00BF054B5B68B2
:1006A000C3F303130B4CE05C084B1B68C340074CBF
:1006B000236010BD00100240002002400000FFF83F
:1006C000FFFFF6FE08ED00E000127A0000000020B7
:1006D00000093D000400002008B50121402003F07E
:1006E000FDFF0120ADF8000010208DF8030003206D
:1006F0008DF802006946094803F088FA012107488D
:1007000003F02CFB8020ADF800006946034803F09D
:100710007DFA8021014803F021FB08BD001801404B
:1007200008B50121102003F0D9FF0F20ADF800001B
:1007300010208DF8030069463C4803F067FA012158
:100740003A4803F00DFB0221384803F009FB04216D
:10075000364803F005FB0821344803F001FBF02084
:10076000ADF8000028208DF8030069462F4803F0FB
:100770004DFA08BD10B5044614B101202C4908708B
:100780002B480078002835D01021284803F0CCFAF7
:1007900070B12021254803F0C7FA48B14021234811
:1007A00003F0C2FA20B18021204803F0BDFA08BB53
:1007B0000A2002F04CFB00201D49087010211B4844
:1007C00003F0B2FA08B9012010BD2021174803F048
:1007D000ABFA08B90220F7E74021144803F0A4FA65
:1007E00008B90320F0E78021104803F09DFAD8B93A
:1007F0000420E9E710210D4803F096FA012813D1EF
:1008000020210A4803F090FA01280DD14021074821
:1008100003F08AFA012807D18021044803F084FA02
:10082000012801D1024908700020CDE700100140E5
:1008300014000020F94908807047F849891C088095
:100840007047F648801C00887047F44A10804FF0CB
:10085000D842A2F80018704710B504462046FFF7AA
:10086000E9FF052002F0D1FAFFF7EBFF10BDEC48DD
:10087000C079EA4908807047E849891C08807047B8
:1008800030B5014601F01F04C1F34513CA0AE50261
:1008900005EB43151544A8B230BD00BF0100A0F11F
:1008A0000102D0B2FAD1704710B503460C46DC48BD
:1008B0008088A0F51341413905D0D9488088A0F53A
:1008C000D041043914D1D649087AFFF7B3FF181282
:1008D000FFF7B3FFD8B2FFF7B0FFD149487AFFF76F
:1008E000A9FF2012FFF7A9FFE0B2FFF7A6FF12E071
:1008F000CB488079012804D1C9480088401EC01A1D
:1009000083B2C749087A1946FFF79FFFC449487A5E
:100910002146FFF79AFF10BD2DE9F04104460D4630
:1009200000260027B046BE480088A04203DDBC4830
:100930004088A84202DC0020BDE8F081294620461C
:10094000FFF7B2FFB6488088A0F51341413905D0C2
:10095000B3488088A0F5D041043903D12E20FFF799
:1009600069FF02E02220FFF765FFAD488088A0F50F
:100970001341203902D10220FFF78FFFA748801CC6
:10098000008800B100260220FFF787FFA348801CE3
:100990000688A3488088A0F51341413909D1022077
:1009A000FFF77BFF9D48801CB0F80080F7B23F0244
:1009B00008E09B488088A0F5D041043902D19748CF
:1009C000801C068896488088A0F51341253917D0E9
:1009D00093488088A0F58A41353911D090488088A5
:1009E000A0F58A4131390BD08D488088A0F50941A6
:1009F000893905D08A488088A0F53541053901D16B
:100A0000304699E786488088A0F51341413907D1DF
:100A1000F012C002B91240EA411040EAE8208BE728
:100A20003046FFF72DFF87E700B57D488088A0F5A9
:100A30001341413905D07A488088A0F5D041043966
:100A400003D12920FFF7F6FE04E040F273110720DE
:100A5000FFF7FBFE00BD00B571488088A0F513418B
:100A6000413905D06E488088A0F5D041043903D1C2
:100A70002820FFF7DFFE03E000210720FFF7E5FE57
:100A800000BD70B503460024002565488079012823
:100A90001ED163488088A0F5D041043918D0082BB6
:100AA00015D2DFE803F00406080A0C0E1012062324
:100AB0000DE007230BE0042309E0052307E00123F1
:100AC00005E0002303E0032301E0022300BF00BF91
:100AD00053488088A0F51341413905D0504880889B
:100AE000A0F5D04104397CD1082B1CD2DFE803F0FB
:100AF0000406090C0F12151800BF14E044F080041E
:100B000011E044F040040EE044F0C0040BE044F077
:100B1000200408E044F0600405E044F0A00402E092
:100B200044F0E00400BF00BF362544F008043C4810
:100B30008088A0F5D041043901D144F00204214657
:100B40002846FFF782FE14F0200F0DD034480088AD
:100B500033494988884214DA314806884088304948
:100B60000880084646800CE02D4800882C494988BA
:100B7000884206DD2A4806884088294908800846B8
:100B800046802749087AFFF755FE0020FFF755FEFB
:100B90000020FFF752FE22490988491EC1F30F20A9
:100BA000FFF74BFE1E490988491EC8B2FFF745FEF4
:100BB0001B49487AFFF73EFE0020FFF73EFE00206B
:100BC000FFF73BFE16494988491EC1F30F20FFF786
:100BD00034FE13494988491EC8B2FFF72EFE37E09C
:100BE000FFE7082B21D2DFE803F004070A0D0F12FC
:100BF000151D44F0300418E044F0100415E044F0F2
:100C0000200412E000BF10E044F038040DE044F08E
:100C100028040AE044F0180407E00000FE07006C16
:100C20003C00002044F0080400BF00BFFF4880885B
:100C3000A0F50941893904D1112546F24000044349
:100C400002E0032544F4805421462846FFF7FDFDC9
:100C500070BD30B504460D4629462046FFF724FEF8
:100C6000FFF705FEF2480088F249088030BD30B534
:100C700003460C461546ED488088A0F513414139DE
:100C800005D0EA488088A0F5D041043914D1E7495D
:100C9000087AFFF7CFFD1812FFF7CFFDD8B2FFF7A4
:100CA000CCFDE249487AFFF7C5FD2012FFF7C5FDEC
:100CB000E0B2FFF7C2FD12E0DC488079012804D1E0
:100CC000DA480088401EC01A83B2D849087A19460B
:100CD000FFF7BBFDD549487A2146FFF7B6FDD3485B
:100CE000C079D449891E08804FF0D840A0F8005838
:100CF00030BD10B50446002C3DD1CC498871F020A0
:100D000008804FF4A070488008468088A0F5134101
:100D1000413905D0C5488088A0F5D041043914D1A7
:100D20002C20C249C8712A2008722B20487208461C
:100D30008088A0F5D04104394ED14FF4A070BB4952
:100D400008804FF4F070488046E0B8488088A0F5ED
:100D50000941893907D12220B449C8714E2008724F
:100D60004F20487238E02220B049C8712020087214
:100D70002120487230E0AD488088A0F5D041043988
:100D80002AD00120A94988714FF4A0700880F02072
:100D9000488008468088A0F51341413907D12C20AE
:100DA000A249C8712A2008722B20487214E09F487B
:100DB0008088A0F50941893907D122209B49C87153
:100DC0004F2008724E20487206E022209749C871D1
:100DD00021200872202048720020FFF752FE10BD2B
:100DE00070B5044600269148058840884543002197
:100DF0000846FFF759FDFFF73AFD00BF02E08D48B6
:100E00000480761CAE42FAD370BD00B59FB00121BC
:100E1000080203F056FC012140F2691003F05EFC69
:100E20000120ADF8780010208DF87B0003208DF8AC
:100E30007A001EA9804802F0E9FE4CF23370ADF84A
:100E4000780018208DF87B0003208DF87A001EA909
:100E50007A4802F0DBFE4FF68070ADF8780018207B
:100E60008DF87B0003208DF87A001EA9744802F0EB
:100E7000CDFE41F20100ADF8780018208DF87B001E
:100E800003208DF87A001EA96E4802F0BFFE0120F3
:100E90000890002009900F200A9000200B900C90E1
:100EA0000D900E900190029003200390002004907A
:100EB00005900690079006200F900020109011904A
:100EC00010201290002013901590149016901790F7
:100ED0004FF480501890002019904FF480401A90E1
:100EE00000201B9008A81C9001A81D900FA802F0DC
:100EF00076FB0121062002F0D7FC322001F0A7FF8B
:100F000001210020FFF7A1FC322001F0A0FF00200A
:100F1000FFF7A2FC4549888008468088FF280ADB45
:100F200008468088A0F57F41FF3904D03F4880887B
:100F3000B0F5134F45D1D320FFF77CFCFFF781FCC0
:100F4000FFF77FFCFFF77DFC3849888008468088E2
:100F50000006000C8880FFF774FC34498988084338
:100F60003249888008468088A0F51341413918D05D
:100F7000BF20FFF75FFCFFF764FCFFF762FCFFF7A1
:100F800060FCFFF75EFC29498880084680880006DF
:100F9000000C8880FFF755FC2449898808432349C1
:100FA000888022488088A0F51341413909D01F4824
:100FB0008088A0F5D041043903D049F241301B4963
:100FC00088801A48818820A003F0ECFB17488088AD
:100FD000A0F5134141397ED1CF20FFF72BFC002033
:100FE000FFF72BFCC120FFF728FC3020FFF725FC82
:100FF000ED20FFF71FFC6420FFF71FFC0320FFF725
:101000001CFC1220FFF719FC8120FFF716FCE820DA
:10101000FFF710FC8520FFF710FC1020FFF70DFCF8
:101020007A20FFF70AFCCB2016E000003C000020ED
:10103000160000200008006C000C01400014014064
:101040000018014000200140204C43442049443A0C
:1010500025780D0A00000000FFF7ECFB3920FFF7B0
:10106000ECFB2C20FFF7E9FB0020FFF7E6FB342028
:10107000FFF7E3FB0220FFF7E0FBF720FFF7DAFBC7
:101080002020FFF7DAFBEA20FFF7D4FB0020FFF770
:10109000D4FB0020FFF7D1FBC020FFF7CBFB1B20C8
:1010A000FFF7CBFBC120FFF7C5FB0120FFF7C5FB16
:1010B000C520FFF7BFFB3020FFF7BFFB3020FFF755
:1010C000BCFBC720FFF7B6FBB720FFF7B6FB362007
:1010D000FFF7B0FB00E0AFE04820FFF7AEFB3A209F
:1010E000FFF7A8FB5520FFF7A8FBB120FFF7A2FBF5
:1010F0000020FFF7A2FB1A20FFF79FFBB620FFF7A7
:1011000099FB0A20FFF799FBA220FFF796FBF2203C
:10111000FFF790FB0020FFF790FB2620FFF78AFBEC
:101120000120FFF78AFBE020FFF784FB0F20FFF789
:1011300084FB2A20FFF781FB2820FFF77EFB082095
:10114000FFF77BFB0E20FFF778FB0820FFF775FB0E
:101150005420FFF772FBA920FFF76FFB4320FFF736
:101160006CFB0A20FFF769FB0F20FFF766FB0020EE
:10117000FFF763FB0020FFF760FB0020FFF75DFB3C
:101180000020FFF75AFBE120FFF754FB0020FFF798
:1011900054FB1520FFF751FB1720FFF74EFB0720EC
:1011A000FFF74BFB1120FFF748FB0620FFF745FB3D
:1011B0002B20FFF742FB5620FFF73FFB3C20FFF7B9
:1011C0003CFB0520FFF739FB1020FFF736FB0F2013
:1011D000FFF733FB3F20FFF730FB3F20FFF72DFBEE
:1011E0000F20FFF72AFB2B20FFF724FB0020FFF73F
:1011F00024FB0020FFF721FB0120FFF71EFB3F200F
:10120000FFF71BFB2A20FFF715FB0020FFF715FB5C
:101210000020FFF712FB0020FFF70FFBEF20FFF786
:101220000CFB1120FFF706FB782001F010FE2920AF
:10123000FFF700FB01F00FBAFF488088A0F5D0410E
:1012400004397ED11120FFF7F5FA142001F0FFFDDB
:10125000D020FFF7EFFA0720FFF7EFFA4220FFF761
:10126000ECFA1D20FFF7E9FAD120FFF7E3FA00209E
:10127000FFF7E3FA1A20FFF7E0FA0920FFF7DDFA9B
:10128000D220FFF7D7FA0120FFF7D7FA2220FFF785
:10129000D4FAC020FFF7CEFA1020FFF7CEFA3B2099
:1012A000FFF7CBFA0020FFF7C8FA0220FFF7C5FAD4
:1012B0001120FFF7C2FAC520FFF7BCFA0320FFF7A1
:1012C000BCFAC820FFF7B6FA0020FFF7B6FA2520CF
:1012D000FFF7B3FA2120FFF7B0FA0520FFF7ADFAC8
:1012E0000020FFF7AAFA0A20FFF7A7FA6520FFF708
:1012F000A4FA2520FFF7A1FA7720FFF79EFA5020E5
:10130000FFF79BFA0F20FFF798FA0020FFF795FAF6
:10131000F820FFF78FFA0120FFF78FFAFE20FFF782
:1013200089FA0020FFF789FA0220FFF786FA2020C9
:10133000FFF780FA3620FFF77DFA0820FFF77DFAE5
:1013400000E02AE03A20FFF775FA5520FFF775FA1A
:101350002B20FFF76FFA0020FFF76FFA0020FFF74E
:101360006CFA0120FFF769FA3F20FFF766FA2A209E
:10137000FFF760FA0020FFF760FA0020FFF75DFA40
:101380000120FFF75AFADF20FFF757FA782001F023
:101390005EFD2920FFF74EFA4CE7A7488088A0F5AC
:1013A000134125397ED147F6F001E520FFF74DFACC
:1013B0004FF480710120FFF748FA4FF4E0610220FA
:1013C000FFF743FA41F230010320FFF73EFA002114
:1013D0000420FFF73AFA40F202210820FFF735FA1D
:1013E00000210920FFF731FA00210A20FFF72DFA2A
:1013F00000210C20FFF729FA00210D20FFF725FA24
:1014000000210F20FFF721FA00211020FFF71DFA1D
:1014100007211120FFF719FA00211220FFF715FA12
:1014200000211320FFF711FA00210720FFF70DFA22
:1014300041F290611020FFF708FA40F227211120B5
:10144000FFF703FA9D211220FFF7FFF94FF4C8516F
:101450001320FFF7FAF925212920FFF7F6F90D21CE
:101460002B20FFF7F2F907213020FFF7EEF940F2C9
:1014700003313120FFF7E9F903213220FFF7E5F9C5
:1014800040F206213520FFF7E0F908213620FFF76A
:10149000DCF940F206413720FFF7D7F94FF44171EC
:1014A000382000E057E0FFF7D0F907213920FFF797
:1014B000CCF940F202613C20FFF7C7F908213D203A
:1014C000FFF7C3F900215020FFF7BFF9EF215120AA
:1014D000FFF7BBF900215220FFF7B7F940F23F11A7
:1014E0005320FFF7B2F94FF427416020FFF7ADF921
:1014F00001216120FFF7A9F900216A20FFF7A5F972
:1015000000218020FFF7A1F900218120FFF79DF93C
:1015100000218220FFF799F900218320FFF795F938
:1015200000218420FFF791F900218520FFF78DF934
:1015300010219020FFF789F94FF4C0619220FFF746
:1015400084F940F233110720FFF77FF922210020B0
:10155000FFF77BF96EE638488088A0F513412839FB
:101560006CD141F28F01EC20FFF76FF941F2342189
:10157000EF20FFF76AF94FF480710120FFF765F95A
:101580004FF4E0610220FFF760F941F230010320DF
:10159000FFF75BF900210420FFF757F940F2022121
:1015A0000820FFF752F900210920FFF74EF900212A
:1015B0000A20FFF74AF901210C20FFF746F9002124
:1015C0000D20FFF742F900210F20FFF73EF900211F
:1015D0001020FFF73AF907211120FFF736F9002113
:1015E0001220FFF732F900211320FFF72EF9012115
:1015F0000720FFF72AF9322001F029FC41F290413F
:101600001020FFF722F940F227211120FFF71DF9E2
:10161000322001F01CFC8A211220FFF716F932203B
:1016200001F015FC4FF4D0511320FFF70EF90621FD
:101630002920FFF70AF902E03C00002088E00D2194
:101640002B20FFF702F9322001F001FC00212020BD
:10165000FFF7FBF800212120FFF7F7F8322001F017
:10166000F6FB00213020FFF7F0F840F20461312052
:10167000FFF7EBF840F205313220FFF7E6F80021E2
:101680003520FFF7E2F840F609413620FFF7DDF894
:101690004FF401713720FFF7D8F840F201313820BC
:1016A000FFF7D3F840F207713920FFF7CEF8002199
:1016B0003C20FFF7CAF840F60A213D20FFF7C5F8A5
:1016C000322001F0C4FB00215020FFF7BEF8EF21CB
:1016D0005120FFF7BAF800215220FFF7B6F840F288
:1016E0003F115320FFF7B1F84FF427416020FFF777
:1016F000ACF801216120FFF7A8F800216A20FFF76C
:10170000A4F800218020FFF7A0F800218120FFF736
:101710009CF800218220FFF798F800218320FFF732
:1017200094F800218420FFF790F800218520FFF72E
:101730008CF810219020FFF788F84FF4C0619220B8
:10174000FFF783F840F233110720FFF77EF871E5C9
:10175000FF488088A0F5134120397ED10846FFF765
:1017600074F84FF480710120FFF76FF84FF4E061D7
:101770000220FFF76AF841F230010320FFF765F815
:1017800000210420FFF761F840F202210820FFF752
:101790005CF800210920FFF758F800210A20FFF724
:1017A00054F801210C20FFF750F800210D20FFF71D
:1017B0004CF800210F20FFF748F8322001F047FBDA
:1017C00040F201110720FFF740F8322001F03FFB03
:1017D0004FF486511020FFF738F807211120FFF74A
:1017E00034F84FF488711220FFF72FF84FF430616E
:1017F0001320FFF72AF800212920FFF726F844F2EA
:1018000010012B20FFF721F800215020FFF71DF8D1
:10181000EF215120FFF719F800215220FFF715F8AA
:1018200040F23F115320FFF710F84FF41C51602095
:10183000FFF70BF801216120FFF707F800216A206C
:10184000FFF703F800218020FEF7FFFF0021812031
:10185000FEF7FBFF0021822000E02CE0FEF7F5FF01
:1018600000218320FEF7F1FF00218420FEF7EDFF29
:1018700000218520FEF7E9FF10219020FEF7E5FF0B
:1018800000219220FEF7E1FF01219320FEF7DDFF0A
:101890004FF488719520FEF7D8FF00219720FEF7BE
:1018A000D4FF00219820FEF7D0FF40F273110720EB
:1018B000FEF7CBFFBEE4A6488088A0F5134131397E
:1018C0007DD141F21401E720FEF7BFFF4FF4807194
:1018D0000120FEF7BAFF4FF400710220FEF7B5FFBA
:1018E00041F238010320FEF7B0FF40F20221082048
:1018F000FEF7ABFF00210920FEF7A7FF00210A2019
:10190000FEF7A3FF00210C20FEF79FFF00210D2012
:10191000FEF79BFF00210F20FEF797FF002110200C
:10192000FEF793FF07211120FEF78FFF0021122001
:10193000FEF78BFF00211320FEF787FFC82001F080
:1019400086FA41F290611020FEF77FFF40F22721D6
:101950001120FEF77AFF322001F079FA0C211220D3
:10196000FEF773FF322001F072FA4FF4006113208A
:10197000FEF76BFF11212920FEF767FF0B212B20BB
:10198000FEF763FF322001F062FA00212020FEF70B
:101990005CFF40F23F112120FEF757FF002130206D
:1019A000FEF753FF4FF483713120FEF74EFF002105
:1019B0003220FEF74AFF4FF40171352000E064E069
:1019C000FEF743FF41F20A613620FEF73EFF40F288
:1019D00007713720FEF739FF4FF483713820FEF787
:1019E00034FF40F207713920FEF72FFF40F2024129
:1019F0003C20FEF72AFF40F60F413D20FEF725FF71
:101A000000215020FEF721FFEF215120FEF71DFF9E
:101A100000215220FEF719FF40F23F115320FEF73C
:101A200014FF4FF41C516020FEF70FFF01216120CD
:101A3000FEF70BFF00216A20FEF707FF0021802040
:101A4000FEF703FF00218120FEF7FFFE0021822028
:101A5000FEF7FBFE00218320FEF7F7FE0021842025
:101A6000FEF7F3FE00218520FEF7EFFE1021902007
:101A7000FEF7EBFE4FF4C0619220FEF7E6FE40F267
:101A800033110720FEF7E1FE86E431488088A0F597
:101A9000A84108397DD14FF480710120FEF7D5FEB1
:101AA0004FF4E0610220FEF7D0FE41F23001032046
:101AB000FEF7CBFE00210420FEF7C7FE40F207210F
:101AC0000820FEF7C2FE00210920FEF7BEFE00211D
:101AD0000A20FEF7BAFE00210C20FEF7B6FE002118
:101AE0000D20FEF7B2FE00210F20FEF7AEFE1420FF
:101AF00001F0ADF941F2B0611020FEF7A6FE012120
:101B00001120FEF7A2FE01211720FEF79EFE4FF4E2
:101B10009C711220FEF799FE4FF400611320FEF72E
:101B200094FE09212920FEF790FE09212A20FEF7C4
:101B30008CFE0021A420FEF788FE00215020FEF735
:101B400084FEEF215120FEF780FE0021522001E0AB
:101B50003C000020FEF779FE40F23F115320FEF7D3
:101B600074FE4FF41C516020FEF76FFE01216120CE
:101B7000FEF76BFE00216A20FEF767FE0021802041
:101B8000FEF763FE00218120FEF75FFE0021822028
:101B900000E027E0FEF759FE00218320FEF755FE06
:101BA00000218420FEF751FE00218520FEF74DFE26
:101BB00013219020FEF749FE00219220FEF745FEFA
:101BC00003219320FEF741FE4FF488719520FEF724
:101BD0003CFE40F273110720FEF737FE322001F081
:101BE00036F9B7E4FF488088A0F5A85105397ED1C1
:101BF0000720FEF72AFE322001F029F94FF48E71FA
:101C00001220FEF722FE0121A420FEF71EFE0F2166
:101C10000820FEF71AFE08210A20FEF716FE08210A
:101C20000D20FEF712FE40F207713020FEF70DFE88
:101C300007213120FEF709FE40F203613220FEF752
:101C400004FE4FF4E0613320FEF7FFFD40F2022175
:101C50003420FEF7FAFD02213520FEF7F6FD41F6AD
:101C60000F713620FEF7F1FD40F207713720FEF7C5
:101C7000ECFD00213820FEF7E8FD00213920FEF7B9
:101C8000E4FD40F207713A20FEF7DFFD00213B2022
:101C9000FEF7DBFD07213C20FEF7D7FD00213D20AC
:101CA000FEF7D3FD322001F0D2F801210720FEF724
:101CB000CCFD01211720FEF7C8FD322001F0C7F846
:101CC0004FF4BD511020FEF7C0FD40F21721112046
:101CD000FEF7BBFD4FF48F711220FEF7B6FD4FF4F7
:101CE00070611320FEF7B1FD00212A2000E093E08F
:101CF000FEF7ABFD0A212920FEF7A7FD4FF49F71E7
:101D00001220FEF7A2FD00215020FEF79EFDEF21DC
:101D10005120FEF79AFD00215220FEF796FD40F279
:101D20003F115320FEF791FD4FF41C516020FEF748
:101D30008CFD01216120FEF788FD00216A20FEF75D
:101D400084FD00218020FEF780FD00218120FEF728
:101D50007CFD00218220FEF778FD00218320FEF724
:101D600074FD00218420FEF770FD00218520FEF720
:101D70006CFD13219020FEF768FD4FF44071922016
:101D8000FEF763FD05219320FEF75FFD00219520FE
:101D9000FEF75BFD00219720FEF757FD00219820FC
:101DA000FEF753FD4FF480710120FEF74EFD4FF416
:101DB000E0610220FEF749FD41F238010320FEF701
:101DC00044FD00210420FEF740FD00210C20FEF719
:101DD0003CFD00210F20FEF738FD00212020FEF7FA
:101DE00034FD00212120FEF730FD21210720FEF7E0
:101DF0002CFD142001F02BF861210720FEF725FDB2
:101E0000142001F024F840F273110720FEF71DFDA5
:101E1000142001F01CF89AE472488088A0F535413E
:101E200005397DD10846FEF710FD00210846FEF772
:101E30000CFD00210846FEF708FD00210846FEF7CC
:101E400004FD0121A420FEF700FD142000F0FFFF97
:101E50004FF41C516020FEF7F8FC40F202210820EC
:101E6000FEF7F3FC4FF405713020FEF7EEFC43F271
:101E700015713120FEF7E9FC40F204613220FEF7D3
:101E8000E4FC40F616613320FEF7DFFC42F211213C
:101E90003420FEF7DAFC4FF4A8513520FEF7D5FCCC
:101EA00048F207513620FEF7D0FC41F207413720B7
:101EB000FEF7CBFC41F203413820FEF7C6FC20219F
:101EC0003920FEF7C2FC1A219020FEF7BEFC00214B
:101ED0001020FEF7BAFC07211120FEF7B6FC002106
:101EE0001220FEF7B2FC00211320FEF7AEFC1420F6
:101EF00000F0ADFF4FF4E6611020FEF7A6FC40F2C3
:101F000037111120FEF7A1FC142000F0A0FF4FF4C0
:101F1000DC711220FEF799FC142000F098FF00E01D
:101F200086E04FF470611320FEF78FFC80212A2099
:101F3000FEF78BFC48212920FEF787FC142000F0D7
:101F400086FF4FF480710120FEF77FFC4FF4E061C3
:101F50000220FEF77AFC41F238010320FEF775FCFF
:101F600040F202210820FEF770FC00210A20FEF753
:101F70006CFC00210C20FEF768FC00210D20FEF710
:101F800064FC30210E20FEF760FC00215020FEF79B
:101F90005CFCEF215120FEF758FC00215220FEF797
:101FA00054FC40F23F115320FEF74FFC4FF41C51FC
:101FB0006020FEF74AFC01216120FEF746FC00216B
:101FC0006A20FEF742FC11219020FEF73EFC4FF400
:101FD000C0619220FEF739FC40F202419320FEF7E7
:101FE00034FC01E03C00002002219420FEF72DFC8F
:101FF000142000F02CFF01210720FEF726FC1420FE
:1020000000F025FF61210720FEF71FFC40F273114D
:102010000720FEF71AFC00212020FEF716FC002105
:102020002120FEF712FC22210020FEF70EFC12E315
:10203000FF488088A0F5454105397DD10846FEF767
:1020400004FC00210846FEF700FC142000F0FFFE0F
:1020500000210846FEF7F9FB00210846FEF7F5FBD4
:1020600000210846FEF7F1FB00210846FEF7EDFBD4
:102070000121A420FEF7E9FB142000F0E8FE4FF454
:102080001C516020FEF7E1FB40F606010820FEF738
:10209000DCFB40F203713020FEF7D7FB0121312039
:1020A000FEF7D3FB04213220FEF7CFFB4FF4817102
:1020B0003320FEF7CAFB4FF440713420FEF7C5FB16
:1020C00040F203113520FEF7C0FB1F213620FEF73A
:1020D000BCFB40F203713720FEF7B7FB012138202B
:1020E000FEF7B3FB04213920FEF7AFFB152190204A
:1020F000FEF7ABFB4FF482611020FEF7A6FB40F227
:1021000047211120FEF7A1FB4FF4DE711220FEF7EC
:102110009CFB4FF460611320FEF797FB782000F0E2
:1021200096FE4FF480710120FEF78FFB4FF4007193
:102130000220FEF78AFB00E050E041F2300103206C
:10214000FEF783FB08210A20FEF77FFB00210C200D
:10215000FEF77BFB20210E20FEF777FB00210F20EE
:10216000FEF773FB00212020FEF76FFB00212120EA
:10217000FEF76BFB3D212A20FEF767FB142000F0E1
:1021800066FE2D212920FEF760FB00215020FEF77E
:102190005CFB4DF2EF015120FEF757FB002152206E
:1021A000FEF753FB40F23F115320FEF74EFB002198
:1021B0006120FEF74AFB00216A20FEF746FB4FF440
:1021C00040719220FEF741FB05219320FEF73DFB75
:1021D0004FF480710720FEF738FB3CE2944880887A
:1021E000A0F5094189397DD101210020FEF72DFBA1
:1021F0004AF6A4010320FEF728FB00210C20FEF77D
:1022000024FB40F60C010D20FEF71FFB4FF42C5170
:102210000E20FEF71AFBB0211E20FEF716FB42F639
:102220003F310120FEF711FB4FF4C0610220FEF7A1
:102230000CFB00211020FEF708FB46F2780111206C
:10224000FEF703FB00210520FEF7FFFA0021062020
:10225000FEF7FBFA4EF61C711620FEF7F6FA032184
:102260001720FEF7F2FA40F233210720FEF7EDFACD
:1022700000210B20FEF7E9FA00210F20FEF7E5FA16
:1022800000214120FEF7E1FA00214220FEF7DDFAAD
:1022900000214820FEF7D9FA40F23F114920FEF70D
:1022A000D4FA00214A20FEF7D0FA00214B20FEF795
:1022B000CCFA4FF46F414420FEF7C7FA00214520C5
:1022C000FEF7C3FA40F23F114620FEF7BEFA40F295
:1022D00007713020FEF7B9FA4FF401713120FEF793
:1022E000B4FA00E03DE04FF401713220FEF7ADFAA0
:1022F00040F202513320FEF7A8FA40F20751342091
:10230000FEF7A3FA4FF401713520FEF79EFA4FF461
:1023100001713620FEF799FA40F202513720FEF79C
:1023200094FA40F202313A20FEF78FFA40F202317D
:102330003B20FEF78AFA00212320FEF786FA0021CF
:102340002420FEF782FA4FF400412520FEF77DFAA3
:1023500000214F20FEF779FA00214E20FEF775FA92
:1023600079E133488088A0F58A4131397ED1012155
:102370000020FEF76AFA0A2000F069FD41F22861A8
:102380001020FEF762FA0E211220FEF75EFA40F6E8
:1023900039211320FEF759FA0A2000F058FD402198
:1023A0001120FEF752FA50211520FEF74EFA0A20AE
:1023B00000F04DFD1E211220FEF747FA0A2000F022
:1023C00046FD4FF4B1511020FEF73FFA42F6392195
:1023D0001320FEF73AFA0A2000F039FD4FF480711D
:1023E0000120FEF732FA4FF440710220FEF72DFA79
:1023F00041F238010320FEF728FA40F202210820BA
:10240000FEF723FA08210A20FEF71FFA00213020E8
:10241000FEF71BFA40F202413120FEF716FA4FF4A4
:1024200083713220FEF711FA40F20351332001E0AC
:102430003C000020FEF709FA4FF482713420FEF7C9
:1024400004FA40F201313520FEF7FFF940F207713E
:102450003620FEF7FAF940F205313720FEF7F5F99C
:102460004FF402713820FEF7F0F900E03EE040F64C
:102470000B713920FEF7E9F902214120FEF7E5F959
:102480004FF41C516020FEF7E0F901216120FEF7B6
:10249000DCF94FF404719020FEF7D7F94FF4857101
:1024A0009220FEF7D2F904219320FEF7CEF94FF4E3
:1024B0008071A020FEF7C9F901210720FEF7C5F9B8
:1024C00021210720FEF7C1F923210720FEF7BDF9DE
:1024D00033210720FEF7B9F940F233110720FEF748
:1024E000B4F90021A020FEF7B0F9B4E0FA488088E2
:1024F000A0F58A413539F8D130211520FEF7A5F92C
:1025000010219A20FEF7A1F920211120FEF79DF954
:1025100043F228411020FEF798F902211220FEF71D
:1025200094F941F238011320FEF78FF9282000F0CA
:102530008EFC12210846FEF788F9282000F087FC5F
:1025400043F220411020FEF780F943F238011320B6
:10255000FEF77BF9462000F07AFC00213020FEF7E0
:1025600074F940F202413120FEF76FF940F2073171
:102570003220FEF76AF94FF441713320FEF765F916
:1025800004213420FEF761F940F201413520FEF7C5
:102590005CF940F207713620FEF757F940F2053139
:1025A0003720FEF752F94FF4C2613820FEF74DF99B
:1025B0004FF4C2613920FEF748F94FF480710120D1
:1025C000FEF743F94FF440710220FEF73EF941F265
:1025D00030010320FEF739F940F608010820FEF724
:1025E00034F908210A20FEF730F94FF41C5160201D
:1025F000FEF72BF901216120FEF727F94FF49F71B7
:102600009020FEF722F94FF480719220FEF71DF919
:102610004FF480719320FEF718F94FF44051A02039
:10262000FEF713F91021A320FEF70FF9012107206F
:10263000FEF70BF921210720FEF707F923210720D8
:10264000FEF703F933210720FEF7FFF840F23311BC
:102650000720FEF7FAF80020FEF74BFB01209F4908
:1026600008604FF6FF70FEF7BBFB1FB000BD2DE901
:10267000F04F04460D4616461F46DDF824804FF005
:10268000000B301B401C1FFA80FBA94615E0494691
:102690002046FEF709F9FEF7EAF84FF0000A06E0D7
:1026A0004046FEF7CAF80AF101001FFA80FADA453F
:1026B000F6DB09F101001FFA80F9B945E7DDBDE855
:1026C000F08F2DE9F84F04460D4616461F46DDF8FB
:1026D0002880301B401C80B20090781B401C1FFAE1
:1026E00080F94FF0000A1BE005EB0A0081B220469A
:1026F000FEF7DAF8FEF7BBF84FF0000B09E00AFB33
:1027000009B038F81000764908800BF101001FFA73
:1027100080FB00988345F2DB0AF101001FFA80FA82
:10272000CA45E1DBBDE8F88F2DE9FF4F85B00446CF
:102730000D461646002004900390A6EB0408089866
:10274000A0EB0509A3460095B8F1000F02DD0120BA
:1027500001900AE0B8F1000F02D10020019004E0DE
:102760004FF0FF300190C8F10008B9F1000F02DD11
:102770004FF0010A09E0B9F1000F02D14FF0000A51
:1027800003E04FF0FF3AC9F10009C84502DDCDF87A
:10279000088001E0CDF80890002722E0009881B27F
:1027A0001FFA8BF0FEF755FA049840440490039802
:1027B0004844039002990498884205DD04990298E0
:1027C000081A049001988344DDE90210884206DD6E
:1027D000DDE90210401A0390009850440090781CE4
:1027E00087B20298401C8742D8DD09B0BDE8F08F5F
:1027F000F0B504460D4616461F462B46324629467E
:102800002046FFF791FF3B46224629462046FFF728
:102810008BFF3B46324639462046FFF785FF3B4655
:10282000324629463046FFF77FFFF0BD2DE9F043E1
:1028300004460D4616460027B0460320A0EB460985
:1028400046E0A5EB080291B2E21990B2FEF701FA58
:10285000EA1B91B204EB080290B2FEF7FAF9EA190A
:1028600091B204EB080290B2FEF7F3F905EB08020F
:1028700091B2E21990B2FEF7ECF905EB080291B2C1
:10288000E21B90B2FEF7E5F9EA1991B2A4EB080257
:1028900090B2FEF7DEF9A5EB080291B2E21B90B20E
:1028A000FEF7D7F9EA1B91B2A4EB080290B2FEF74B
:1028B000D0F97F1CB9F1000F03DAB800801D814404
:1028C00006E0A7EB080080000A308144A8F1010867
:1028D0004745B6DDBDE8F0833C0000208081214201
:1028E0000008006C2DE9F84F04460D4616461F46B9
:1028F0000095CC48B0F800B0A6F12000C6B20A9806
:10290000002850D182464BE00C2F07D106EB460041
:10291000C54901EB800010F80A8004E0C34800EBD1
:10292000061010F80A804FF0000931E018F0800F0F
:1029300003D0BC48A0F800B003E0BD480088B94906
:10294000088029462046FEF784F94FEA48604FEA9E
:102950001068681C85B2B7480088A04204DCB14802
:10296000A0F800B0BDE8F88F0098281AB8420BD143
:10297000009D601C84B2AF480088A04203DCA948D7
:10298000A0F800B0EEE706E009F1010000F0FF0951
:10299000B9F1080FCADB00BF0AF1010000F0FF0A1D
:1029A000BA45B1DB47E04FF0000A42E00C2F07D1F7
:1029B00006EB46009C4901EB800010F80A8004E019
:1029C0009A4800EB061010F80A804FF0000928E042
:1029D00018F0800F03D029462046FEF73AF94FEA57
:1029E00048604FEA1068681C85B292484088A0424F
:1029F00003DC8C48A0F800B0B4E70098281AB8426D
:102A00000BD1009D601C84B28A480088A04203DC80
:102A10008448A0F800B0A5E706E009F1010000F045
:102A2000FF09B9F1080FD3DB00BF0AF1010000F084
:102A3000FF0ABA45BADB7B48A0F800B092E710B5B0
:102A40000246012000E050430B00A1F10104E1B275
:102A5000F9D110BD2DE9FF4F81B0044615461E4641
:102A60000E9F4FF0000AD0463EE0A6EB0800401E45
:102A7000C1B20A20FFF7E3FFB5FBF0F00A21B0FB7B
:102A8000F1F201FB120000F0FF09BAF1000F16D1BC
:102A9000701E404513DDB9F1000F0ED10023BB4677
:102AA00007EBD771491001FB084188B200933B4600
:102AB00020220299FFF716FF12E04FF0010A0023CF
:102AC000BB4607EBD771491001FB084188B2009360
:102AD0003B4609F13001CAB20299FFF703FF00BF7C
:102AE00008F1010000F0FF08B045BEDB05B0BDE80D
:102AF000F08F2DE9FF4F82B0044615461E46DDE9F2
:102B00000F7800200190814652E0A6EB0900401E9C
:102B1000C1B20A20FFF793FFB5FBF0F00A21B0FB2A
:102B2000F1F201FB120000F0FF0A019850BB701E89
:102B3000484527DDBAF1000F22D118F0800F0FD0E1
:102B400008F00103BB4607EBD771491001FB0941AF
:102B500088B200933B4630220399FFF7C3FE0EE094
:102B600008F00103BB4607EBD771491001FB09418F
:102B700088B200933B4620220399FFF7B3FE13E08F
:102B80000120019008F00103BB4607EBD771491003
:102B900001FB094188B200933B460AF13001CAB2F9
:102BA0000399FFF79FFE00BF09F1010000F0FF0944
:102BB000B145AADB06B0BDE8F08F2DE9F847044621
:102BC0000D4616461F46DDE9098904F0FF0A301953
:102BD00086B2781987B219E0B44203DB544605EB9C
:102BE000080085B2BD4200DB18E00023009399F88D
:102BF0000020434629462046FFF774FE404608EB76
:102C0000D87104EB61018CB209F1010999F8000057
:102C10007E2803DC99F800002028DDDA00BFBDE83B
:102C2000F88700001600002072590008E65D0008D1
:102C3000180000203C00002000B587B001214FF4AF
:102C4000047001F04BFD4FF4004001F0ABFC01209B
:102C5000ADF8040000208DF8070001A92E4800F00F
:102C6000D5FF2E4800F056FA002002908DF80C0097
:102C70008DF80D004FF46020049000200590012095
:102C80008DF8180002A9254800F06BFA01212348AD
:102C900000F092FA214800F0B1FA00BF1F4800F09E
:102CA000B2FA0028FAD11D4800F0B7FA00BF1B485D
:102CB00000F0B8FA0028FAD107B000BD10B50446FC
:102CC000072301222146154800F0E1FA01211348AB
:102CD00000F0B2FA00BF0221104800F001FC002809
:102CE000F9D00E4800F038FB10BD2DE9F041044644
:102CF0000D460026002708E02046FFF7DFFF0644C8
:102D0000052000F0A4F8781CC7B2AF42F4DBB6FB94
:102D1000F5F080B2BDE8F0810008014000240140D8
:102D200000B585B00121042001F0D8FC012148073D
:102D300001F0E1FC1020ADF8100000208DF8130028
:102D400003208DF8120004A9214800F05FFF102134
:102D50001F4801F003F8002000900190029002202B
:102D600003906946002001F0A4FA0121002001F03F
:102D7000BEFA0021084601F01FFB05B000BD7FB57B
:102D80000446204602F01DFC06461249304602F079
:102D9000E1FA06464FF08B41304602F017FC05463B
:102DA00002F024FACDE902010BA00CC8029801F050
:102DB000ADFECDE9000101F04FFE0646304602F0BF
:102DC000BBFB85B22946002001F0F6FA7FBD00006A
:102DD0000008014000007A446666666666660A403E
:102DE00010B56FF0040000F077F92A4800682A490E
:102DF000B0FBF1F029490870084600784FF47A7169
:102E000048432649891C088010BD244A1278424351
:102E10004FF0E0235A6100229A611A46126942F08B
:102E200001021A6100BF4FF0E022116911F0010F99
:102E300002D011F4803FF6D04FF0E022126922F068
:102E400001024FF0E0231A6100229A617047134A91
:102E5000921C128842434FF0E0235A6100229A618B
:102E60001A46126942F001021A6100BF4FF0E022D7
:102E7000116911F0010F02D011F4803FF6D04FF02C
:102E8000E022126922F001024FF0E0231A610022D1
:102E90009A6170470000002000127A001A0000209A
:102EA00010B54FF4A06000F0C5F810BD014600BF9A
:102EB000704700BF4B4A128812F0400FFAD0C2B2DE
:102EC000484B1B1D1A80704710B586B0044601217F
:102ED00044F2040001F002FC424800F0DBFF4FF432
:102EE0000070ADF8140003208DF8160018208DF83E
:102EF000170005A93C4800F089FE4FF48060ADF84A
:102F0000140004208DF8170005A9374800F07EFE54
:102F100025208DF8000003208DF801008DF80200B7
:102F200001208DF80300684600F089F80194002024
:102F3000ADF80800ADF80A00ADF80C00ADF81000CF
:102F40000C20ADF80E0001A9264800F0E6FF012292
:102F500040F22551234801F077F80121214801F082
:102F600067F806B010BD10B540F225511D4801F0BC
:102F700052F9002834D01B4801F0CDF8C4B21B48E8
:102F8000008810F4004F2BD11848008810F4804FAF
:102F90000CD00A2C03D000201449088020E01348EC
:102FA000008840F400401149088019E00D2C06D13A
:102FB0000E48008840F480400C49088010E00B481F
:102FC0000088C0F30D000A490C5408480088401CD2
:102FD0000649088008460088C72801DD00200880CF
:102FE00010BD000000380140000801402000002012
:102FF000460000200948804709480047FEE7FEE7F1
:10300000FEE7FEE7FEE7FEE7FEE7FEE7FEE7FEE798
:1030100004480549054A064B70470000D9050008D9
:1030200031010008700100207007002070030020AB
:103030007003002032490143324A1160704770B575
:10304000002100230F22C4780CB32E4C246804F412
:10305000E064C4F5E064210AC1F10403CA40447885
:1030600004FA03F18478144021430901264C0678C0
:10307000A155047804F01F050124AC4005786D11BA
:103080004FF0E02606EB8505C5F8004109E004781D
:1030900004F01F040125A5401C4C0678761144F865
:1030A000265070BD1A4A0A400243164B1B1F1A6075
:1030B000704741B1134A121D126802434FF0E023DA
:1030C000C3F8102D07E00F4A121D126882434FF01B
:1030D000E023C3F8102D7047042808D14FF0E021F9
:1030E000096941F004014FF0E022116107E04FF05F
:1030F000E021096921F004014FF0E02211617047DD
:103100000000FA050CED00E000E400E080E100E0E2
:1031100080FFFF1F10B50446F748844208D1012103
:10312000401501F0F5FA0021601501F0F1FA17E001
:10313000F248844208D10121001501F0E9FA00218A
:10314000201501F0E5FA0BE0ED48844208D1012199
:10315000C80301F0DDFA00214FF4004001F0D8FA75
:1031600010BD30B5002200234268E64C22400D79A4
:103170000C6844EA0524224342608268E24C224003
:10318000D1E902542C434D7944EA4504224382603C
:10319000C26A22F470020C7C641EE4B2234342EA49
:1031A0000352C26230BD0021016001714171816032
:1031B000C16001210174704721B1826842F00102AF
:1031C000826003E0826822F001028260704721B1D0
:1031D000826842F48072826003E0826822F4807226
:1031E0008260704710B50023CBB21AB144681C430B
:1031F000446002E044689C43446010BD816841F033
:10320000080181607047014600208A6812F0080FAB
:1032100001D0012000E000207047816841F00401E6
:1032200081607047014600208A6812F0040F01D0C7
:10323000012000E00020704721B1826842F4A00222
:10324000826003E0826822F4A00282607047014637
:1032500000208A6812F4800F01D0012000E00020D5
:10326000704710B500220023426822F460424B1ED2
:1032700042EA4332426010BD21B1426842F400622A
:10328000426003E0426822F4006242607047F0B599
:1032900000240025092911DDC468A1F10A0606EB06
:1032A0004607072606FA07F5AC43A1F10A0606EB26
:1032B000460603FA06F52C43C4600CE0046901EBF2
:1032C0004107072606FA07F5AC4301EB410603FA6E
:1032D00006F52C430461072A0FDA446B561E06EBF1
:1032E00086071F2606FA07F5AC43561E06EB860630
:1032F00001FA06F52C43446322E00D2A0FDA046B31
:10330000D61F06EB86071F2606FA07F5AC43D61F25
:1033100006EB860601FA06F52C43046310E0C46A46
:10332000A2F10D0606EB86071F2606FA07F5AC4349
:10333000A2F10D0606EB860601FA06F52C43C462DF
:10334000F0BD21B1826842F48012826003E082689D
:1033500022F48012826070470146C86C80B27047C8
:1033600065484C300068704721B1426842F4806281
:10337000426003E0426822F480624260704721B1FB
:10338000426842F48052426003E0426822F4805274
:10339000426070470022826822F4E0420A43826061
:1033A000704721B1826842F40042826003E0826883
:1033B00022F400428260704721B1826842F4021216
:1033C000826003E0826822F4021282607047014644
:1033D00000208A6812F4001F01D0012000E00020C4
:1033E0007047F0B5002400250026092911DDC468C6
:1033F000A1F10A0707EB470C072707FA0CF5AC43C6
:10340000A1F10A0707EB470703FA07F52C43C4604D
:103410000CE0046901EB410C072707FA0CF5AC43FB
:1034200001EB410703FA07F52C430461846BC4F3F5
:103430000156D71C06F1010CA7EB0C0707EB870C14
:103440001F2707FA0CF5AC43D71C06F1010CA7EBBC
:103450000C0707EB870701FA07F52C438463F0BDDF
:1034600010B500220023826B22F440124B1E42EA68
:103470000352826310BD10B50023034618460B4467
:103480001A6010BD0246002313461A4601F12800B7
:103490000344186880B27047002242681B4B1A40F0
:1034A0000A4342607047416282627047002242686C
:1034B00022F01F020A434260704740B10E490831B2
:1034C000096841F40001124AC2F8081407E00A49E9
:1034D0000831096821F400010D4AC2F80814704748
:1034E0000246002013680B4201D0012000E00020BA
:1034F0007047CA4302607047002401400028014021
:10350000003C0140FFFEF0FFFDF7F1FFFFFD3FFF34
:103510000020014070B502460020002300240B1259
:103520005568CEB205EA060415681D4202D00CB1FA
:10353000012000E0002070BD00220A12D343036086
:103540007047000030B943F2DB014FF0204242F8EF
:10355000201005E043F2D2014FF0204242F8201043
:103560006FF07042411C4FF0204343F82120114678
:103570001A4602EB8002C2F80411704710280AD1E3
:1035800018214FF020421166402151664FF0FC3166
:103590009166D16610E01821FA4A116040214FF07F
:1035A0002042C2F884104FF0FC31F64A0832116014
:1035B0004FF02042C2F88C1070471820F14920319A
:1035C000086000200906C1F8A4004FF0FC30ED4966
:1035D00028310860091D0860091D08607047D0E99E
:1035E00001121143C2681143026911434269114338
:1035F00082691143C2691143026A1143426A11434D
:10360000826A1143C26A1143026B11434FF0204397
:10361000026843F822108168082908D11A46016817
:1036200052F8211041F04001026843F82210416B2A
:103630000968426B526841EA0211426B926841EAA2
:103640000221426BD26841EA0241426B126941EAAF
:103650000251426B526941EA0261426B9269114325
:103660000268521C4FF0204343F82210C16AB1F5A2
:10367000804F1AD1816B0968826B526841EA02114E
:10368000826B926841EA0221826B126941EA02511F
:10369000826B526941EA0261826B9269114302684E
:1036A00003EB8202C2F8041108E06FF070414FF0A2
:1036B0002043026803EB8202C2F80411704730B560
:1036C000002100220023446844F0080485682C434C
:1036D000C5682C4305692C43456944EA452485693E
:1036E00044EA4531C4692468C5696D6844EA052423
:1036F000C569AD6844EA0544C569ED6844EA0562F8
:10370000046A2468056A6D6844EA0524056AAD68A0
:1037100044EA0544056AED6844EA05630468102C30
:1037200005D14FF020442166A266E36608E0954C7F
:1037300021604FF02044C4F88820924C0C34236060
:1037400030BD016841F01001426841EA42218268BF
:1037500041EA42318B4A20321160C1680968C2686F
:10376000526841EA0221C268926841EA0241C26895
:10377000D26841EA0261834A28321160016909680E
:103780000269526841EA02210269926841EA0241F3
:103790000269D26841EA02617A4A2C3211604169B9
:1037A00009684269526841EA02214269926841EA25
:1037B00002414269D26841EA02614FF02042C2F8F8
:1037C000B01070470021016002214160002181603A
:1037D000C160016141618161C16101624FF4805149
:1037E0004162490081620021C16201630F21426B85
:1037F0001160426B5160FF21426B91600F21426B5F
:10380000D160426B1161426B51610021426B916149
:103810000F21826B1160826B5160FF21826B91607E
:103820000F21826BD160826B1161826B516100212B
:10383000826B9161704710210160002141608160BD
:10384000C160016141618161FC21C2691160C2698D
:103850005160C2699160C269D160026A1160026AF6
:103860005160026A9160026AD16070470021016074
:1038700041608160FC21C2681160C2685160C26809
:103880009160C268D1600269116002695160026989
:1038900091600269D1604269116042695160426978
:1038A00091604269D160704751B14FF0204252F8A7
:1038B000202042F001024FF0204343F8202009E08D
:1038C0004FF0204252F820202F4B1A404FF0204357
:1038D00043F82020704799B1102808D14FF02042BA
:1038E000126E42F004024FF020431A661DE0254A92
:1038F000126842F004024FF02043C3F8802014E025
:10390000102809D14FF02042126E1F4BDB1E1A40C7
:103910004FF020431A6608E01A4A12681A4BDB1E61
:103920001A404FF02043C3F88020704748B1154932
:103930002031096841F004014FF02042C2F8A01084
:1039400009E01049203109680F4AD21E11404FF09A
:103950002042C2F8A0107047C1B1102808D14FF022
:103960002042126E42F040024FF020431A6620E0DF
:10397000044A126842F040024FF02043C3F880200E
:1039800017E00000800000A0FEFF0F00102808D103
:103990004FF02042126E6B4B1A404FF020431A66D4
:1039A00007E0694A1268674B1A404FF02043C3F89A
:1039B0008020704701460020102903D14FF020429B
:1039C000506F02E0604A14321068704710B5F2B1CF
:1039D000102807D14FF020435B6E0B434FF020447B
:1039E000636632E0B0F5807F08D1574B1B1D1B6822
:1039F0000B434FF02044C4F8843026E0524B24336C
:103A00001B680B434FF02044C4F8A4301DE010287D
:103A100007D14FF020435B6E8B434FF02044636629
:103A200013E0B0F5807F08D1474B1B1D1B688B430B
:103A30004FF02044C4F8843007E0434B24331B6824
:103A40008B434FF02044C4F8A43010BD10B503469A
:103A500000200022102B03D14FF02044626E09E0B9
:103A6000B3F5807F03D1384C241D226802E0364C28
:103A7000243422680A4201D0012000E0002010BD59
:103A8000102807D14FF02042526E8A434FF0204356
:103A90005A6613E0B0F5807F08D12B4A121D1268D8
:103AA0008A434FF02043C3F8842007E0264A24329B
:103AB00012688A434FF02043C3F8A420704770B5C2
:103AC00002460020002300240025102A03D14FF0D5
:103AD0002046736E09E0B2F5807F03D11A4E361D81
:103AE000336802E0184E2436336803EA010403EA1F
:103AF000D10514B10DB1012000E0002070BD1028E7
:103B000008D14FF02042526E22EAD1024FF02043FA
:103B10005A6615E0B0F5807F09D10B4A121D126874
:103B200022EAD1024FF02043C3F8842008E0064A7D
:103B30002432126822EAD1024FF02043C3F8A420B5
:103B400070470000BFFF0F00800000A010B50446C2
:103B5000C748844208D10121042000F0D9FD00218A
:103B6000042000F0D5FD46E0C248844208D101217E
:103B7000082000F0CDFD0021082000F0C9FD3AE04A
:103B8000BD48844208D10121102000F0C1FD002170
:103B9000102000F0BDFD2EE0B848844208D101217C
:103BA000202000F0B5FD0021202000F0B1FD22E032
:103BB000B348844208D10121402000F0A9FD002132
:103BC000402000F0A5FD16E0AE48844208D1012156
:103BD000802000F09DFD0021802000F099FD0AE08A
:103BE000A948844207D10121801500F091FD0021F0
:103BF000A01500F08DFD10BD10B50121084600F0A4
:103C000087FD0021012000F083FD10BDF0B50022EA
:103C10000023002400250026002791F803C00CF0A3
:103C20000F0291F803C01CF0100F03D091F802C0EE
:103C30004CEA0202B1F800C01CF0FF0F31D0066858
:103C400000242BE04FF0010C0CFA04F5B1F800C091
:103C50000CEA0503AB4220D1A5004FF00F0C0CFA83
:103C600005F7BE4302FA05FC4CEA060691F803C0CC
:103C7000BCF1280F06D14FF0010C0CFA04FCC0F87F
:103C800014C00AE091F803C0BCF1480F05D14FF011
:103C9000010C0CFA04FCC0F810C0641C082CD1D331
:103CA0000660B1F800C0BCF1FF0F34DD46680024A7
:103CB0002EE004F1080C4FF0010E0EFA0CF5B1F8ED
:103CC00000C00CEA0503AB4221D1A5004FF00F0C58
:103CD0000CFA05F7BE4302FA05FC4CEA060691F819
:103CE00003C0BCF1280F05D104F1080C0EFA0CFE3C
:103CF000C0F814E091F803C0BCF1480F07D104F1FB
:103D0000080C4FF0010E0EFA0CFEC0F810E0641C17
:103D1000082CCED34660F0BD4FF6FF710180022122
:103D200081700421C17070470246002093680B42E5
:103D300001D0012000E0002070470146886880B271
:103D4000704702460020D3680B4201D0012000E0FA
:103D5000002070470146C86880B270470161704713
:103D6000416170470AB1016100E041617047C16083
:103D700070474FF480320A438261816182618269B7
:103D8000826970470022414B1A684FF680731A40CF
:103D900042EA00120A433D4B1A6070473C49C86131
:103DA0007047F0B5002200230024002500F00046F3
:103DB000B6F1004F02D1354EF46901E0334E74681C
:103DC000C0F3034582B200F44016B6F5401F08D197
:103DD00024F070642D4E766826F070662B4F7E605E
:103DE00012E000F48016B6F5801F06D1032606FA0D
:103DF00005F39C4344F0706406E0460D360102FA78
:103E000006F6B44344F0706421B1460D360102FA5F
:103E100006F6344300F00046B6F1004F02D11B4EC7
:103E2000F46101E0194E7460F0BD30B500228B07DB
:103E30001C0F0F2303FA04F2144B08338C1053F8B1
:103E4000244094438D1043F825408C1053F82430BF
:103E50008C07240F00FA04F423430C4C08348D1013
:103E600044F8253030BD0A49DC3108607047000055
:103E700000080140000C0140001001400014014006
:103E800000180140001C01400020014000000140DA
:103E90000000204210B50446FB48844209D10121AC
:103EA000880300F035FC00214FF4804000F030FC26
:103EB00032E0F648844209D10121480400F035FC83
:103EC00000214FF4003000F030FC25E0F04884423F
:103ED00009D10121880400F028FC00214FF4802042
:103EE00000F023FC18E0EB48844209D10121C8040A
:103EF00000F01BFC00214FF4002000F016FC0BE04A
:103F0000E548844208D10121080500F00EFC00219B
:103F10004FF4801000F009FC10BD2DE9F04786B089
:103F200004460D460026002700BFB146B246A889C8
:103F300000B100BFA246268A4CF6FF700640E88812
:103F400006432682A6894EF6F3100640A8882989E2
:103F50000843698908430643A681A68A4FF6FF40B5
:103F60000640A8890643A68201A800F049FB5446F2
:103F7000C548824501D1049F00E0039FA08910F449
:103F8000004F08D007EBC70000EB07102968490075
:103F9000B0FBF1F807E007EBC70000EB071029685A
:103FA0008900B0FBF1F86420B8FBF0F0060130099D
:103FB000642101FB1089A08910F4004F09D032213F
:103FC00001EBC9006421B0FBF1F000F007000643EB
:103FD00008E0322101EB09106421B0FBF1F000F0A0
:103FE0000F000643268106B0BDE8F0874FF4165156
:103FF000016000218180C18001810C21418100216B
:104000008181704710B50022028A4FF2FF031A40E7
:104010000B884C8823438C882343CC8823431A4342
:10402000028210BD0021018041808180C1807047E3
:1040300021B1828942F40052828104E082894DF6E6
:10404000FF731A4082817047F0B5002400250026D6
:104050000023A1F510676A3F00D100BF0346C1F3FA
:10406000421401F01F05012707FA05F6012C01D1C2
:104070000C3304E0022C01D1103300E014331AB1E8
:104080001F6837431F6002E01F68B7431F60F0BD21
:1040900010B51AB1838A0B43838204E0838ACC4330
:1040A000A4B22340838210BD028A4FF6F0731A40F7
:1040B0000282028A0A430282704782894FF2FF73AA
:1040C0001A40828182890A438281704721B18289A4
:1040D00042F00202828104E082894FF6FD731A40A9
:1040E00082817047028A4FF6DF731A400282028A89
:1040F0000A430282704721B1028A42F4804202825E
:1041000004E0028A4BF6FF731A4002827047C1F343
:1041100008028280704701468888C0F30800704713
:10412000818941F0010181817047028BD2B2028303
:10413000028B42EA012202837047028B02F47F4223
:104140000283028B0A430283704721B1828A42F0C4
:104150002002828204E0828A4FF6DF731A40828254
:10416000704721B1828A42F01002828204E0828A82
:104170004FF6EF731A408282704721B1828A42F073
:104180000802828204E0828A4FF6F7731A40828224
:10419000704721B1828942F40042828103E0828922
:1041A000C2F30E028281704721B1828A42F400621A
:1041B000828204E0828A4FF2FF731A408282704743
:1041C000828A4FF6FB731A408282828A0A43828275
:1041D000704721B1828A42F00202828204E0828A20
:1041E0004FF6FD731A408282704702460020B1F5F7
:1041F000007F00D100BF13880B4201D0012000E0F6
:104200000020704701F40072B2F5007F00D100BFBA
:10421000CA430280704770B502460023002400257F
:104220000020A1F510666A3E00D100BFC1F342151F
:1042300001F01F04012606FA04F4012D02D196892B
:10424000344006E0022D02D1168A344001E0968AFD
:1042500034400B12012606FA03F31688334014B1DA
:104260000BB1012000E0002070BD10B5002200233A
:10427000A1F510646A3C00D100BF0A1201249440E9
:10428000A3B2DC43048010BD00380140004400406C
:1042900000480040004C00400050004010B5012193
:1042A000480700F042FA00214FF0005000F03DFABC
:1042B00010BD30B500220023534C226840F6FE7436
:1042C0008440A243D1E900452C438D682C43CD683E
:1042D00044EA050303FA00F422434C4CC4F80024DA
:1042E00030BD0021016041608160C160704741B113
:1042F000454A1368012282401343444AC2F80034FD
:1043000007E0414A13680122824093433F4AC2F8C2
:104310000034704741B13C4A136892148240134301
:104320003A4AC2F8003407E0374A136892148240D0
:104330009343364AC2F80034704710B551B1324A3F
:10434000121D136804090122A24013432F4AC2F828
:10435000043409E02C4A121D126804090123A34009
:104360009A432A4BC3F8042410BD40B12649091DC5
:10437000096841F00301254AC2F8041407E0224904
:10438000091D096821F00301204AC2F8041470478E
:1043900010B542B11C4B1B6801FA00F423431B4CBF
:1043A000C4F8003407E0184B1B6801FA00F4A3437B
:1043B000164CC4F8003410BD0022134A00F1080363
:1043C0001A441160704700220F4A00F114031A4486
:1043D0001160704730B500230024082802D142EA5A
:1043E000012301E042EA0143074C00F120052C447F
:1043F000236030BD01460022034A2C2000EB9100CF
:104400000244106880B270470074004000700040A1
:10441000DB48006840F00100D94908600846406860
:10442000D8490840D649486008460068D64908403F
:10443000D34908600846006820F4802008600846D8
:10444000406820F4FE0048604FF41F008860704709
:10445000CB49096821F48031C94A116011460968C5
:1044600021F480211160B0F5803F03D0B0F5802F9A
:104470000ED106E0C249096841F48031C04A11609A
:1044800007E0BF49096841F4A021BD4A116000E07E
:1044900000BF00BF704710B5014600220023002076
:1044A0004A11012A02D1B64C236806E0022A02D141
:1044B000B34C236A01E0B24C636A01F01F0201248D
:1044C00094401C4201D0012000E0002010BD70B5D6
:1044D00000240025002600BF3120FFF7DCFF064640
:1044E000641CB4F5A06F01D0002EF5D03120FFF789
:1044F000D2FF08B1012500E00025284670BD00214B
:104500009F4A116821F0F80141EAC001116070472B
:104510009E49086070470022994B5A6822F47C1229
:1045200040EA01031A43964B5A6070479749086660
:1045300070470021924A516821F003010143516004
:1045400070478F48406800F00C00704700218C4A8B
:10455000516821F0F0010143516070470021884A01
:10456000516821F4E0610143516070470021844AA1
:10457000516821F4605141EAC0015160704729B18E
:104580007F4A527A02437E4B5A7206E07C4A527A44
:10459000C343DBB21A407A4B5A7270477B49D83119
:1045A000086070470021764A516821F44041014378
:1045B000516070470021724A20321170704A82F8AF
:1045C0002010012802D004280AD104E001216C4AFD
:1045D0002032117005E00521694A2032117000E097
:1045E00000BF00BF70476A49086070476449096AA4
:1045F0000143634A11627047654944390860704756
:1046000030B500210022002300245D4D6D6805F0C7
:104610000C0121B1042905D0082923D105E05D4D05
:10462000056022E05B4D05601FE0554D6D6805F4A7
:104630007012534D6D6805F48033022505EB9242EC
:104640001BB9554D554305600BE04D4D6D6815F494
:10465000003F03D0504D5543056002E04D4D55439A
:10466000056002E04B4D056000BF00BF444D6D6822
:1046700005F0F0010909494D6C5C0568E5404560AD
:104680003F4D6D6805F4E061090A444D6C5C456876
:10469000E54085603A4D6D6805F46051C90A3F4DAB
:1046A0006C5C4568E540C560354D6D6805F440417A
:1046B000890B3A4D10356C5CC568B5FBF4F50561A6
:1046C00030BD29B12E4A526902432D4B5A6104E094
:1046D0002B4A526982432A4B5A61704729B1284AB2
:1046E00092690243264B9A6104E0254A926982430B
:1046F000234B9A61704729B1214AD2690243204B6A
:10470000DA6104E01E4AD26982431D4BDA617047C8
:1047100029B11B4AD2680243194BDA6004E0184AF7
:10472000D2688243164BDA60704729B1144A126985
:104730000243134B1A6104E0114A12698243104B81
:104740001A61704712494039086070470F49C864C0
:1047500070470B49C87170470948406A40F0807043
:1047600007494862704701460020054A92680A429C
:1047700001D0012000E00020704701498872704795
:10478000001002400000FFF8FFFFF6FE000042426A
:104790008004424200127A0000093D0028000020F7
:1047A000704700000FB4054A054910B503AB7944C2
:1047B000029800F006F910BC5DF814FB24000020FC
:1047C00001E7FFFF2DE9F04104460E4600202BE0F3
:1047D000E1682046884748B3252802D0D4E9012162
:1047E0001FE0E16820460027884705001ED0A5F19C
:1047F0004100192802D820354FF400673246294677
:1048000020462760FBF7CEFC40B1012801D1361DC0
:10481000DEE7F61D26F007060836D9E7D4E90121C0
:1048200028469047206A401C2062D1E7206ABDE8F4
:10483000F08100002DE9F0418046002610687529BE
:10484000414614A511D0AFF30080002802DA40429F
:1048500011A508E0D8F800108A0701D50FA502E0DD
:10486000490704D50EA5012601E0AFF3008000241E
:1048700008F1240704E000F0B7F830313955641C22
:104880000028F8D133462A4621464046BDE8F0418B
:1048900000F03AB8000000002D0000002B000000DE
:1048A0002000000070B504460D4621461068AFF3A5
:1048B00000802168090502D5104A7A4402E00F4AB7
:1048C0007A440E32002104F1240306E000F00F06C2
:1048D0004FEA1010965D5E54491C0028F6D12068FE
:1048E0000023000704D5702D02D009B11132022334
:1048F0002046BDE8704000F007B80000181B00001B
:1049000070477047704770472DE9F0470D460446E1
:104910009246994600F124080168880604D5E069AA
:1049200021F01001216000E001200027A84200DDF5
:10493000471BA1697A1902EB0900081AA0612068D7
:10494000C00602D42046AFF30080002608E0D4E978
:1049500001211AF806009047206A401C761C20624C
:104960004E45F4DB2068C0060AD52046AFF3008030
:1049700006E0D4E9012130209047206A401C2062E3
:10498000381EA7F10107F4DC07E0D4E9012118F88B
:1049900005009047206A401C2062281EA5F10105F1
:1049A000F3DC2046AFF3008021680220090600D422
:1049B0000120BDE8F087000001694A1C0261087807
:1049C000704710B50C46194690B0CDE9024200225E
:1049D0000692044A7A44CDE9042001A8FFF7F2FECA
:1049E00010B010BDE1FFFFFF4FF00A01B0FBF1F284
:1049F00002FB110110467047754600F029F8AE46DB
:104A000005006946534620F00700854618B020B5DA
:104A1000FEF7FEFABDE820404FF000064FF0000719
:104A20004FF000084FF0000B21F00701AC46ACE856
:104A3000C009ACE8C009ACE8C009ACE8C0098D46C3
:104A400070470446AFF300802046FBF7C2FB00002E
:104A5000004870471001002001F0004321F00041A0
:104A600081EA410212F0FE4F08BF12F4600F00F01D
:104A70002880A1F16051B1F5801F1BDB02014FF0CE
:104A8000404C09D803D208BF4FF0000C0AE000F0F8
:104A900000521CEB820C05D410F100504FF0804CFA
:104AA00041F10001B1F17F6F06DA43EAC10343EA45
:104AB00050707047184670474FF0FF0243EAC250EB
:104AC000704711F4801F01D118467047DFF818C0F5
:104AD00041EA030150EA013240F01080AFF3008058
:104AE00021F4E000704700008800000402494FF004
:104AF000000000F0F4BE00000000F87F02494FF013
:104B0000000000F0ECBE00000000F87F70B5DFF898
:104B1000ECC33CEA111418BF3CEA131400F09B806C
:104B200081EA03050CEA111444EAD5741CEA131552
:104B300018BF11EA0C1F00F074804FEAC1214FEA40
:104B4000C32341EA505143EA5253A4EB050404F154
:104B50007F7441F0004143F000434FEAC0204FEA28
:104B6000C22200F0A9F846054FEAD02003EB244307
:104B700040EA41504FEAD12101EB035282EAC4716D
:104B800016D05FEA460E38BF4FF0404610D314BF30
:104B900000234FF0004350F1000041F1000110EA02
:104BA000D37F4FF0804620EAD37018BF4FF04046C5
:104BB00091EAC47FDFF848E316D412EA0E0F18BF5B
:104BC0003EEA010E10D070BDE50754BF1EF4000F81
:104BD0001EF4800F0ABF4FF080464FF0404610F1A0
:104BE000010041F10001E3E7B4F1806FDEBF01F1A4
:104BF000C04101F00041002000DC70BDA8BFA1F160
:104C0000C04146F0140CA8BF4CF0805CBDE8704079
:104C10006FF0000041EA500181EA10314FF00000CE
:104C2000704711EA0C1F00D00AE013EA0C1F00F0D5
:104C30003D804FF0000081EA030101F0004170BDAA
:104C40006FF0000081EA030141EA500181EA10316E
:104C50004FF0000070BD4FEA410EBEEB4C1F4FEA13
:104C6000430508BF002898BFB5EB4C1F08BF002ABA
:104C7000BDE87040DFF88CC23FF638AFAFF300807C
:104C80004FF4001C1CEB410F09D11CEB430F0FD05C
:104C90004B4021F0004148BF41F0004170474FF0C8
:104CA000000081EA030303F000417047BDE8704053
:104CB0004FF0000094497047E0B5054610B40C462B
:104CC0000FF238114FEA430C4FF0010E4FEA9C6C83
:104CD00051F82CC04FF00001ACFB02604FF0000611
:104CE000ECFB0301001841EB0101301A66EB0101F6
:104CF000E1FB0C6C4FF00001ACFB02604FF00006D2
:104D0000ECFB0301001841EB0101301A66EB0101D5
:104D1000E1FB0C6C4FF00001ACFB0560ECFB040107
:104D2000A2FB0167E3FB006E17EB0E074FF0000ECE
:104D3000E3FB017E4EF1000EB6197F414EEB0E0EE5
:104D4000764275EB070764EB0E0EECFB0E01ACFB35
:104D500007E64FF0000E801941F10001A2FB006749
:104D6000B619E2FB017EE3FB007E7F4103FB01EE0F
:104D70004EEB0E0E76424FF0000676EB070765EB22
:104D80000E0EACFB0E674FF0000E4FEA857C4FEA2B
:104D90009505C01941F1000145EA847549084FEABB
:104DA0003000A2FB00677642E2FB017EE3FB007E5F
:104DB0007CEB070703FB01EE65EB0E0EB51A77EBF4
:104DC00003047EF1000E24BF2E46274650F100005A
:104DD00041F10001012E38BF012F404141EB01019B
:104DE00011F0004F18BF022301D0F0BC00BDF0BC91
:104DF0004FF00103001841EB010100BDFCC00FFCA6
:104E0000830F3EF85F8D89F4F0F0F0F0B50373ED99
:104E1000EAA00EEA48B4C2E6E3388EE31C3870E03C
:104E2000A6C867DDA70D74DAE53594D7037BC7D430
:104E3000D2200DD2A87464CFCCCCCCCCE68745CAA6
:104E40007C0CCEC77BC865C5C3300CC3C0C0C0C016
:104E50000BFA82BE0B6452BCA28B2EBAE00217B8CA
:104E6000B6600BB6B4400BB4C84216B2020B2CB0FD
:104E70005C414CAE849176ACAAAAAAAA573FE8A896
:104E800039052FA702B57EA53D0AD7A32BC337A2AC
:104E9000A0A0A0A0E765119F9DD8899D9CC0099CFA
:104EA000D9E7909A511A1F99ED25B4976CDA4F966D
:104EB0004F09F294C4859A939224499209BCFD90BB
:104EC000EE23B88F6D35788E08CB3D8D8CC0088C65
:104ED000FBF2D88A8940AE89888888885FAB67876B
:104EE0007D8A4B865308348542082184976E12834D
:104EF0008220088208040281000000800000FF0771
:104F00000000F07F140000040000F87F10F0004360
:104F100014BF4142014643F08043B1FA81FC03F1E2
:104F2000F87311FA0CF1A3EB0C534FEA415008BF90
:104F3000704703EBE1217047DFF8B4C170B53CEA7C
:104F4000111E18BF3CEA131E00F0A68081EA03057B
:104F50000CEA111E4EEAD57E1CEA131518BF11EAA1
:104F60000C1F00F08F80AE4421EA4C1123EA4C1351
:104F7000AEF17F7E41F4801143F48013A1FB024C1B
:104F8000A0FB0365361955EB0C05A1FB034C4CF156
:104F90000003A0FB021C16EB0C06654153F1000355
:104FA000094218BF46F001064FF0140CB3F5007F1C
:104FB0004CF1000CCCF1200425FA0CF203FA04F1B8
:104FC00041EA020105FA04F026FA0CF240EA020076
:104FD0006FF0030242EB2E4216FA04F401EB025585
:104FE00085EACE7115D05FEA440C38BF4FF04044DB
:104FF0000FD308BF43F0004350F1000041F100011E
:1050000010EAD37F4FF0804420EAD37018BF4FF0EE
:10501000404415F0004FDFF8DCC017D415EA0C0F40
:1050200018BF3CEA010C11D070BD5FEACE7454BFCA
:105030001CF4000F1CF4800F0ABF4FF080444FF0A7
:10504000404410F1010041F10001E2E7BEF1806F40
:10505000A2BFA1F1C04144F0130C4CF0805CBDE84C
:10506000704006DA4FF0000001F1C04101F000414C
:1050700070476FF0000041EA500181EA10314FF0B3
:10508000000070474FEACE714FF0000070BD4FEA4C
:10509000CE714FF0000070BD4FEA4105B5EB4C1FDB
:1050A0004FEA430608BF002898BFB6EB4C1F08BF65
:1050B000002ABDE87040DFF840C03FF617ADAFF3FF
:1050C00000804FF4001CBCEB410F98BFBCEB430FBA
:1050D0000AD84FF0000081EA030101F0004141F0DD
:1050E000FE4141F47001704704494FF000007047E1
:1050F0000000FF070000F07F130000040000F87FAD
:10510000094248BF4CF4803C4FF4C0634FEA11524F
:1051100003F1010321EA025122F400629A1A48BF06
:105120006FF0FE0241F48011352A3CD830D0152AA8
:105130001ED3203A0CD90028C2F1200321FA02F034
:1051400001FA03F218BF42F001024FF0000130E013
:10515000C2F1000302F1200201FA03F120FA02F287
:1051600041EA020100FA03F208464FF0000120E094
:10517000C2F1200310B400FA03F401FA03F320FA99
:1051800002F021FA02F1224610BC43EA000010E0CE
:1051900050EA01324FF000004FF000014FF00042A2
:1051A00018BF521C05E04FF001024FF000014FF014
:1051B00000001CF4803F2CF4803C18BF41F00041FB
:1051C000124208BF7047520003D303D0401C41F184
:1051D000000170475FEAAC72F8D4FAD1401C41F18B
:1051E000000120F00100F4E77047704700F5000C63
:1051F0001CF0FE4F09D0C1104FEA407001F1605120
:1052000058BF7047A1F1E04170471CF4000F08D06F
:105210000146400008BF70474FF000004FEA3001E0
:105220007047DFF814C0420240F08E80AFF3008078
:1052300040F4E001104670471800000490EA010FA6
:1052400048BF81F0004100F17C82421A3CBF801AC5
:1052500089184FEAD0524FF07F4C1CEA410FA2EB65
:10526000D15318BF9CEA026F00F040804FF0004C11
:105270004CEA00204CEA012121FA03FC10EB0C0C53
:1052800023D202F1FF325FEA1C2040EBC25038BF4C
:1052900070471CF07F0F4FEA400C18BFBCF17F4FE6
:1052A00038BF7047C3F12003994008BF20F00100C8
:1052B000BCF17F4F38BF7047A0F1C0404FF0FF01F5
:1052C00041EAD0514FEAC15070474FEA3C00000A12
:1052D00040EBC25028BF1CF0FF0F4FEA400CE1D05A
:1052E00018BFBCF17F4F38BF7047E5E79CEA026FFB
:1052F00005D010EA5C0F08BF00F000407047BCEB1F
:10530000410F4FEA400228BF9445DFF828C0C0F0A3
:105310001580AFF30080B2EB410F05D012F1807F12
:1053200008BF70470846704790EA010F58BF7047A2
:1053300001487047010000040000C07F014800F0F0
:10534000CEBA00000000C07F014800F0C8BA0000DB
:105350000000C07F4FF47F0C1CEAD0121EBF1CEA75
:10536000D11392EA0C0F93EA0C0F00F0A58090EA9B
:10537000010F48BF42F4807240F4000C41F4000079
:105380002CF07F4120F07F4000B58142A2EB030268
:105390000FF2401CACEB504EC0F100009EF800E054
:1053A0004FEA4E0E00FB0EFC38BF49004FEA2C1CA2
:1053B00002F5FA020CFB0EF34FEACE1E4FEA112C57
:1053C0004FEAC1210EEB635E0EFB0CFC4FEA1C534F
:1053D00000FB03114FEA112C4FEA01310EFB0CFCCC
:1053E00002F4807E42EB22424FEADC4C00FB0C11BF
:1053F000C14228BF09184CEB0333012924BF4EF0EA
:10540000020E4EF0804E10EB410F24BF4EF0010E05
:105410004EF0804E08BF4EF0040E4EF008015DF8CD
:1054200004EB43EBC25018BFB2F57C0F38BF704796
:1054300041EAC07108BF20F00100B2F57C0F38BF0F
:10544000704729D512F0F00F1CBF00F1C04000F0EA
:1054500000407047008182838485868788898B8C91
:105460008D8E8F919293959697999A9C9D9FA0A2CD
:10547000A3A5A7A8AAACAEB0B2B3B5B7B9BCBEC01D
:10548000C2C5C7C9CCCED1D4D7D9DCDFE2E6E9ECBE
:10549000F0F3F7FAFE0000004FEA400C0CF1807CBC
:1054A000BCF17E4F28BF7047B0F1C0404FF07F4045
:1054B0004CBF40104008704790EA010F0CEAD1132E
:1054C00048BF42F48072624538BF634507D213F487
:1054D0007F0F23D080EA010000F0004070474FF0BA
:1054E000807C1CEB400F98BF1CEB410FDFF840C0E5
:1054F0003FF624AFAFF300804FF0807C1CEB400FF1
:1055000002BF1CEB410F0B4870471CEB410F0CBF57
:10551000002020F0004040EAC250704712F47F0F94
:1055200004BF0448704742F0FF004FEAC050704784
:10553000040000040000C07FC2154FEA002318BF1A
:1055400043F0004305D4D2F19E020AD323FA02F0BD
:1055500070474FEA4001B1F1FE4F02D24FF0000018
:105560007047DFF828C04FEA4001B1F17F4F88BF94
:105570004CF4803C3FF6E8AE1CBF6FEAE070704729
:10558000AFF300806FEAE07070470000680002042B
:1055900010F0004218BF404242F08042B0FA80F161
:1055A0008840A2EBC15202F1786208BF7047410601
:1055B00042EB202018BF5FF0806C28BF20F0010074
:1055C00070474FF08042FFF7E9BF00004FF47F0CB7
:1055D0001CEAD0121EBF1CEAD11392EA0C0F93EA08
:1055E0000C0F00F04A8090EA010F48BF42F480722D
:1055F0004FF0004C4CEA00204CEA01211A44A0FB79
:1056000001C3A2F50002BCF1000F18BF43F0010373
:1056100002F4807CB3F1004F38BF5B0042EB2242C2
:10562000180A40EBC25028BF13F07F0F18BFB2F525
:105630007C0F38BF704708BF20F00100B2F57C0F27
:1056400038BF70470BD582F0FF0212F5803FC8BF0C
:10565000704700F1C040D8BF00F00040704700F52F
:10566000000C5FEA4C0C48BF7047B0F1C0404FF0EF
:105670007F404CBF40104008704790EA010F0CEA91
:10568000D11348BF42F48072624538BF634504D2EB
:1056900080EA010000F0004070474FF0807C1CEB76
:1056A000400F98BF1CEB410F4FF0030C4CF0806C87
:1056B0003FF644AEAFF3008012F47F0F1FBF13F428
:1056C0007F0F42F0FF02D00570470148704700008D
:1056D0000000C07F10B412F47F0F4FEA00204FEAA1
:1056E000012110D1B0FA80F400FA04F0A2EB0442D8
:1056F00013F47F0F02F5803218BF41F0004100D053
:1057000010BC18BF604740F00040B1FA81F401FAC4
:1057100004F1A3EB044310BC03F58033604780F031
:10572000004090EA010F7FF590AD81F0004100F05C
:1057300008B8000090EA010F48BF81F000413FF532
:1057400084AD421A3EBF82F00042801A89184FEAA7
:10575000D0524FF07F4C1CEA410FA2EBD15318BF3F
:105760009CEA026F4FD04FF0004C4CEA00204CEA0C
:10577000012121FA03FCB0EB0C0C0FD412F0FE0F48
:1057800018BF5FEA4C001DD5001240EBC25038BF75
:1057900070471CF03F0F18BF70470BE0A2F10102E9
:1057A0005FEA1C2040EBC25038BF70471CF07F0FEF
:1057B00018BF7047C3F12003994014BF401E20F06A
:1057C000010070474FEA122316D0004204BF0020A8
:1057D00070474FEA9000B0FA80FCA2EB0C02CCF1CB
:1057E000280C60FA0CF093EA122F04BF00EBC250B1
:1057F00070474FEAC37070475FEADC1008BF70471C
:105800004FEAC37070479CEA026F04D010EA5C0F45
:1058100008BF00207047BCEB410F4FEA400228BF91
:105820009445DFF82CC0FFF489ADAFF30080B2EBF4
:10583000410F06D012F1807F08BF704781F0004011
:10584000704790EA010F48BF704702487047000058
:10585000020000040000C07F00F0004343EAD05380
:1058600023F48073C3F1C10323F0004117291FD82B
:10587000C3F1200310FA03F1C3F1200320F07F40AD
:1058800040F4000020FA03F003F0004340EA030074
:105890000DD00B46590009D318BF401C06D17FEA32
:1058A000E27398BF401C38BF20F00100704770477A
:1058B000182903EB912318BF6FF00041013168BF35
:1058C00003F0004009D6400203F0004000F101005F
:1058D00004BF12F0004F20F00100704770470CF039
:1058E0000F03092B08BF082000F02B800A2B0BD0D8
:1058F000082B18BF704708BF1CF0400F0AD04FF0AC
:1059000000004FF0000170471CF0400F18BF4FF02F
:10591000004070471CF0100F08D020F0704300F0DA
:105920007F4242EAD3014FEA4370704700F0604083
:1059300021F07F4242EA000201F07F4040EA7270AB
:1059400070471CF4801F11D01CF4E02F03D06FEAC5
:10595000CC31490070474FF04050EFF3008222F005
:10596000704242EA000282F3008870474FF0000064
:105970007047000000000000000000000000000070
:1059800000003F4000000000000000003000400028
:1059900030004000000009000BC03D000BC03D007E
:1059A000090018C024407FE0224031800000180028
:1059B00024C01B000D803240018003801C40274022
:1059C0001C80074000401000600000000000000044
:1059D00000000000000000001F8020404020000068
:1059E000402020401F8000000000090006001F80AA
:1059F000060009000000040004003F8004000400C9
:105A00000000001000600000000000000000040022
:105A10000400040004000400000000000040000036
:105A2000000000000000002001C006003800400017
:105A300000001F802040204020401F800000000008
:105A400010403FC000400000000018C0214022402C
:105A500024401840000010802040244024401B8037
:105A6000000002000D0011003FC0014000003C801A
:105A7000244024402440238000001F8024402440F0
:105A80003440038000003000200027C03800200090
:105A900000001B802440244024401B8000001C0088
:105AA00022C0224022401F80000000000000084069
:105AB0000000000000000000000004600000000082
:105AC0000000000004000A0011002080404009008E
:105AD0000900090009000900000000004040208082
