:020000040800F2
:10000000700700208D2C000871030008730300089E
:10001000770300087B0300087F030008000000004E
:100020000000000000000000000000008303000842
:10003000850300080000000087030008890300080A
:10004000A72C0008A72C0008A72C0008A72C000844
:10005000A72C0008A72C0008A72C0008A72C000834
:10006000A72C0008A72C0008A72C0008A72C000824
:10007000A72C0008A72C0008A72C0008A72C000814
:10008000A72C0008A72C0008A72C0008A72C000804
:10009000A72C0008A72C0008A72C0008A72C0008F4
:1000A000A72C0008A72C0008A72C0008A72C0008E4
:1000B000A72C0008A72C0008A72C0008A72C0008D4
:1000C000A72C0008A72C0008A72C0008A72C0008C4
:1000D000A72C0008FF2B0008A72C0008A72C00085D
:1000E000A72C0008A72C0008A72C0008A72C0008A4
:1000F000A72C0008A72C0008A72C0008A72C000894
:10010000A72C0008A72C0008A72C0008A72C000883
:10011000A72C0008A72C0008A72C0008A72C000873
:10012000A72C0008A72C0008A72C0008A72C000863
:1001300000F002F800F041F80AA090E8000C8244B8
:100140008344AAF10107DA4501D100F036F8AFF295
:10015000090EBAE80F0013F0010F18BFFB1A43F0A5
:10016000010318471860000038600000103A24BFEF
:1001700078C878C1FAD8520724BF30C830C144BF0C
:1001800004680C607047000000230024002500264E
:10019000103A28BF78C1FBD8520728BF30C148BFEA
:1001A0000B607047692904F0D780002070471FB5A5
:1001B000AFF300801FBD10B510BD04F081F91146EA
:1001C000FFF7F5FF00F006F804F09FF9FFF7F3FFE3
:1001D00002F0B8FC2DE9F04387B04FF0FF3600275E
:1001E0004FF0000802F048FC02F0A6FC4FF4165055
:1001F00002F0B6FC02F016FC00F00BFD012000F04E
:100200007CFC4FF478404C49088000F0A3F9300C96
:1002100000F0EAFC012000F070FC8BE00A210846A7
:1002200000F0F1F90446214644A004F04DF8761C94
:10023000B6F5A07F04DB00264FF6FF7000F0D4FC7B
:10024000204604F007FDCDE904013DA00CC8049848
:1002500004F09CFACDE902013BA00CC8029804F01E
:10026000E3FDCDE9000104F091FC07464FF478402E
:1002700031490880BBB2701C82B21FFA88F1B0B25B
:1002800002F048F91F202C49088031A31022CDE943
:1002900000231346C8220121084602F084FB2046B1
:1002A00005F061F8814604F065FFCDE904012CA05A
:1002B0000CC8049804F0D4FCCDE9020104F030F934
:1002C0000546284605F00AF884B2284605F006F8E7
:1002D000814600231022CDE900230123024619465E
:1002E000412002F0FCFA204605F03DF881462946FF
:1002F00005F0E7F805461C49284605F039F805469B
:10030000284604F0EBFF814680231022CDE900232C
:10031000032302460121512002F0E1FA134800684C
:1003200008B9012000E0002010490860B8461420F8
:1003300002F0D9FB72E700001400002025692C00B0
:100340009A999999991931400000000000006E4077
:100350004144435F564F4C3A302E30303056000007
:100360006666666666664A3F00007A4480012342FC
:10037000704700BFFEE700BFFEE700BFFEE700BF1B
:10038000FEE770477047704770470000002000216B
:10039000674A126842F48032654B1A6000BF644AB3
:1003A000126802F40031401C11B9B0F5A06FF6D10B
:1003B0005F4A126812F4003F01D0012100E00021E1
:1003C000012942D15B4A126842F01002594B1A606F
:1003D0001A46126822F003021A601A46126842F0A6
:1003E00002021A60524A5268514B5A601A465268C9
:1003F0005A601A46526842F480625A601A4652683D
:1004000022F47C125A601A46526842F4E8125A608A
:100410001A46126842F080721A6000BF444A12689D
:1004200012F0007FFAD0424A526822F00302404B99
:100430005A601A46526842F002025A6000BF3C4AB3
:10044000526802F00C02082AF9D1704710B5FFF784
:100450009DFF10BD10B53648006840F001003449DA
:1004600008600846406834490840314948600846F9
:100470000068324908402E4908600846006820F4A8
:10048000802008600846406820F4FE0048604FF471
:100490001F008860FFF7DAFF4FF00060284908600E
:1004A00010BD10B5002000210022214B5B6803F035
:1004B0000C0020B1042806D0082828D107E0214BE1
:1004C000214C236027E01F4B1F4C236023E0184B77
:1004D0005B6803F47011164B5B6803F480320223EF
:1004E00003EB914122B9194B4B43174C23600DE0AC
:1004F0000F4B5B6813F4003F04D0144B4B43124C7A
:10050000236003E00F4B4B430F4C236003E00D4B84
:100510000D4C236000BF00BF054B5B68C3F30313A2
:100520000B4CE05C084B1B68C340074C236010BDBC
:1005300000100240002002400000FFF8FFFFF6FE1E
:1005400008ED00E000127A000000002000093D00E4
:100550000400002000B587B001214FF4047003F0BF
:100560004BFC4FF4004003F0ABFB0220ADF804005D
:1005700000208DF8070001A92E4803F093F92E48BA
:1005800002F014FC002002908DF80C008DF80D0094
:100590004FF4602004900020059001208DF8180091
:1005A00002A9254802F029FC0121234802F050FC51
:1005B000214802F06FFC00BF1F4802F070FC0028C9
:1005C000FAD11D4802F075FC00BF1B4802F076FC12
:1005D0000028FAD107B000BD10B504460723012258
:1005E0002146154802F09FFC0121134802F070FCDF
:1005F00000BF0221104802F0BFFD0028F9D00E48CC
:1006000002F0F6FC10BD2DE9F04104460D4600262F
:10061000002708E02046FFF7DFFF0644052002F030
:1006200062FA781CC7B2AF42F4DBB6FBF5F080B2D9
:10063000BDE8F0810010014000240140F949088024
:100640007047F849891C08807047F648801C00886C
:100650007047F44A10804FF0D842A2F80018704753
:1006600010B504462046FFF7E9FF052002F019FA0D
:10067000FFF7EBFF10BDEC48C079EA4908807047EE
:10068000E849891C0880704730B5014601F01F0415
:10069000C1F34513CA0AE50205EB43151544A8B298
:1006A00030BD00BF0100A0F10102D0B2FAD1704705
:1006B00010B503460C46DC488088A0F5134141394B
:1006C00005D0D9488088A0F5D041043914D1D64945
:1006D000087AFFF7B3FF1812FFF7B3FFD8B2FFF79E
:1006E000B0FFD149487AFFF7A9FF2012FFF7A9FF11
:1006F000E0B2FFF7A6FF12E0CB488079012804D1D1
:10070000C9480088401EC01A83B2C749087A1946F2
:10071000FFF79FFFC449487A2146FFF79AFF10BDB3
:100720002DE9F04104460D4600260027B046BE489C
:100730000088A04203DDBC484088A84202DC0020BB
:10074000BDE8F08129462046FFF7B2FFB648808811
:10075000A0F51341413905D0B3488088A0F5D041B8
:10076000043903D12E20FFF769FF02E02220FFF7B2
:1007700065FFAD488088A0F51341203902D10220E1
:10078000FFF78FFFA748801C008800B100260220D9
:10079000FFF787FFA348801C0688A3488088A0F540
:1007A0001341413909D10220FFF77BFF9D48801C8E
:1007B000B0F80080F7B23F0208E09B488088A0F5BF
:1007C000D041043902D19748801C06889648808819
:1007D000A0F51341253917D093488088A0F58A41A8
:1007E000353911D090488088A0F58A4131390BD035
:1007F0008D488088A0F50941893905D08A488088CC
:10080000A0F53541053901D1304699E78648808801
:10081000A0F51341413907D1F012C002B91240EAE4
:10082000411040EAE8208BE73046FFF72DFF87E7CD
:1008300000B57D488088A0F51341413905D07A483C
:100840008088A0F5D041043903D12920FFF7F6FEB6
:1008500004E040F273110720FFF7FBFE00BD00B576
:1008600071488088A0F51341413905D06E488088D1
:10087000A0F5D041043903D12820FFF7DFFE03E0C3
:1008800000210720FFF7E5FE00BD70B503460024F8
:1008900000256548807901281ED163488088A0F52D
:1008A000D041043918D0082B15D2DFE803F0040634
:1008B000080A0C0E101206230DE007230BE0042398
:1008C00009E0052307E0012305E0002303E00323FB
:1008D00001E0022300BF00BF53488088A0F5134108
:1008E000413905D050488088A0F5D04104397CD1E9
:1008F000082B1CD2DFE803F00406090C0F121518B0
:1009000000BF14E044F0800411E044F040040EE025
:1009100044F0C0040BE044F0200408E044F060041C
:1009200005E044F0A00402E044F0E00400BF00BF92
:10093000362544F008043C488088A0F5D0410439AD
:1009400001D144F0020421462846FFF782FE14F04C
:10095000200F0DD03448008833494988884214DA82
:1009600031480688408830490880084646800CE0B7
:100970002D4800882C494988884206DD2A48068887
:10098000408829490880084646802749087AFFF7A9
:1009900055FE0020FFF755FE0020FFF752FE2249CA
:1009A0000988491EC1F30F20FFF74BFE1E49098835
:1009B000491EC8B2FFF745FE1B49487AFFF73EFEC5
:1009C0000020FFF73EFE0020FFF73BFE1649498856
:1009D000491EC1F30F20FFF734FE13494988491E11
:1009E000C8B2FFF72EFE37E0FFE7082B21D2DFE881
:1009F00003F004070A0D0F12151D44F0300418E02F
:100A000044F0100415E044F0200412E000BF10E0B0
:100A100044F038040DE044F028040AE044F01804DF
:100A200007E00000FE07006C3800002044F00804D6
:100A300000BF00BFFF488088A0F50941893904D173
:100A4000112546F24000044302E0032544F480549B
:100A500021462846FFF7FDFD70BD30B504460D4622
:100A600029462046FFF724FEFFF705FEF2480088DE
:100A7000F249088030BD30B503460C461546ED48B6
:100A80008088A0F51341413905D0EA488088A0F557
:100A9000D041043914D1E749087AFFF7CFFD181285
:100AA000FFF7CFFDD8B2FFF7CCFDE249487AFFF758
:100AB000C5FD2012FFF7C5FDE0B2FFF7C2FD12E051
:100AC000DC488079012804D1DA480088401EC01A29
:100AD00083B2D849087A1946FFF7BBFDD549487A51
:100AE0002146FFF7B6FDD348C079D449891E088056
:100AF0004FF0D840A0F8005830BD10B50446002C87
:100B00003DD1CC498871F02008804FF4A070488016
:100B100008468088A0F51341413905D0C548808832
:100B2000A0F5D041043914D12C20C249C8712A2023
:100B300008722B20487208468088A0F5D0410439FD
:100B40004ED14FF4A070BB4908804FF4F07048803C
:100B500046E0B8488088A0F50941893907D12220AC
:100B6000B449C8714E2008724F20487238E02220E4
:100B7000B049C871202008722120487230E0AD4889
:100B80008088A0F5D04104392AD00120A949887174
:100B90004FF4A0700880F020488008468088A0F5B7
:100BA0001341413907D12C20A249C8712A2008726B
:100BB0002B20487214E09F488088A0F509418939AC
:100BC00007D122209B49C8714F2008724E204872DD
:100BD00006E022209749C87121200872202048721F
:100BE0000020FFF752FE10BD70B504460026914864
:100BF00005884088454300210846FFF759FDFFF767
:100C00003AFD00BF02E08D480480761CAE42FAD364
:100C100070BD00B59FB00121080203F0E0F801218A
:100C200040F2691003F0E8F80120ADF878001020D8
:100C30008DF87B0003208DF87A001EA9804802F011
:100C400031FE4CF23370ADF8780018208DF87B003F
:100C500003208DF87A001EA97A4802F023FE4FF691
:100C60008070ADF8780018208DF87B0003208DF897
:100C70007A001EA9744802F015FE41F20100ADF899
:100C8000780018208DF87B0003208DF87A001EA9CB
:100C90006E4802F007FE01200890002009900F2006
:100CA0000A9000200B900C900D900E9001900290F5
:100CB00003200390002004900590069007900620E2
:100CC0000F9000201090119010201290002013908F
:100CD00015901490169017904FF4805018900020A3
:100CE00019904FF480401A9000201B9008A81C9087
:100CF00001A81D900FA802F0BEFA0121062002F003
:100D00001FFC322001F0EFFE01210020FFF7A1FCC3
:100D1000322001F0E8FE0020FFF7A2FC4549888060
:100D200008468088FF280ADB08468088A0F57F41B6
:100D3000FF3904D03F488088B0F5134F45D1D32008
:100D4000FFF77CFCFFF781FCFFF77FFCFFF77DFCE2
:100D500038498880084680880006000C8880FFF7A4
:100D600074FC344989880843324988800846808861
:100D7000A0F51341413918D0BF20FFF75FFCFFF702
:100D800064FCFFF762FCFFF760FCFFF75EFC29499B
:100D90008880084680880006000C8880FFF755FC94
:100DA0002449898808432349888022488088A0F5FF
:100DB0001341413909D01F488088A0F5D04104393A
:100DC00003D049F241301B4988801A488088A0F539
:100DD000134141397ED1CF20FFF730FC0020FFF7CF
:100DE00030FCC120FFF72DFC3020FFF72AFCED205E
:100DF000FFF724FC6420FFF724FC0320FFF721FC0D
:100E00001220FFF71EFC8120FFF71BFCE820FFF7F4
:100E100015FC8520FFF715FC1020FFF712FC7A2047
:100E2000FFF70FFCCB20FFF709FC3920FFF709FC87
:100E30002C200DE038000020140000200008006C79
:100E4000000C014000140140001801400020014046
:100E5000FFF7F7FB0020FFF7F4FB3420FFF7F1FB6F
:100E60000220FFF7EEFBF720FFF7E8FB2020FFF75B
:100E7000E8FBEA20FFF7E2FB0020FFF7E2FB00209F
:100E8000FFF7DFFBC020FFF7D9FB1B20FFF7D9FBE3
:100E9000C120FFF7D3FB0120FFF7D3FBC520FFF7ED
:100EA000CDFB3020FFF7CDFB3020FFF7CAFBC7207A
:100EB000FFF7C4FBB720FFF7C4FB3620FFF7BEFBEC
:100EC0004820FFF7BEFB3A20FFF7B8FB5520FFF79D
:100ED000B8FB00E0A6E0B120FFF7B0FB0020FFF771
:100EE000B0FB1A20FFF7ADFBB620FFF7A7FB0A20E7
:100EF000FFF7A7FBA220FFF7A4FBF220FFF79EFB62
:100F00000020FFF79EFB2620FFF798FB0120FFF74C
:100F100098FBE020FFF792FB0F20FFF792FB2A20BF
:100F2000FFF78FFB2820FFF78CFB0820FFF789FBDA
:100F30000E20FFF786FB0820FFF783FB5420FFF706
:100F400080FBA920FFF77DFB4320FFF77AFB0A20F7
:100F5000FFF777FB0F20FFF774FB0020FFF771FB13
:100F60000020FFF76EFB0020FFF76BFB0020FFF770
:100F700068FBE120FFF762FB0020FFF762FB152012
:100F8000FFF75FFB1720FFF75CFB0720FFF759FB1C
:100F90001120FFF756FB0620FFF753FB2B20FFF72E
:100FA00050FB5620FFF74DFB3C20FFF74AFB052086
:100FB000FFF747FB1020FFF744FB0F20FFF741FB33
:100FC0003F20FFF73EFB3F20FFF73BFB0F20FFF7E3
:100FD00038FB2B20FFF732FB0020FFF732FB00200D
:100FE000FFF72FFB0120FFF72CFB3F20FFF729FB2A
:100FF0002A20FFF723FB0020FFF723FB0020FFF749
:1010000020FB0020FFF71DFBEF20FFF71AFB11204C
:10101000FFF714FB782001F066FD2920FFF70EFB97
:1010200001F00FBAFF488088A0F5D04104397ED185
:101030001120FFF703FB142001F055FDD020FFF72E
:10104000FDFA0720FFF7FDFA4220FFF7FAFA1D200C
:10105000FFF7F7FAD120FFF7F1FA0020FFF7F1FAD6
:101060001A20FFF7EEFA0920FFF7EBFAD220FFF77C
:10107000E5FA0120FFF7E5FA2220FFF7E2FAC020A7
:10108000FFF7DCFA1020FFF7DCFA3B20FFF7D9FA74
:101090000020FFF7D6FA0220FFF7D3FA1120FFF75E
:1010A000D0FAC520FFF7CAFA0320FFF7CAFAC82012
:1010B000FFF7C4FA0020FFF7C4FA2520FFF7C1FAB2
:1010C0002120FFF7BEFA0520FFF7BBFA0020FFF74B
:1010D000B8FA0A20FFF7B5FA6520FFF7B2FA252023
:1010E000FFF7AFFA7720FFF7ACFA5020FFF7A9FA25
:1010F0000F20FFF7A6FA0020FFF7A3FAF820FFF76A
:101100009DFA0120FFF79DFAFE20FFF797FA0020D5
:10111000FFF797FA0220FFF794FA2020FFF78EFAE4
:101120003620FFF78BFA0820FFF78BFA00E02AE061
:101130003A20FFF783FA5520FFF783FA2B20FFF7B9
:101140007DFA0020FFF77DFA0020FFF77AFA0120F0
:10115000FFF777FA3F20FFF774FA2A20FFF76EFABD
:101160000020FFF76EFA0020FFF76BFA0120FFF76F
:1011700068FADF20FFF765FA782001F0B4FC292037
:10118000FFF75CFA4CE7A7488088A0F513412539A2
:101190007ED147F6F001E520FFF75BFA4FF480714E
:1011A0000120FFF756FA4FF4E0610220FFF751FAF1
:1011B00041F230010320FFF74CFA00210420FFF731
:1011C00048FA40F202210820FFF743FA00210920E3
:1011D000FFF73FFA00210A20FFF73BFA00210C201D
:1011E000FFF737FA00210D20FFF733FA00210F2017
:1011F000FFF72FFA00211020FFF72BFA072111200B
:10120000FFF727FA00211220FFF723FA002113200D
:10121000FFF71FFA00210720FFF71BFA41F2906148
:101220001020FFF716FA40F227211120FFF711FADC
:101230009D211220FFF70DFA4FF4C8511320FFF73C
:1012400008FA25212920FFF704FA0D212B20FFF7AA
:1012500000FA07213020FFF7FCF940F2033131207A
:10126000FFF7F7F903213220FFF7F3F940F20621E7
:101270003520FFF7EEF908213620FFF7EAF940F2B2
:1012800006413720FFF7E5F94FF44171382000E0BF
:1012900057E0FFF7DEF907213920FFF7DAF940F2CE
:1012A00002613C20FFF7D5F908213D20FFF7D1F975
:1012B00000215020FFF7CDF9EF215120FFF7C9F9A8
:1012C00000215220FFF7C5F940F23F115320FFF7EC
:1012D000C0F94FF427416020FFF7BBF901216120DD
:1012E000FFF7B7F900216A20FFF7B3F9002180204A
:1012F000FFF7AFF900218120FFF7ABF90021822031
:10130000FFF7A7F900218320FFF7A3F9002184202C
:10131000FFF79FF900218520FFF79BF9102190200E
:10132000FFF797F94FF4C0619220FFF792F940F26E
:1013300033110720FFF78DF922210020FFF789F9EB
:101340006EE638488088A0F5134128396CD141F207
:101350008F01EC20FFF77DF941F23421EF20FFF7F8
:1013600078F94FF480710120FFF773F94FF4E061D1
:101370000220FFF76EF941F230010320FFF769F90F
:1013800000210420FFF765F940F202210820FFF751
:1013900060F900210920FFF75CF900210A20FFF71E
:1013A00058F901210C20FFF754F900210D20FFF717
:1013B00050F900210F20FFF74CF900211020FFF712
:1013C00048F907211120FFF744F900211220FFF707
:1013D00040F900211320FFF73CF901210720FFF716
:1013E00038F9322001F07FFB41F290411020FFF7E5
:1013F00030F940F227211120FFF72BF9322001F0BC
:1014000072FB8A211220FFF724F9322001F06BFBD6
:101410004FF4D0511320FFF71CF906212920FFF7C4
:1014200018F902E03800002088E00D212B20FFF79A
:1014300010F9322001F057FB00212020FFF709F9B5
:1014400000212120FFF705F9322001F04CFB00219B
:101450003020FFF7FEF840F204613120FFF7F9F881
:1014600040F205313220FFF7F4F800213520FFF774
:10147000F0F840F609413620FFF7EBF84FF4017120
:101480003720FFF7E6F840F201313820FFF7E1F8A6
:1014900040F207713920FFF7DCF800213C20FFF70C
:1014A000D8F840F60A213D20FFF7D3F8322001F0AA
:1014B0001AFB00215020FFF7CCF8EF215120FFF755
:1014C000C8F800215220FFF7C4F840F23F11532022
:1014D000FFF7BFF84FF427416020FFF7BAF801216A
:1014E0006120FFF7B6F800216A20FFF7B2F800216B
:1014F0008020FFF7AEF800218120FFF7AAF8002135
:101500008220FFF7A6F800218320FFF7A2F8002130
:101510008420FFF79EF800218520FFF79AF810211C
:101520009020FFF796F84FF4C0619220FFF791F8F2
:1015300040F233110720FFF78CF871E5FF488088EF
:10154000A0F5134120397ED10846FFF782F84FF409
:1015500080710120FFF77DF84FF4E0610220FFF772
:1015600078F841F230010320FFF773F800210420DE
:10157000FFF76FF840F202210820FFF76AF8002118
:101580000920FFF766F800210A20FFF762F8012121
:101590000C20FFF75EF800210D20FFF75AF800211C
:1015A0000F20FFF756F8322001F09DFA40F20111AA
:1015B0000720FFF74EF8322001F095FA4FF48651DC
:1015C0001020FFF746F807211120FFF742F84FF4EB
:1015D00088711220FFF73DF84FF430611320FFF7B8
:1015E00038F800212920FFF734F844F210012B20AD
:1015F000FFF72FF800215020FFF72BF8EF215120A3
:10160000FFF727F800215220FFF723F840F23F119F
:101610005320FFF71EF84FF41C516020FFF719F814
:1016200001216120FFF715F800216A20FFF711F86A
:1016300000218020FFF70DF800218120FFF709F835
:101640000021822000E02CE0FFF703F80021832036
:10165000FEF7FFFF00218420FEF7FBFF002185201D
:10166000FEF7F7FF10219020FEF7F3FF00219220F4
:10167000FEF7EFFF01219320FEF7EBFF4FF4887197
:101680009520FEF7E6FF00219720FEF7E2FF0021FC
:101690009820FEF7DEFF40F273110720FEF7D9FF16
:1016A000BEE4A6488088A0F5134131397DD141F2CE
:1016B0001401E720FEF7CDFF4FF480710120FEF703
:1016C000C8FF4FF400710220FEF7C3FF41F238015A
:1016D0000320FEF7BEFF40F202210820FEF7B9FF0B
:1016E00000210920FEF7B5FF00210A20FEF7B1FF17
:1016F00000210C20FEF7ADFF00210D20FEF7A9FF11
:1017000000210F20FEF7A5FF00211020FEF7A1FF0A
:1017100007211120FEF79DFF00211220FEF799FFFF
:1017200000211320FEF795FFC82001F0DCF941F2FB
:1017300090611020FEF78DFF40F227211120FEF767
:1017400088FF322001F0CFF90C211220FEF781FF33
:10175000322001F0C8F94FF400611320FEF779FF41
:1017600011212920FEF775FF0B212B20FEF771FFB9
:10177000322001F0B8F900212020FEF76AFF40F284
:101780003F112120FEF765FF00213020FEF761FFA9
:101790004FF483713120FEF75CFF00213220FEF709
:1017A00058FF4FF40171352000E064E0FEF751FF6F
:1017B00041F20A613620FEF74CFF40F207713720F4
:1017C000FEF747FF4FF483713820FEF742FF40F2E7
:1017D00007713920FEF73DFF40F202413C20FEF741
:1017E00038FF40F60F413D20FEF733FF0021502027
:1017F000FEF72FFFEF215120FEF72BFF0021522093
:10180000FEF727FF40F23F115320FEF722FF4FF46F
:101810001C516020FEF71DFF01216120FEF719FF1A
:1018200000216A20FEF715FF00218020FEF711FF3E
:1018300000218120FEF70DFF00218220FEF709FF25
:1018400000218320FEF705FF00218420FEF701FF21
:1018500000218520FEF7FDFE10219020FEF7F9FE05
:101860004FF4C0619220FEF7F4FE40F233110720DE
:10187000FEF7EFFE86E431488088A0F5A8410839DC
:101880007DD14FF480710120FEF7E3FE4FF4E0615B
:101890000220FEF7DEFE41F230010320FEF7D9FE02
:1018A00000210420FEF7D5FE40F207210820FEF7B4
:1018B000D0FE00210920FEF7CCFE00210A20FEF711
:1018C000C8FE00210C20FEF7C4FE00210D20FEF70B
:1018D000C0FE00210F20FEF7BCFE142001F003F92A
:1018E00041F2B0611020FEF7B4FE01211120FEF795
:1018F000B0FE01211720FEF7ACFE4FF49C711220C0
:10190000FEF7A7FE4FF400611320FEF7A2FE0921A7
:101910002920FEF79EFE09212A20FEF79AFE0021CB
:10192000A420FEF796FE00215020FEF792FEEF2144
:101930005120FEF78EFE0021522001E038000020E9
:10194000FEF787FE40F23F115320FEF782FE4FF470
:101950001C516020FEF77DFE01216120FEF779FE1B
:1019600000216A20FEF775FE00218020FEF771FE3F
:1019700000218120FEF76DFE0021822000E027E09B
:10198000FEF767FE00218320FEF763FE002184201E
:10199000FEF75FFE00218520FEF75BFE13219020FD
:1019A000FEF757FE00219220FEF753FE03219320FD
:1019B000FEF74FFE4FF488719520FEF74AFE40F285
:1019C00073110720FEF745FE322001F08CF8B7E4D2
:1019D000FF488088A0F5A85105397ED10720FEF781
:1019E00038FE322001F07FF84FF48E711220FEF79E
:1019F00030FE0121A420FEF72CFE0F210820FEF767
:101A000028FE08210A20FEF724FE08210D20FEF7FB
:101A100020FE40F207713020FEF71BFE0721312027
:101A2000FEF717FE40F203613220FEF712FE4FF47C
:101A3000E0613320FEF70DFE40F202213420FEF774
:101A400008FE02213520FEF704FE41F60F71362014
:101A5000FEF7FFFD40F207713720FEF7FAFD002187
:101A60003820FEF7F6FD00213920FEF7F2FD40F2A6
:101A700007713A20FEF7EDFD00213B20FEF7E9FD5E
:101A800007213C20FEF7E5FD00213D20FEF7E1FDAA
:101A9000322001F028F801210720FEF7DAFD0121AC
:101AA0001720FEF7D6FD322001F01DF84FF4BD518E
:101AB0001020FEF7CEFD40F217211120FEF7C9FDE0
:101AC0004FF48F711220FEF7C4FD4FF470611320A4
:101AD000FEF7BFFD00212A2000E093E0FEF7B9FDEC
:101AE0000A212920FEF7B5FD4FF49F711220FEF761
:101AF000B0FD00215020FEF7ACFDEF215120FEF794
:101B0000A8FD00215220FEF7A4FD40F23F11532012
:101B1000FEF79FFD4FF41C516020FEF79AFD012156
:101B20006120FEF796FD00216A20FEF792FD00215C
:101B30008020FEF78EFD00218120FEF78AFD002126
:101B40008220FEF786FD00218320FEF782FD002122
:101B50008420FEF77EFD00218520FEF77AFD13210B
:101B60009020FEF776FD4FF440719220FEF771FD54
:101B700005219320FEF76DFD00219520FEF769FDFC
:101B800000219720FEF765FD00219820FEF761FDFA
:101B90004FF480710120FEF75CFD4FF4E0610220FC
:101BA000FEF757FD41F238010320FEF752FD0021F8
:101BB0000420FEF74EFD00210C20FEF74AFD002117
:101BC0000F20FEF746FD00212020FEF742FD0021F8
:101BD0002120FEF73EFD21210720FEF73AFD1420CB
:101BE00000F081FF61210720FEF733FD142000F093
:101BF0007AFF40F273110720FEF72BFD142000F04E
:101C000072FF9AE472488088A0F5354105397DD18C
:101C10000846FEF71EFD00210846FEF71AFD0021CA
:101C20000846FEF716FD00210846FEF712FD0121C9
:101C3000A420FEF70EFD142000F055FF4FF41C51B8
:101C40006020FEF706FD40F202210820FEF701FDAC
:101C50004FF405713020FEF7FCFC43F21571312082
:101C6000FEF7F7FC40F204613220FEF7F2FC40F68A
:101C700016613320FEF7EDFC42F211213420FEF70D
:101C8000E8FC4FF4A8513520FEF7E3FC48F2075179
:101C90003620FEF7DEFC41F207413720FEF7D9FC83
:101CA00041F203413820FEF7D4FC20213920FEF711
:101CB000D0FC1A219020FEF7CCFC00211020FEF76A
:101CC000C8FC07211120FEF7C4FC00211220FEF7FA
:101CD000C0FC00211320FEF7BCFC142000F003FF21
:101CE0004FF4E6611020FEF7B4FC40F237111120EA
:101CF000FEF7AFFC142000F0F6FE4FF4DC7112206A
:101D0000FEF7A7FC142000F0EEFE00E086E04FF4A2
:101D100070611320FEF79DFC80212A20FEF799FCBC
:101D200048212920FEF795FC142000F0DCFE4FF43A
:101D300080710120FEF78DFC4FF4E0610220FEF778
:101D400088FC41F238010320FEF783FC40F20221B7
:101D50000820FEF77EFC00210A20FEF77AFC002115
:101D60000C20FEF776FC00210D20FEF772FC3021DE
:101D70000E20FEF76EFC00215020FEF76AFCEF21DA
:101D80005120FEF766FC00215220FEF762FC40F273
:101D90003F115320FEF75DFC4FF41C516020FEF70D
:101DA00058FC01216120FEF754FC00216A20FEF757
:101DB00050FC11219020FEF74CFC4FF4C0619220A2
:101DC000FEF747FC40F202419320FEF742FC01E09F
:101DD0003800002002219420FEF73BFC142000F084
:101DE00082FE01210720FEF734FC142000F07BFE68
:101DF00061210720FEF72DFC40F273110720FEF74A
:101E000028FC00212020FEF724FC00212120FEF7E1
:101E100020FC22210020FEF71CFC12E3FF488088F2
:101E2000A0F5454105397DD10846FEF712FC002199
:101E30000846FEF70EFC142000F055FE002108466F
:101E4000FEF707FC00210846FEF703FC00210846C8
:101E5000FEF7FFFB00210846FEF7FBFB0121A42053
:101E6000FEF7F7FB142000F03EFE4FF41C516020FB
:101E7000FEF7EFFB40F606010820FEF7EAFB40F212
:101E800003713020FEF7E5FB01213120FEF7E1FB75
:101E900004213220FEF7DDFB4FF481713320FEF781
:101EA000D8FB4FF440713420FEF7D3FB40F203110E
:101EB0003520FEF7CEFB1F213620FEF7CAFB40F28D
:101EC00003713720FEF7C5FB01213820FEF7C1FB67
:101ED00004213920FEF7BDFB15219020FEF7B9FB48
:101EE0004FF482611020FEF7B4FB40F2472111202D
:101EF000FEF7AFFB4FF4DE711220FEF7AAFB4FF4A2
:101F000060611320FEF7A5FB782000F0ECFD4FF494
:101F100080710120FEF79DFB4FF400710220FEF757
:101F200098FB00E050E041F230010320FEF791FB06
:101F300008210A20FEF78DFB00210C20FEF789FB0B
:101F400020210E20FEF785FB00210F20FEF781FBEC
:101F500000212020FEF77DFB00212120FEF779FBE8
:101F60003D212A20FEF775FB142000F0BCFD2D2139
:101F70002920FEF76EFB00215020FEF76AFB4DF290
:101F8000EF015120FEF765FB00215220FEF761FBB7
:101F900040F23F115320FEF75CFB00216120FEF769
:101FA00058FB00216A20FEF754FB4FF44071922049
:101FB000FEF74FFB05219320FEF74BFB4FF480719A
:101FC0000720FEF746FB3CE294488088A0F50941D3
:101FD00089397DD101210020FEF73BFB4AF6A4019F
:101FE0000320FEF736FB00210C20FEF732FB40F603
:101FF0000C010D20FEF72DFB4FF42C510E20FEF7A7
:1020000028FBB0211E20FEF724FB42F63F310120C1
:10201000FEF71FFB4FF4C0610220FEF71AFB002100
:102020001020FEF716FB46F278011120FEF711FB97
:1020300000210520FEF70DFB00210620FEF709FB1D
:102040004EF61C711620FEF704FB03211720FEF745
:1020500000FB40F233210720FEF7FBFA00210B20A2
:10206000FEF7F7FA00210F20FEF7F3FA00214120D6
:10207000FEF7EFFA00214220FEF7EBFA002148209C
:10208000FEF7E7FA40F23F114920FEF7E2FA00219D
:102090004A20FEF7DEFA00214B20FEF7DAFA4FF471
:1020A0006F414420FEF7D5FA00214520FEF7D1FA12
:1020B00040F23F114620FEF7CCFA40F20771302083
:1020C000FEF7C7FA4FF401713120FEF7C2FA00E0C3
:1020D0003DE04FF401713220FEF7BBFA40F20251AD
:1020E0003320FEF7B6FA40F207513420FEF7B1FA7A
:1020F0004FF401713520FEF7ACFA4FF40171362030
:10210000FEF7A7FA40F202513720FEF7A2FA40F29A
:1021100002313A20FEF79DFA40F202313B20FEF7F1
:1021200098FA00212320FEF794FA00212420FEF7DC
:1021300090FA4FF400412520FEF78BFA00214F2042
:10214000FEF787FA00214E20FEF783FA79E1334843
:102150008088A0F58A4131397ED101210020FEF727
:1021600078FA0A2000F0BFFC41F228611020FEF747
:1021700070FA0E211220FEF76CFA40F63921132076
:10218000FEF767FA0A2000F0AEFC40211120FEF7AE
:1021900060FA50211520FEF75CFA0A2000F0A3FC3B
:1021A0001E211220FEF755FA0A2000F09CFC4FF485
:1021B000B1511020FEF74DFA42F639211320FEF7F7
:1021C00048FA0A2000F08FFC4FF480710120FEF7DE
:1021D00040FA4FF440710220FEF73BFA41F2380119
:1021E0000320FEF736FA40F202210820FEF731FA0A
:1021F00008210A20FEF72DFA00213020FEF729FAE7
:1022000040F202413120FEF724FA4FF4837132206C
:10221000FEF71FFA40F20351332001E0380000209E
:10222000FEF717FA4FF482713420FEF712FA40F2EB
:1022300001313520FEF70DFA40F207713620FEF726
:1022400008FA40F205313720FEF703FA4FF4027125
:102250003820FEF7FEF900E03EE040F60B71392031
:10226000FEF7F7F902214120FEF7F3F94FF41C5174
:102270006020FEF7EEF901216120FEF7EAF94FF444
:1022800004719020FEF7E5F94FF485719220FEF776
:10229000E0F904219320FEF7DCF94FF48071A020CF
:1022A000FEF7D7F901210720FEF7D3F921210720F6
:1022B000FEF7CFF923210720FEF7CBF933210720C2
:1022C000FEF7C7F940F233110720FEF7C2F90021EB
:1022D000A020FEF7BEF9B4E0FA488088A0F58A4154
:1022E0003539F8D130211520FEF7B3F910219A20A5
:1022F000FEF7AFF920211120FEF7ABF943F2284198
:102300001020FEF7A6F902211220FEF7A2F941F2F1
:1023100038011320FEF79DF9282000F0E4FB12217C
:102320000846FEF796F9282000F0DDFB43F2204135
:102330001020FEF78EF943F238011320FEF789F9D9
:10234000462000F0D0FB00213020FEF782F940F259
:1023500002413120FEF77DF940F207313220FEF7CD
:1023600078F94FF441713320FEF773F904213420DA
:10237000FEF76FF940F201413520FEF76AF940F2AD
:1023800007713620FEF765F940F205313720FEF778
:1023900060F94FF4C2613820FEF75BF94FF4C26177
:1023A0003920FEF756F94FF480710120FEF751F9FC
:1023B0004FF440710220FEF74CF941F23001032046
:1023C000FEF747F940F608010820FEF742F9082118
:1023D0000A20FEF73EF94FF41C516020FEF739F950
:1023E00001216120FEF735F94FF49F719020FEF72F
:1023F00030F94FF480719220FEF72BF94FF4807181
:102400009320FEF726F94FF44051A020FEF721F962
:102410001021A320FEF71DF901210720FEF719F96D
:1024200021210720FEF715F923210720FEF711F9D6
:1024300033210720FEF70DF940F233110720FEF794
:1024400008F90020FEF759FB01209F4908604FF66C
:10245000FF70FEF7C9FB1FB000BD2DE9F04F044629
:102460000D4616461F46DDF824804FF0000B301B4A
:10247000401C1FFA80FBA94615E049462046FEF79E
:1024800017F9FEF7F8F84FF0000A06E04046FEF7AD
:10249000D8F80AF101001FFA80FADA45F6DB09F1F3
:1024A00001001FFA80F9B945E7DDBDE8F08F2DE99D
:1024B000F84F04460D4616461F46DDF82880301BAF
:1024C000401C80B20090781B401C1FFA80F94FF02E
:1024D000000A1BE005EB0A0081B22046FEF7E8F88F
:1024E000FEF7C9F84FF0000B09E00AFB09B038F815
:1024F0001000764908800BF101001FFA80FB00985C
:102500008345F2DB0AF101001FFA80FACA45E1DBDC
:10251000BDE8F88F2DE9FF4F85B004460D461646FD
:10252000002004900390A6EB04080898A0EB05098E
:10253000A3460095B8F1000F02DD012001900AE0EA
:10254000B8F1000F02D10020019004E04FF0FF30FD
:102550000190C8F10008B9F1000F02DD4FF0010A47
:1025600009E0B9F1000F02D14FF0000A03E04FF08B
:10257000FF3AC9F10009C84502DDCDF8088001E045
:10258000CDF80890002722E0009881B21FFA8BF066
:10259000FEF763FA0498404404900398484403907B
:1025A00002990498884205DD04990298081A04905B
:1025B00001988344DDE90210884206DDDDE902105E
:1025C000401A0390009850440090781C87B20298FB
:1025D000401C8742D8DD09B0BDE8F08FF0B5044655
:1025E0000D4616461F462B46324629462046FFF723
:1025F00091FF3B46224629462046FFF78BFF3B468C
:10260000324639462046FFF785FF3B46324629468B
:102610003046FFF77FFFF0BD2DE9F04304460D463D
:1026200016460027B0460320A0EB460946E0A5EB7E
:10263000080291B2E21990B2FEF70FFAEA1B91B2CA
:1026400004EB080290B2FEF708FAEA1991B204EB23
:10265000080290B2FEF701FA05EB080291B2E21906
:1026600090B2FEF7FAF905EB080291B2E21B90B2C4
:10267000FEF7F3F9EA1991B2A4EB080290B2FEF763
:10268000ECF9A5EB080291B2E21B90B2FEF7E5F976
:10269000EA1B91B2A4EB080290B2FEF7DEF97F1CB0
:1026A000B9F1000F03DAB800801D814406E0A7EB02
:1026B000080080000A308144A8F101084745B6DDD2
:1026C000BDE8F08338000020808121420008006CC2
:1026D0002DE9F84F04460D4616461F460095CC4896
:1026E000B0F800B0A6F12000C6B20A98002850D178
:1026F00082464BE00C2F07D106EB4600C54901EBA3
:10270000800010F80A8004E0C34800EB061010F8BF
:102710000A804FF0000931E018F0800F03D0BC4868
:10272000A0F800B003E0BD480088B94908802946F8
:102730002046FEF792F94FEA48604FEA1068681C9D
:1027400085B2B7480088A04204DCB148A0F800B0C8
:10275000BDE8F88F0098281AB8420BD1009D601C84
:1027600084B2AF480088A04203DCA948A0F800B0BA
:10277000EEE706E009F1010000F0FF09B9F1080FEA
:10278000CADB00BF0AF1010000F0FF0ABA45B1DB65
:1027900047E04FF0000A42E00C2F07D106EB46005D
:1027A0009C4901EB800010F80A8004E09A4800EB95
:1027B000061010F80A804FF0000928E018F0800F8A
:1027C00003D029462046FEF748F94FEA48604FEA11
:1027D0001068681C85B292484088A04203DC8C488F
:1027E000A0F800B0B4E70098281AB8420BD1009DB9
:1027F000601C84B28A480088A04203DC8448A0F8A8
:1028000000B0A5E706E009F1010000F0FF09B9F109
:10281000080FD3DB00BF0AF1010000F0FF0ABA4540
:10282000BADB7B48A0F800B092E710B50246012061
:1028300000E050430B00A1F10104E1B2F9D110BD59
:102840002DE9FF4F81B0044615461E460E9F4FF0FE
:10285000000AD0463EE0A6EB0800401EC1B20A20A6
:10286000FFF7E3FFB5FBF0F00A21B0FBF1F201FB4B
:10287000120000F0FF09BAF1000F16D1701E40459A
:1028800013DDB9F1000F0ED10023BB4607EBD77162
:10289000491001FB084188B200933B46202202996F
:1028A000FFF716FF12E04FF0010A0023BB4607EBCB
:1028B000D771491001FB084188B200933B4609F1EA
:1028C0003001CAB20299FFF703FF00BF08F101000F
:1028D00000F0FF08B045BEDB05B0BDE8F08F2DE984
:1028E000FF4F82B0044615461E46DDE90F780020F2
:1028F0000190814652E0A6EB0900401EC1B20A20B9
:10290000FFF793FFB5FBF0F00A21B0FBF1F201FBFA
:10291000120000F0FF0A019850BB701E484527DDE9
:10292000BAF1000F22D118F0800F0FD008F0010388
:10293000BB4607EBD771491001FB094188B20093F0
:102940003B4630220399FFF7C3FE0EE008F0010377
:10295000BB4607EBD771491001FB094188B20093D0
:102960003B4620220399FFF7B3FE13E001200190BC
:1029700008F00103BB4607EBD771491001FB094181
:1029800088B200933B460AF13001CAB20399FFF7BF
:102990009FFE00BF09F1010000F0FF09B145AADB6D
:1029A00006B0BDE8F08F2DE9F84704460D461646FF
:1029B0001F46DDE9098904F0FF0A301986B278194B
:1029C00087B219E0B44203DB544605EB080085B238
:1029D000BD4200DB18E00023009399F80020434635
:1029E00029462046FFF774FE404608EBD87104EBF9
:1029F00061018CB209F1010999F800007E2803DC1D
:102A000099F800002028DDDA00BFBDE8F887000053
:102A100014000020165700088A5B000816000020EA
:102A20003800002008B50121402001F0E5F901201F
:102A3000ADF8000010208DF8030003208DF802008F
:102A400069460C4800F02EFF01210A4800F0D2FF31
:102A50000220ADF8000010208DF8030003208DF84F
:102A600002006946034800F01DFF0221014800F002
:102A7000C1FF08BD0018014010B56FF0040000F060
:102A800077F92A4800682A49B0FBF1F02949087013
:102A9000084600784FF47A7148432649891C08801B
:102AA00010BD244A127842434FF0E0235A610022BD
:102AB0009A611A46126942F001021A6100BF4FF092
:102AC000E022116911F0010F02D011F4803FF6D01D
:102AD0004FF0E022126922F001024FF0E0231A6168
:102AE00000229A617047134A921C128842434FF0A9
:102AF000E0235A6100229A611A46126942F00102EB
:102B00001A6100BF4FF0E022116911F0010F02D0ED
:102B100011F4803FF6D04FF0E022126922F001025A
:102B20004FF0E0231A6100229A61704700000020F4
:102B300000127A001800002010B54FF4A06000F0D9
:102B4000C5F810BD014600BF704700BF4B4A128850
:102B500012F0400FFAD0C2B2484B1B1D1A807047CA
:102B600010B586B00446012144F2040001F044F996
:102B7000424801F0A3F94FF40070ADF814000320AF
:102B80008DF8160018208DF8170005A93C4800F0B4
:102B900089FE4FF48060ADF8140004208DF8170012
:102BA00005A9374800F07EFE25208DF8000003209F
:102BB0008DF801008DF8020001208DF803006846B1
:102BC00000F089F801940020ADF80800ADF80A0083
:102BD000ADF80C00ADF810000C20ADF80E0001A906
:102BE000264801F0AEF9012240F22551234801F0B8
:102BF0003FFA0121214801F02FFA06B010BD10B5AF
:102C000040F225511D4801F01AFB002834D01B4822
:102C100001F095FAC4B21B48008810F4004F2BD184
:102C20001848008810F4804F0CD00A2C03D00020E4
:102C30001449088020E01348008840F400401149FE
:102C4000088019E00D2C06D10E48008840F4804021
:102C50000C49088010E00B480088C0F30D000A49B9
:102C60000C5408480088401C064908800846008823
:102C7000C72801DD0020088010BD00000038014099
:102C8000000801401C000020420000200948804745
:102C900009480047FEE7FEE7FEE7FEE7FEE7FEE73E
:102CA000FEE7FEE7FEE7FEE704480549054A064B56
:102CB0007047000055040008310100087001002031
:102CC0007007002070030020700300203249014388
:102CD000324A1160704770B5002100230F22C4787A
:102CE0000CB32E4C246804F4E064C4F5E064210ABB
:102CF000C1F10403CA40447804FA03F18478144013
:102D000021430901264C0678A155047804F01F05DB
:102D10000124AC4005786D114FF0E02606EB8505E7
:102D2000C5F8004109E0047804F01F040125A5401E
:102D30001C4C0678761144F8265070BD1A4A0A4099
:102D40000243164B1B1F1A60704741B1134A121DF4
:102D5000126802434FF0E023C3F8102D07E00F4A3A
:102D6000121D126882434FF0E023C3F8102D704704
:102D7000042808D14FF0E021096941F004014FF027
:102D8000E022116107E04FF0E021096921F0040120
:102D90004FF0E022116170470000FA050CED00E0F1
:102DA00000E400E080E100E080FFFF1F10B5044672
:102DB000F748844208D10121401501F037F800217D
:102DC000601501F033F817E0F248844208D1012180
:102DD000001501F02BF80021201501F027F80BE079
:102DE000ED48844208D10121C80301F01FF80021F9
:102DF0004FF4004001F01AF810BD30B50022002356
:102E00004268E64C22400D790C6844EA05242243CE
:102E100042608268E24C2240D1E902542C434D7951
:102E200044EA450422438260C26A22F470020C7CA8
:102E3000641EE4B2234342EA0352C26230BD002161
:102E40000160017141718160C160012101747047AD
:102E500021B1826842F00102826003E0826822F0C0
:102E600001028260704721B1826842F48072826000
:102E700003E0826822F480728260704710B50023FC
:102E8000CBB21AB144681C43446002E044689C43DE
:102E9000446010BD816841F00801816070470146BF
:102EA00000208A6812F0080F01D0012000E0002005
:102EB0007047816841F0040181607047014600203D
:102EC0008A6812F0040F01D0012000E00020704752
:102ED00021B1826842F4A002826003E0826822F499
:102EE000A00282607047014600208A6812F4800FB9
:102EF00001D0012000E00020704710B5002200231F
:102F0000426822F460424B1E42EA4332426010BDE6
:102F100021B1426842F40062426003E0426822F458
:102F2000006242607047F0B500240025092911DDD8
:102F3000C468A1F10A0606EB4607072606FA07F55C
:102F4000AC43A1F10A0606EB460603FA06F52C434C
:102F5000C4600CE0046901EB4107072606FA07F597
:102F6000AC4301EB410603FA06F52C430461072A42
:102F70000FDA446B561E06EB86071F2606FA07F586
:102F8000AC43561E06EB860601FA06F52C43446355
:102F900022E00D2A0FDA046BD61F06EB86071F26E8
:102FA00006FA07F5AC43D61F06EB860601FA06F5CE
:102FB0002C43046310E0C46AA2F10D0606EB8607F9
:102FC0001F2606FA07F5AC43A2F10D0606EB8606AE
:102FD00001FA06F52C43C462F0BD21B1826842F4C7
:102FE0008012826003E0826822F48012826070475F
:102FF0000146C86C80B2704765484C300068704725
:1030000021B1426842F48062426003E0426822F4E7
:1030100080624260704721B1426842F4805242604F
:1030200003E0426822F480524260704700228268C6
:1030300022F4E0420A438260704721B1826842F480
:103040000042826003E0826822F40042826070479E
:1030500021B1826842F40212826003E0826822F4A5
:10306000021282607047014600208A6812F4001F35
:1030700001D0012000E000207047F0B500240025B9
:103080000026092911DDC468A1F10A0707EB470CE6
:10309000072707FA0CF5AC43A1F10A0707EB47072E
:1030A00003FA07F52C43C4600CE0046901EB410C02
:1030B000072707FA0CF5AC4301EB410703FA07F5C4
:1030C0002C430461846BC4F30156D71C06F1010C38
:1030D000A7EB0C0707EB870C1F2707FA0CF5AC438F
:1030E000D71C06F1010CA7EB0C0707EB870701FAC9
:1030F00007F52C438463F0BD10B500220023826BDA
:1031000022F440124B1E42EA0352826310BD10B5F6
:103110000023034618460B441A6010BD02460023E4
:1031200013461A4601F128000344186880B270471C
:10313000002242681B4B1A400A43426070474162BA
:10314000826270470022426822F01F020A434260F6
:10315000704740B10E490831096841F40001124A34
:10316000C2F8081407E00A490831096821F400018F
:103170000D4AC2F8081470470246002013680B423B
:1031800001D0012000E000207047CA430260704770
:103190000024014000280140003C0140FFFEF0FFF8
:1031A000FDF7F1FFFFFD3FFF0020014070B5024633
:1031B0000020002300240B125568CEB205EA060455
:1031C00015681D4202D00CB1012000E0002070BD46
:1031D00000220A12D34303607047000030B943F263
:1031E000DB014FF0204242F8201005E043F2D2010B
:1031F0004FF0204242F820106FF07042411C4FF017
:10320000204343F8212011461A4602EB8002C2F8FF
:103210000411704710280AD118214FF0204211667E
:10322000402151664FF0FC319166D16610E01821C3
:10323000FA4A116040214FF02042C2F884104FF04A
:10324000FC31F64A083211604FF02042C2F88C106F
:1032500070471820F1492031086000200906C1F8A4
:10326000A4004FF0FC30ED4928310860091D0860CA
:10327000091D08607047D0E901121143C26811436B
:10328000026911434269114382691143C2691143C2
:10329000026A1143426A1143826A1143C26A1143AE
:1032A000026B11434FF02043026843F822108168FB
:1032B000082908D11A46016852F8211041F040014E
:1032C000026843F82210416B0968426B526841EA78
:1032D0000211426B926841EA0221426BD26841EAD4
:1032E0000241426B126941EA0251426B526941EA62
:1032F0000261426B926911430268521C4FF02043F5
:1033000043F82210C16AB1F5804F1AD1816B096868
:10331000826B526841EA0211826B926841EA022193
:10332000826B126941EA0251826B526941EA026181
:10333000826B92691143026803EB8202C2F80411A6
:1033400008E06FF070414FF02043026803EB820207
:10335000C2F80411704730B50021002200234468F0
:1033600044F0080485682C43C5682C4305692C4348
:10337000456944EA4524856944EA4531C4692468BD
:10338000C5696D6844EA0524C569AD6844EA054429
:10339000C569ED6844EA0562046A2468056A6D68D7
:1033A00044EA0524056AAD6844EA0544056AED6807
:1033B00044EA05630468102C05D14FF020442166CF
:1033C000A266E36608E0954C21604FF02044C4F803
:1033D0008820924C0C34236030BD016841F010010C
:1033E000426841EA4221826841EA42318B4A2032F6
:1033F0001160C1680968C268526841EA0221C26866
:10340000926841EA0241C268D26841EA0261834A95
:1034100028321160016909680269526841EA022193
:103420000269926841EA02410269D26841EA026196
:103430007A4A2C321160416909684269526841EA4E
:1034400002214269926841EA02414269D26841EA36
:1034500002614FF02042C2F8B010704700210160B5
:103460000221416000218160C1600161416181618F
:10347000C16101624FF480514162490081620021C3
:10348000C16201630F21426B1160426B5160FF21E9
:10349000426B91600F21426BD160426B1161426BB4
:1034A00051610021426B91610F21826B1160826B2F
:1034B0005160FF21826B91600F21826BD160826B22
:1034C0001161826B51610021826B91617047102103
:1034D0000160002141608160C160016141618161E1
:1034E000FC21C2691160C2695160C2699160C26900
:1034F000D160026A1160026A5160026A9160026AD8
:10350000D16070470021016041608160FC21C26888
:103510001160C2685160C2689160C268D16002697E
:10352000116002695160026991600269D16042696B
:10353000116042695160426991604269D16070478F
:1035400051B14FF0204252F8202042F001024FF0DA
:10355000204343F8202009E04FF0204252F8202079
:103560002F4B1A404FF0204343F82020704799B169
:10357000102808D14FF02042126E42F004024FF0A2
:1035800020431A661DE0254A126842F004024FF0FB
:103590002043C3F8802014E0102809D14FF02042C6
:1035A000126E1F4BDB1E1A404FF020431A6608E0D4
:1035B0001A4A12681A4BDB1E1A404FF02043C3F818
:1035C0008020704748B115492031096841F0040155
:1035D0004FF02042C2F8A01009E0104920310968DC
:1035E0000F4AD21E11404FF02042C2F8A01070477F
:1035F000C1B1102808D14FF02042126E42F04002B3
:103600004FF020431A6620E0044A126842F040025C
:103610004FF02043C3F8802017E00000800000A096
:10362000FEFF0F00102808D14FF02042126E6B4BA6
:103630001A404FF020431A6607E0694A1268674B48
:103640001A404FF02043C3F8802070470146002005
:10365000102903D14FF02042506F02E0604A14322B
:103660001068704710B5F2B1102807D14FF0204311
:103670005B6E0B434FF02044636632E0B0F5807F11
:1036800008D1574B1B1D1B680B434FF02044C4F857
:10369000843026E0524B24331B680B434FF0204408
:1036A000C4F8A4301DE0102807D14FF020435B6E12
:1036B0008B434FF02044636613E0B0F5807F08D160
:1036C000474B1B1D1B688B434FF02044C4F88430CC
:1036D00007E0434B24331B688B434FF02044C4F86E
:1036E000A43010BD10B5034600200022102B03D1DA
:1036F0004FF02044626E09E0B3F5807F03D1384C6F
:10370000241D226802E0364C243422680A4201D08B
:10371000012000E0002010BD102807D14FF020420A
:10372000526E8A434FF020435A6613E0B0F5807F13
:1037300008D12B4A121D12688A434FF02043C3F868
:10374000842007E0264A243212688A434FF020433F
:10375000C3F8A420704770B502460020002300245F
:103760000025102A03D14FF02046736E09E0B2F510
:10377000807F03D11A4E361D336802E0184E24367E
:10378000336803EA010403EAD10514B10DB1012045
:1037900000E0002070BD102808D14FF02042526E8A
:1037A00022EAD1024FF020435A6615E0B0F5807F3F
:1037B00009D10B4A121D126822EAD1024FF02043B0
:1037C000C3F8842008E0064A2432126822EAD102B3
:1037D0004FF02043C3F8A42070470000BFFF0F0044
:1037E000800000A010B50446C748844208D10121DA
:1037F000042000F01BFB0021042000F017FB46E032
:10380000C248844208D10121082000F00FFB0021AA
:10381000082000F00BFB3AE0BD48844208D10121AA
:10382000102000F003FB0021102000F0FFFA2EE032
:10383000B848844208D10121202000F0F7FA002185
:10384000202000F0F3FA22E0B348844208D101219D
:10385000402000F0EBFA0021402000F0E7FA16E0EB
:10386000AE48844208D10121802000F0DFFA002117
:10387000802000F0DBFA0AE0A948844207D1012148
:10388000801500F0D3FA0021A01500F0CFFA10BD8A
:1038900010B50121084600F0C9FA0021012000F00E
:1038A000C5FA10BDF0B50022002300240025002633
:1038B000002791F803C00CF00F0291F803C01CF030
:1038C000100F03D091F802C04CEA0202B1F800C018
:1038D0001CF0FF0F31D0066800242BE04FF0010CE4
:1038E0000CFA04F5B1F800C00CEA0503AB4220D194
:1038F000A5004FF00F0C0CFA05F7BE4302FA05FCC9
:103900004CEA060691F803C0BCF1280F06D14FF02F
:10391000010C0CFA04FCC0F814C00AE091F803C0D2
:10392000BCF1480F05D14FF0010C0CFA04FCC0F8B3
:1039300010C0641C082CD1D30660B1F800C0BCF1E3
:10394000FF0F34DD466800242EE004F1080C4FF030
:10395000010E0EFA0CF5B1F800C00CEA0503AB42FB
:1039600021D1A5004FF00F0C0CFA05F7BE4302FA67
:1039700005FC4CEA060691F803C0BCF1280F05D1FE
:1039800004F1080C0EFA0CFEC0F814E091F803C024
:10399000BCF1480F07D104F1080C4FF0010E0EFAEC
:1039A0000CFEC0F810E0641C082CCED34660F0BDBD
:1039B0004FF6FF710180022181700421C1707047B0
:1039C0000246002093680B4201D0012000E0002055
:1039D00070470146886880B2704702460020D3686D
:1039E0000B4201D0012000E0002070470146C8686A
:1039F00080B2704701617047416170470AB101614F
:103A000000E041617047C16070474FF480320A4363
:103A10008261816182618269826970470022414BC3
:103A20001A684FF680731A4042EA00120A433D4B6F
:103A30001A6070473C49C8617047F0B50022002306
:103A40000024002500F00046B6F1004F02D1354EAB
:103A5000F46901E0334E7468C0F3034582B200F4A8
:103A60004016B6F5401F08D124F070642D4E7668DC
:103A700026F070662B4F7E6012E000F48016B6F5DB
:103A8000801F06D1032606FA05F39C4344F07064B8
:103A900006E0460D360102FA06F6B44344F07064BF
:103AA00021B1460D360102FA06F6344300F0004615
:103AB000B6F1004F02D11B4EF46101E0194E746063
:103AC000F0BD30B500228B071C0F0F2303FA04F260
:103AD000144B08338C1053F8244094438D1043F852
:103AE00025408C1053F824308C07240F00FA04F47E
:103AF00023430C4C08348D1044F8253030BD0A495E
:103B0000DC3108607047000000080140000C0140F3
:103B1000001001400014014000180140001C014049
:103B2000002001400000014000002042DB48006806
:103B300040F00100D949086008464068D84908406B
:103B4000D649486008460068D6490840D34908600D
:103B50000846006820F4802008600846406820F489
:103B6000FE0048604FF41F0088607047CB49096829
:103B700021F48031C94A11601146096821F480217D
:103B80001160B0F5803F03D0B0F5802F0ED106E074
:103B9000C249096841F48031C04A116007E0BF4959
:103BA000096841F4A021BD4A116000E000BF00BFD8
:103BB000704710B501460022002300204A11012A57
:103BC00002D1B64C236806E0022A02D1B34C236A24
:103BD00001E0B24C636A01F01F02012494401C42D0
:103BE00001D0012000E0002010BD70B500240025A8
:103BF000002600BF3120FFF7DCFF0646641CB4F549
:103C0000A06F01D0002EF5D03120FFF7D2FF08B110
:103C1000012500E00025284670BD00219F4A11685B
:103C200021F0F80141EAC001116070479E49086027
:103C300070470022994B5A6822F47C1240EA010333
:103C40001A43964B5A60704797490866704700219F
:103C5000924A516821F003010143516070478F4837
:103C6000406800F00C00704700218C4A516821F038
:103C7000F0010143516070470021884A516821F4E6
:103C8000E0610143516070470021844A516821F48A
:103C9000605141EAC0015160704729B17F4A527AB0
:103CA00002437E4B5A7206E07C4A527AC343DBB22F
:103CB0001A407A4B5A7270477B49D8310860704776
:103CC0000021764A516821F4404101435160704718
:103CD0000021724A20321170704A82F820100128A7
:103CE00002D004280AD104E001216C4A203211706C
:103CF00005E00521694A2032117000E000BF00BFD5
:103D000070476A49086070476449096A0143634A19
:103D100011627047654944390860704730B5002129
:103D20000022002300245D4D6D6805F00C0121B1D7
:103D3000042905D0082923D105E05D4D056022E066
:103D40005B4D05601FE0554D6D6805F47012534DD5
:103D50006D6805F48033022505EB92421BB9554D81
:103D6000554305600BE04D4D6D6815F4003F03D0E1
:103D7000504D5543056002E04D4D5543056002E04E
:103D80004B4D056000BF00BF444D6D6805F0F0016C
:103D90000909494D6C5C0568E54045603F4D6D681B
:103DA00005F4E061090A444D6C5C4568E5408560B6
:103DB0003A4D6D6805F46051C90A3F4D6C5C456829
:103DC000E540C560354D6D6805F44041890B3A4DBD
:103DD00010356C5CC568B5FBF4F5056130BD29B1E3
:103DE0002E4A526902432D4B5A6104E02B4A526914
:103DF00082432A4B5A61704729B1284A926902438B
:103E0000264B9A6104E0254A92698243234B9A61CA
:103E1000704729B1214AD2690243204BDA6104E09C
:103E20001E4AD26982431D4BDA61704729B11B4A91
:103E3000D2680243194BDA6004E0184AD268824320
:103E4000164BDA60704729B1144A12690243134BCA
:103E50001A6104E0114A12698243104B1A617047DB
:103E600012494039086070470F49C86470470B49D0
:103E7000C87170470948406A40F08070074948623D
:103E8000704701460020054A92680A4201D001208D
:103E900000E000207047014988727047001002401E
:103EA0000000FFF8FFFFF6FE00004242800442429D
:103EB00000127A0000093D002400002010B50446DD
:103EC000FB48844209D101218803FFF7AFFF00219D
:103ED0004FF48040FFF7AAFF32E0F648844209D150
:103EE00001214804FFF7AFFF00214FF40030FFF736
:103EF000AAFF25E0F048844209D101218804FFF798
:103F0000A2FF00214FF48020FFF79DFF18E0EB484F
:103F1000844209D10121C804FFF795FF00214FF425
:103F20000020FFF790FF0BE0E548844208D1012113
:103F30000805FFF788FF00214FF48010FFF783FF8B
:103F400010BD2DE9F04786B004460D460026002737
:103F500000BFB146B246A88900B100BFA246268A7A
:103F60004CF6FF700640E88806432682A6894EF686
:103F7000F3100640A8882989084369890843064345
:103F8000A681A68A4FF6FF400640A8890643A6826E
:103F900001A8FFF7C3FE5446C548824501D1049FDE
:103FA00000E0039FA08910F4004F08D007EBC70082
:103FB00000EB071029684900B0FBF1F807E007EBB8
:103FC000C70000EB071029688900B0FBF1F86420F6
:103FD000B8FBF0F006013009642101FB1089A089CB
:103FE00010F4004F09D0322101EBC9006421B0FB6D
:103FF000F1F000F00700064308E0322101EB091060
:104000006421B0FBF1F000F00F000643268106B0FA
:10401000BDE8F0874FF41651016000218180C18016
:1040200001810C21418100218181704710B500225E
:10403000028A4FF2FF031A400B884C8823438C8876
:104040002343CC8823431A43028210BD0021018000
:1040500041808180C180704721B1828942F4005241
:10406000828104E082894DF6FF731A408281704795
:10407000F0B50024002500260023A1F510676A3F53
:1040800000D100BF0346C1F3421401F01F05012710
:1040900007FA05F6012C01D10C3304E0022C01D102
:1040A000103300E014331AB11F6837431F6002E079
:1040B0001F68B7431F60F0BD10B51AB1838A0B4368
:1040C000838204E0838ACC43A4B22340838210BD60
:1040D000028A4FF6F0731A400282028A0A43028271
:1040E000704782894FF2FF731A40828182890A43A6
:1040F0008281704721B1828942F00202828104E00C
:1041000082894FF6FD731A4082817047028A4FF60A
:10411000DF731A400282028A0A430282704721B189
:10412000028A42F48042028204E0028A4BF6FF7364
:104130001A4002827047C1F308028280704701462C
:104140008888C0F308007047818941F001018181AE
:104150007047028BD2B20283028B42EA01220283B1
:104160007047028B02F47F420283028B0A43028370
:10417000704721B1828A42F02002828204E0828A62
:104180004FF6DF731A408282704721B1828A42F073
:104190001002828204E0828A4FF6EF731A40828214
:1041A000704721B1828A42F00802828204E0828A4A
:1041B0004FF6F7731A408282704721B1828942F428
:1041C0000042828103E08289C2F30E02828170473D
:1041D00021B1828A42F40062828204E0828A4FF234
:1041E000FF731A4082827047828A4FF6FB731A402F
:1041F0008282828A0A438282704721B1828A42F097
:104200000202828204E0828A4FF6FD731A408282A3
:10421000704702460020B1F5007F00D100BF13882F
:104220000B4201D0012000E00020704701F4007231
:10423000B2F5007F00D100BFCA430280704770B55D
:1042400002460023002400250020A1F510666A3EE6
:1042500000D100BFC1F3421501F01F04012606FA88
:1042600004F4012D02D19689344006E0022D02D1DA
:10427000168A344001E0968A34400B12012606FA71
:1042800003F31688334014B10BB1012000E0002085
:1042900070BD10B500220023A1F510646A3C00D166
:1042A00000BF0A1201249440A3B2DC43048010BD75
:1042B000003801400044004000480040004C0040ED
:1042C00000500040704700000FB4054A054910B582
:1042D00003AB7944029800F0D8F810BC5DF814FBE9
:1042E0002000002075E8FFFF2DE9F04104460E464E
:1042F00000202BE0E1682046884748B3252802D0FB
:10430000D4E901211FE0E168204600278847050025
:104310001ED0A5F14100192802D820354FF40067BE
:104320003246294620462760FBF73CFF40B1012872
:1043300001D1361DDEE7F61D26F007060836D9E75F
:10434000D4E9012128469047206A401C2062D1E729
:10435000206ABDE8F08100002DE9F041804600268A
:1043600010687529414614A511D0AFF300800028CC
:1043700002DA404211A508E0D8F800108A0701D5FA
:104380000FA502E0490704D50EA5012601E0AFF311
:104390000080002408F1240704E000F089F830319F
:1043A0003955641C0028F8D133462A462146404638
:1043B000BDE8F04100F00CB8000000002D00000046
:1043C0002B000000200000007047704770477047C6
:1043D0002DE9F0470D4604469246994600F124081F
:1043E0000168880604D5E06921F01001216000E031
:1043F00001200027A84200DD471BA1697A1902EBC2
:104400000900081AA0612068C00602D42046AFF354
:104410000080002608E0D4E901211AF80600904740
:10442000206A401C761C20624E45F4DB2068C006E2
:104430000AD52046AFF3008006E0D4E90121302000
:104440009047206A401C2062381EA7F10107F4DC67
:1044500007E0D4E9012118F805009047206A401CC4
:104460002062281EA5F10105F3DC2046AFF3008091
:1044700021680220090600D40120BDE8F087000071
:1044800001694A1C02610878704710B50C4619464C
:1044900090B0CDE9024200220692044A7A44CDE966
:1044A000042001A8FFF720FF10B010BDE1FFFFFFBF
:1044B0004FF00A01B0FBF1F202FB11011046704708
:1044C000754600F029F8AE4605006946534620F0CF
:1044D0000700854618B020B5FEF7E6FBBDE8204092
:1044E0004FF000064FF000074FF000084FF0000BB0
:1044F00021F00701AC46ACE8C009ACE8C009ACE863
:10450000C009ACE8C0098D4670470446AFF300808F
:104510002046FBF75BFE0000004870470C010020BE
:1045200001F0004321F0004181EA410212F0FE4F08
:1045300008BF12F4600F00F02880A1F16051B1F5BE
:10454000801F1BDB02014FF0404C09D803D208BF8B
:104550004FF0000C0AE000F000521CEB820C05D476
:1045600010F100504FF0804C41F10001B1F17F6F2C
:1045700006DA43EAC10343EA5070704718467047B1
:104580004FF0FF0243EAC250704711F4801F01D17F
:1045900018467047DFF818C041EA030150EA0132BB
:1045A00040F0EC80AFF3008021F4E00070470000A1
:1045B0008800000410B591EA030F48BF83F0004360
:1045C00000F14684841A71EB030E05D2121943EBF5
:1045D0000E03001B61EB0E01DFF880C14FEA11549E
:1045E000A4EB135E1CEA430F18BF9CEA445F7DD026
:1045F00023EA0C0321EA045143F48013DEF1200C7A
:1046000038D322FA0EFC10EB0C0023FA0EFC41EB1F
:104610000C01CEF1200C03FA0CFC10EB0C0051F154
:104620000001B1F5801FCEF1200C38D201EB04510E
:10463000BDE8104012FA0CF258BF7047401C38BF5A
:104640005FEA420218BF7047002814BF20F0010043
:1046500041F100014FEA410313F5001F38BF7047D5
:1046600028BFB1F1C0413E494FF0000048BF41F0C2
:1046700000417047012A43EB0302AEF1200EDEF148
:104680001F0C32BF4FF0000C23FA0EF310EB0300A7
:1046900041EB0451B4EB115FCAD0A1EB045101F519
:1046A0008011490801EB0451BDE810405FEA300079
:1046B0000CD350F1000038BF12FA0CFC06D1C3E74E
:1046C000401C38BF5FEA4202C4D1BDE74FEA410354
:1046D00013F5001F38BF704728BFB1F1C041204912
:1046E0004FF0000048BF41F0004170479CEA445F32
:1046F00008D0BDE8104011EA5C0F04BF01F0004192
:1047000000207047012841EB0104012A43EB030E0E
:10471000644598BFE645DFF84CC0BDE8104000F2A4
:104720002580AFF30080012841EB0100012A43EB13
:104730000302904208D010F5001F04BF002070470C
:1047400019464FF00000704791EA030F4FF0000048
:1047500058BF704704494FF0000070470000E0FF69
:104760000000F07F110000040000F87F02494FF0C4
:10477000000000F086BF00000000F87F02494FF003
:10478000000000F07EBF00000000F87F70B5DFF889
:10479000ECC33CEA111418BF3CEA131400F09B80F0
:1047A00081EA03050CEA111444EAD5741CEA1315D6
:1047B00018BF11EA0C1F00F074804FEAC1214FEAC4
:1047C000C32341EA505143EA5253A4EB050404F1D8
:1047D0007F7441F0004143F000434FEAC0204FEAAC
:1047E000C22200F0A9F846054FEAD02003EB24438B
:1047F00040EA41504FEAD12101EB035282EAC471F1
:1048000016D05FEA460E38BF4FF0404610D314BFB3
:1048100000234FF0004350F1000041F1000110EA85
:10482000D37F4FF0804620EAD37018BF4FF0404648
:1048300091EAC47FDFF848E316D412EA0E0F18BFDE
:104840003EEA010E10D070BDE50754BF1EF4000F04
:104850001EF4800F0ABF4FF080464FF0404610F123
:10486000010041F10001E3E7B4F1806FDEBF01F127
:10487000C04101F00041002000DC70BDA8BFA1F1E3
:10488000C04146F0140CA8BF4CF0805CBDE87040FD
:104890006FF0000041EA500181EA10314FF0000052
:1048A000704711EA0C1F00D00AE013EA0C1F00F059
:1048B0003D804FF0000081EA030101F0004170BD2E
:1048C0006FF0000081EA030141EA500181EA1031F2
:1048D0004FF0000070BD4FEA410EBEEB4C1F4FEA97
:1048E000430508BF002898BFB5EB4C1F08BF002A3E
:1048F000BDE87040DFF88CC23FF638AFAFF3008000
:104900004FF4001C1CEB410F09D11CEB430F0FD0DF
:104910004B4021F0004148BF41F0004170474FF04B
:10492000000081EA030303F000417047BDE87040D6
:104930004FF0000094497047E0B5054610B40C46AE
:104940000FF238114FEA430C4FF0010E4FEA9C6C06
:1049500051F82CC04FF00001ACFB02604FF0000694
:10496000ECFB0301001841EB0101301A66EB010179
:10497000E1FB0C6C4FF00001ACFB02604FF0000655
:10498000ECFB0301001841EB0101301A66EB010159
:10499000E1FB0C6C4FF00001ACFB0560ECFB04018B
:1049A000A2FB0167E3FB006E17EB0E074FF0000E52
:1049B000E3FB017E4EF1000EB6197F414EEB0E0E69
:1049C000764275EB070764EB0E0EECFB0E01ACFBB9
:1049D00007E64FF0000E801941F10001A2FB0067CD
:1049E000B619E2FB017EE3FB007E7F4103FB01EE93
:1049F0004EEB0E0E76424FF0000676EB070765EBA6
:104A00000E0EACFB0E674FF0000E4FEA857C4FEAAE
:104A10009505C01941F1000145EA847549084FEA3E
:104A20003000A2FB00677642E2FB017EE3FB007EE2
:104A30007CEB070703FB01EE65EB0E0EB51A77EB77
:104A400003047EF1000E24BF2E46274650F10000DD
:104A500041F10001012E38BF012F404141EB01011E
:104A600011F0004F18BF022301D0F0BC00BDF0BC14
:104A70004FF00103001841EB010100BDFCC00FFC29
:104A8000830F3EF85F8D89F4F0F0F0F0B50373ED1D
:104A9000EAA00EEA48B4C2E6E3388EE31C3870E0C0
:104AA000A6C867DDA70D74DAE53594D7037BC7D4B4
:104AB000D2200DD2A87464CFCCCCCCCCE68745CA2A
:104AC0007C0CCEC77BC865C5C3300CC3C0C0C0C09A
:104AD0000BFA82BE0B6452BCA28B2EBAE00217B84E
:104AE000B6600BB6B4400BB4C84216B2020B2CB081
:104AF0005C414CAE849176ACAAAAAAAA573FE8A81A
:104B000039052FA702B57EA53D0AD7A32BC337A22F
:104B1000A0A0A0A0E765119F9DD8899D9CC0099C7D
:104B2000D9E7909A511A1F99ED25B4976CDA4F96F0
:104B30004F09F294C4859A939224499209BCFD903E
:104B4000EE23B88F6D35788E08CB3D8D8CC0088CE8
:104B5000FBF2D88A8940AE89888888885FAB6787EE
:104B60007D8A4B865308348542082184976E1283D0
:104B70008220088208040281000000800000FF07F4
:104B80000000F07F140000040000F87F4FEAC1230A
:104B900003B40A1543EA505318BF43F000430DD441
:104BA000A2F56072D2F19E0240F32180FF2ACCBFB1
:104BB000002123FA02F1084602B070474FEA425240
:104BC000520D08BF23F000434FF00001A2F56072C0
:104BD000D2F19E020BDBFF2ADCBF23FA02FCA1EB21
:104BE0000C010029DEBF02B008467047FFE703BC96
:104BF000DFF830C0012841EB010313F5001F88BF27
:104C00004CF4803C3FF6BAAD3EBF6FEAE17080F0F5
:104C100000407047AFF300806FEAE17080F0004021
:104C200070470000C800020410F0004314BF414266
:104C3000014643F08043B1FA81FC03F1F87311FAA5
:104C40000CF1A3EB0C534FEA415008BF704703EB44
:104C5000E12170474FF080430146FFF7ECBF0000B1
:104C6000DFF8B4C170B53CEA111E18BF3CEA131E50
:104C700000F0A68081EA03050CEA111E4EEAD57EFB
:104C80001CEA131518BF11EA0C1F00F08F80AE4408
:104C900021EA4C1123EA4C13AEF17F7E41F48011DE
:104CA00043F48013A1FB024CA0FB0365361955EBBE
:104CB0000C05A1FB034C4CF10003A0FB021C16EBFE
:104CC0000C06654153F10003094218BF46F0010686
:104CD0004FF0140CB3F5007F4CF1000CCCF1200424
:104CE00025FA0CF203FA04F141EA020105FA04F094
:104CF00026FA0CF240EA02006FF0030242EB2E4269
:104D000016FA04F401EB025585EACE7115D05FEA7C
:104D1000440C38BF4FF040440FD308BF43F000436A
:104D200050F1000041F1000110EAD37F4FF08044C0
:104D300020EAD37018BF4FF0404415F0004FDFF861
:104D4000DCC017D415EA0C0F18BF3CEA010C11D0D7
:104D500070BD5FEACE7454BF1CF4000F1CF4800FCA
:104D60000ABF4FF080444FF0404410F1010041F180
:104D70000001E2E7BEF1806FA2BFA1F1C04144F0A3
:104D8000130C4CF0805CBDE8704006DA4FF0000078
:104D900001F1C04101F0004170476FF0000041EAAD
:104DA000500181EA10314FF0000070474FEACE7198
:104DB0004FF0000070BD4FEACE714FF0000070BDA3
:104DC0004FEA4105B5EB4C1F4FEA430608BF0028E8
:104DD00098BFB6EB4C1F08BF002ABDE87040DFF853
:104DE00040C03FF6C3ACAFF300804FF4001CBCEBF7
:104DF000410F98BFBCEB430F0AD84FF0000081EA87
:104E0000030101F0004141F0FE4141F4700170479F
:104E100004494FF0000070470000FF070000F07FDA
:104E2000130000040000F87F91EA030F10B581F031
:104E300000413FF5C7AB83F0004300F009B8000024
:104E400010B591EA030F48BF83F000433FF5BAABBA
:104E5000841A71EB030E07D212198EF0004E43EB49
:104E60000E03001B61EB0E01DFF810C24FEA115474
:104E7000A4EB135E1CEA430F18BF9CEA445F00F0EA
:104E8000C58023EA6C03524221EA0451C3EB6C0350
:104E900038BF5B1EDEF1200C29D322FA0EFC10EB8A
:104EA0000C0043FA0EFC41EB0C01CEF1200C03FA8E
:104EB0000CFC10EB0C0051F10001CEF1200C2DD4B4
:104EC00001EB0451BDE8104012FA0CF24FF0120C45
:104ED0004CF0804C58BF7047401C1CBFB2F1004FD3
:104EE000704700280CBF491C20F00100704712EBEE
:104EF000020C43EB030218BF4FF0010C4CEA4202D4
:104F0000AEF1200EDEF11E0C63D943FA0EFC10EB5D
:104F10000C0051F1FF31CEF11E0CD1D50CF1010C7A
:104F200012FA0CFC404141EB010101EB445E5FEAE7
:104F30005E5E10D901EB0451BDE8104010EBDC704F
:104F400038BFBCF1004F18BF704700280CBF491C88
:104F500020F0010070473FD211F5001108BF002872
:104F600001D1BDE810403FD04FEAD42E24F40064B4
:104F7000B1FA81F2202AA4F1020404BFB0FA80F34E
:104F8000D218A2F10B02B2F12003A4EB02040CD25E
:104F9000C2F1200301FA02F120FA03F341EA03010E
:104FA00000FA02F0C2F1200303E000FA03F14FF02F
:104FB000000001EBCE71002C01EB0451BDE8104064
:104FC000A8BF704701F1C0414FF0000001F000415F
:104FD000704701EB045110BD491001EB0451BDE8CD
:104FE00010404FEA300002E04FF0000170474FF0F0
:104FF000120C4A0008BF0042F6D0B2F5001F28BFCD
:10500000704701F000414FF0000070479CEA445F98
:1050100007D0BDE8104011EA5C0F04BF002100205A
:105020007047012841EB0104012A43EB030E64455C
:1050300098BFE645DFF848C0BDE810403FF696ABA4
:10504000AFF30080012841EB0100012A43EB03028A
:10505000904209D010F5001F04BF0020704783F074
:1050600000414FF00000704791EA030F4FF000003D
:1050700048BF704703494FF0000070470000E0FF51
:10508000120000040000F87F094248BF4CF4803C45
:105090004FF4C0634FEA115203F1010321EA0251B8
:1050A00022F400629A1A48BF6FF0FE0241F48011A8
:1050B000352A3CD830D0152A1ED3203A0CD90028E6
:1050C000C2F1200321FA02F001FA03F218BF42F004
:1050D00001024FF0000130E0C2F1000302F12002B2
:1050E00001FA03F120FA02F241EA020100FA03F2A6
:1050F00008464FF0000120E0C2F1200310B400FA8E
:1051000003F401FA03F320FA02F021FA02F1224635
:1051100010BC43EA000010E050EA01324FF00000FA
:105120004FF000014FF0004218BF521C05E04FF055
:1051300001024FF000014FF000001CF4803F2CF4FE
:10514000803C18BF41F00041124208BF7047520036
:1051500003D303D0401C41F1000170475FEAAC72F9
:10516000F8D4FAD1401C41F1000120F00100F4E72D
:105170007047704700F5000C1CF0FE4F09D0C110BD
:105180004FEA407001F1605158BF7047A1F1E04112
:1051900070471CF4000F08D00146400008BF70475C
:1051A0004FF000004FEA30017047DFF814C04202B0
:1051B00040F08E80AFF3008040F4E001104670476D
:1051C0001800000490EA010F48BF81F0004100F18F
:1051D0008A81421A3CBF801A89184FEAD0524FF098
:1051E0007F4C1CEA410FA2EBD15318BF9CEA026F1F
:1051F00000F040804FF0004C4CEA00204CEA0121C6
:1052000021FA03FC10EB0C0C23D202F1FF325FEA0F
:105210001C2040EBC25038BF70471CF07F0F4FEA94
:10522000400C18BFBCF17F4F38BF7047C3F120035B
:10523000994008BF20F00100BCF17F4F38BF704794
:10524000A0F1C0404FF0FF0141EAD0514FEAC150F8
:1052500070474FEA3C00000A40EBC25028BF1CF0E8
:10526000FF0F4FEA400CE1D018BFBCF17F4F38BFB1
:105270007047E5E79CEA026F05D010EA5C0F08BFB3
:1052800000F000407047BCEB410F4FEA400228BFDE
:105290009445DFF828C0C0F01580AFF30080B2EB72
:1052A000410F05D012F1807F08BF70470846704754
:1052B00090EA010F58BF7047014870470100000491
:1052C0000000C07F014800F0DCB900000000C07F92
:1052D000014800F0D6B900000000C07FC2154FEAB7
:1052E000002318BF43F0004305D4D2F19E020AD335
:1052F00023FA02F070474FEA4001B1F1FE4F02D2AB
:105300004FF000007047DFF828C04FEA4001B1F1CC
:105310007F4F88BF4CF4803C3FF6DAAF1CBF6FEA8A
:10532000E0707047AFF300806FEAE07070470000F4
:105330006800020410F0004218BF404242F0804270
:10534000B0FA80F18840A2EBC15202F1786208BF46
:105350007047410642EB202018BF5FF0806C28BFE9
:1053600020F0010070474FF08042FFF7E9BF0000D6
:105370004FF47F0C1CEAD0121EBF1CEAD11392EA34
:105380000C0F93EA0C0F00F04A8090EA010F48BF1F
:1053900042F480724FF0004C4CEA00204CEA0121AC
:1053A0001A44A0FB01C3A2F50002BCF1000F18BF14
:1053B00043F0010302F4807CB3F1004F38BF5B007F
:1053C00042EB2242180A40EBC25028BF13F07F0F75
:1053D00018BFB2F57C0F38BF704708BF20F001003E
:1053E000B2F57C0F38BF70470BD582F0FF0212F583
:1053F000803FC8BF704700F1C040D8BF00F00040F8
:10540000704700F5000C5FEA4C0C48BF7047B0F1E4
:10541000C0404FF07F404CBF40104008704790EABA
:10542000010F0CEAD11348BF42F48072624538BFC5
:10543000634504D280EA010000F0004070474FF05D
:10544000807C1CEB400F98BF1CEB410F4FF0030C0E
:105450004CF0806C3FF636AFAFF3008012F47F0F54
:105460001FBF13F47F0F42F0FF02D00570470148C1
:10547000704700000000C07F10B412F47F0F4FEAA5
:1054800000204FEA012110D1B0FA80F400FA04F0B4
:10549000A2EB044213F47F0F02F5803218BF41F0F3
:1054A000004100D010BC18BF604740F00040B1FA86
:1054B00081F401FA04F1A3EB044310BC03F580333B
:1054C000604780F0004090EA010F7FF582AE81F0E6
:1054D000004100F008B8000090EA010F48BF81F0D9
:1054E00000413FF576AE421A3EBF82F00042801A7C
:1054F00089184FEAD0524FF07F4C1CEA410FA2EBC3
:10550000D15318BF9CEA026F4FD04FF0004C4CEAC9
:1055100000204CEA012121FA03FCB0EB0C0C0FD463
:1055200012F0FE0F18BF5FEA4C001DD5001240EBD1
:10553000C25038BF70471CF03F0F18BF70470BE0D8
:10554000A2F101025FEA1C2040EBC25038BF704755
:105550001CF07F0F18BF7047C3F12003994014BFA0
:10556000401E20F0010070474FEA122316D000427F
:1055700004BF002070474FEA9000B0FA80FCA2EB15
:105580000C02CCF1280C60FA0CF093EA122F04BF45
:1055900000EBC25070474FEAC37070475FEADC10FF
:1055A00008BF70474FEAC37070479CEA026F04D08F
:1055B00010EA5C0F08BF00207047BCEB410F4FEAB8
:1055C000400228BF9445DFF82CC0FFF47BAEAFF358
:1055D0000080B2EB410F06D012F1807F08BF704708
:1055E00081F00040704790EA010F48BF70470248C1
:1055F00070470000020000040000C07F00F000437C
:1056000043EAD05323F48073C3F1C10323F0004174
:1056100017291FD8C3F1200310FA03F1C3F12003A7
:1056200020F07F4040F4000020FA03F003F0004334
:1056300040EA03000DD00B46590009D318BF401CA7
:1056400006D17FEAE27398BF401C38BF20F001000A
:1056500070477047182903EB912318BF6FF0004182
:10566000013168BF03F0004009D6400203F000405A
:1056700000F1010004BF12F0004F20F0010070475C
:1056800070470CF00F03092B08BF082000F02B8097
:105690000A2B0BD0082B18BF704708BF1CF0400F17
:1056A0000AD04FF000004FF0000170471CF0400F8F
:1056B00018BF4FF0004070471CF0100F08D020F0CA
:1056C000704300F07F4242EAD3014FEA43707047D3
:1056D00000F0604021F07F4242EA000201F07F408A
:1056E00040EA727070471CF4801F11D01CF4E02F48
:1056F00003D06FEACC31490070474FF04050EFF3D0
:10570000008222F0704242EA000282F30088704771
:105710004FF0000070470000000000000000000093
:105720000000000000003F400000000000000000FA
:105730003000400030004000000009000BC03D0078
:105740000BC03D00090018C024407FE0224031809A
:105750000000180024C01B000D803240018003802F
:105760001C4027401C8007400040100060000000E3
:105770000000000000000000000000001F8020402A
:1057800040200000402020401F8000000000090051
:1057900006001F80060009000000040004003F808E
:1057A0000400040000000010006000000000000081
:1057B00000000400040004000400040000000000D5
:1057C00000400000000000000000002001C00600B2
:1057D0003800400000001F802040204020401F80F3
:1057E0000000000010403FC000400000000018C052
:1057F00021402240244018400000108020402440D6
:1058000024401B80000002000D0011003FC0014039
:1058100000003C80244024402440238000001F805E
:10582000244024403440038000003000200027C082
:105830003800200000001B802440244024401B80AE
:1058400000001C0022C0224022401F8000000000F7
:10585000000008400000000000000000000004609C
:10586000000000000000000004000A001100208079
:10587000404009000900090009000900000000007B
:105880004040208011000A0004001800200023403E
:105890002400180000001F802040274029401F409E
:1058A0000000004007C039000F0001C00040204048
:1058B0003FC0244024401B8000001F802040204027
:1058C00020403080000020403FC0204020401F800A
:1058D000000020403FC024402E4030C00000204047
:1058E0003FC024402E00300000000F0010802040F8
:1058F00022403380020020403FC0040004003FC02B
:105900002040204020403FC0204020400000006058
:10591000202020203FC02000200020403FC0244005
:105920000B0030C0204020403FC0204000400040DD
:1059300000C03FC03C0003C03C003FC0000020400E
:105940003FC00C4023003FC020001F80204020406B
:1059500020401F80000020403FC024402400180049
:1059600000001F802140214020E01FA000002040B7
:105970003FC02440260019C0004018C024402440E5
:10598000224031800000300020403FC020403000E5
:10599000000020003F80004000403F8020002000A9
:1059A0003E0001C0070038002000380007C03C005E
:1059B00007C038000000204039C0060039C0204030
:1059C00000002000384007C0384020000000304070
:1059D00021C02640384020C00000000000007FE0C9
:1059E000402040200000000070000C0003800040B8
:1059F00000000000402040207FE000000000000088
:105A000020004000200000000000001000100010E6
:105A10000010001000100000000040000000000016
:105A20000000000002800540054003C00040200047
:105A30003FC0044004400380000000000380044095
:105A400004400640000000000380044024403FC0A2
:105A500000400000038005400540034000000000B6
:105A600004401FC0244024402000000002E00550F4
:105A700005500650042020403FC00440040003C0ED
:105A800000400000044027C000400000000000105B
:105A90000010041027E00000000020403FC001403B
:105AA000070004C00440204020403FC000400040A8
:105AB000000007C0040007C0040003C00000044049
:105AC00007C00440040003C00040000003800440FD
:105AD000044003800000041007F0045004400380D9
